:100000000C9453020C947B020C947B020C947B02A4
:100010000C947B020C947B020C947B020C947B026C
:100020000C947B020C943D0C0C949E1B0C946A1A4D
:100030000C947B020C947B020C947B020C947B024C
:100040000C947B020C947B020C947B020C947B023C
:100050000C947B020C947B020C947B020C94D912BE
:100060000C947B020C947B020C947B020C947B021C
:100070000C947B020C947B020C947B020C947B020C
:100080000C947B020C947B020C947B020C947B02FC
:100090000C94B0070C947B020C947B020C947B02B2
:1000A0000C947B020C947B020C947B02311436146A
:1000B0003B1445144F14991499149914591463144A
:1000C0006D147714841499148C14BA14BD14AC14E0
:1000D000B014B614DE14DE14DE14C114C514C91431
:1000E000CF14D314DE14D914005EBCE2613FDD836B
:1000F000C29C7E20A3FD1F419DC3217FFCA2401E08
:100100005F01E3BD3E6082DC237D9FC1421CFEA0F7
:10011000E1BF5D0380DE3C62BEE0025CDF81633DE7
:100120007C22C09E1D43A1FF4618FAA427799BC5D7
:1001300084DA3866E5BB5907DB856739BAE40658C7
:100140001947A5FB7826C49A653BD987045AB8E6B7
:10015000A7F91B45C6987A24F8A6441A99C7257BA7
:100160003A6486D85B05E7B98CD2306EEDB3510F97
:100170004E10F2AC2F7193CD114FADF3702ECC9287
:10018000D38D6F31B2EC0E50AFF1134DCE90722C77
:100190006D33D18F0C52B0EE326C8ED0530DEFB167
:1001A000F0AE4C1291CF2D73CA947628ABF5174957
:1001B0000856B4EA6937D58B5709EBB536688AD447
:1001C00095CB2977F4AA4816E9B7550B88D6346A37
:1001D0002B7597C94A14F6A8742AC896154BA9F727
:1001E000B6E80A54D7896B3500C20100010011003E
:1001F00011000C0000E100000A002500250021008C
:10020000009600001900390039003600127A00000B
:100210001F004600460044008070000022004D0090
:100220004D004A00004B000036007500750072005A
:10023000403800004A009C009C0099008025000086
:100240007200EC00EC00E900C0120000E900DA01E5
:10025000DA01D70160090000D701B603B603B30382
:10026000B0040000B3036E076E076B07580200006E
:100270006E07DC0EDC0ED80E2C010000DC0EC11D5A
:10028000C11DBE1D070605040100080A0B0C0D095F
:100290000000000200090F0000030401000C000030
:1002A0000000000000000000000000000000040842
:1002B000020110408040102040804080080204016C
:1002C00080402010020110801020404004040404EB
:1002D00004030405020202020403020202020606EB
:1002E00006060606040402020204000000002300C1
:1002F000260029002C002F00000000002500280007
:100300002B002E00310000000000240027002A00EE
:100310002D003000080B0002020201000904000059
:10032000010202000005240010010524010101045E
:100330002402060524060001070581031000400978
:10034000040100020A000000070502024000000745
:1003500005830240000000C18081C1120100020239
:10036000000040412336800001010200011201001B
:1003700002000000404123368000010102000141DB
:10038000726475696E6F204C4C43004172647569EC
:100390006E6F204C656F6E6172646F000403090418
:1003A00000000000000000002A2B280000000000D0
:1003B000000000000000000000000000000000003D
:1003C0002C9EB4A0A1A2A434A6A7A5AE362D373882
:1003D000271E1F20212223242526B333B62EB7B88B
:1003E0009F8485868788898A8B8C8D8E8F90919249
:1003F000939495969798999A9B9C9D2F3130A3AD95
:10040000350405060708090A0B0C0D0E0F10111212
:10041000131415161718191A1B1C1DAFB1B0B5000F
:10042000090402000103000000092101010001226A
:1004300065000705840340000105010902A10109C7
:1004400001A1008501050919012903150025019560
:1004500003750181029501750581030501093009C4
:100460003109381581257F750895038106C0C005BF
:10047000010906A1018502050719E029E7150025F4
:10048000017501950881029501750881039506752E
:1004900008150025650507190029658100C0880534
:1004A000CE063616491D11241FBECFEFDAE0DEBF9F
:1004B000CDBF12E0A0E0B1E0ECE7F2E402C00590AD
:1004C0000D92AC30B107D9F723E0ACE0B2E001C047
:1004D0001D92A83FB207E1F714E0C6EAD4E004C0D9
:1004E0002297FE010E94AD1FCE39D107C9F70E94A5
:1004F00054160C943C210C940000EF92FF920F9341
:100500001F93FC0116861586668347832087E18644
:10051000F286038714871F910F91FF90EF90089543
:10052000DF92EF92FF920F931F93CF93DF93EC0133
:100530007B0160E270E0C7010E940F21FC01119273
:100540008F01C7010E94F1208330910509F4C8C0D2
:1005500034F481309105D9F00297F1F154C185301E
:10056000910509F430C10CF4E3C0069709F04BC1C2
:100570004AE050E06AE670E0888199810E9479172C
:1005800064E671E0888199810E94A71644C1C80180
:100590000E94F120F82EE92E4AE050E065E670E076
:1005A000888199810E94791764E671E08881998138
:1005B0000E94A7164AE050E06F2D7E2D8881998118
:1005C0000E94791764E671E0888199810E94A716DC
:1005D0008F2D0E944E15A8C060E270E0C8010E94F5
:1005E0000F21FC0111927F01C8010E94F1208C01B2
:1005F00061E171E0C7010E941A21892B99F14AE05B
:1006000050E066E670E0888199810E94791764E67F
:1006100071E0888199810E94A7164AE050E0B801F4
:10062000888199810E94791764E671E088819981B7
:100630000E94A71661E171E0888199810E94A71646
:1006400064E671E0888199810E94A716FE01E00F9F
:10065000F11F87A9811106C081E087AB61E0802F7F
:100660000E94181569E171E0C7010E941A21892BC7
:1006700009F4A3C04AE050E066E670E08881998101
:100680000E94791764E671E0888199810E94A7161B
:100690004AE050E0B801888199810E94791764E6A8
:1006A00071E0888199810E94A7164AE050E060E0DD
:1006B00070E0888199810E94791764E671E08881F1
:1006C00099810E94A716FE01E00FF11F87A98823D8
:1006D00009F473C017AA60E0802F0E9418156DC03E
:1006E000C8010E94F120F82EE92E4AE050E067E6AA
:1006F00070E0888199810E94791764E671E08881B1
:1007000099810E94A7164AE050E06F2D7E2D8881C6
:1007100099810E94791764E671E0888199810E942D
:10072000A7168F2D0E94DA134AE050E0BC016FC07B
:1007300060E270E0C8010E940F21FC0111927F016C
:10074000C8010E94F120D82E192F4AE050E068E637
:1007500070E0888199810E94791764E671E0888150
:1007600099810E94A7164AE050E06D2D712F888173
:1007700099810E94791764E671E0888199810E94CD
:10078000A716C7010E94F1208C014AE050E0BC018D
:10079000888199810E94791764E671E08881998146
:1007A0000E94A716B8018D2D0E940B144AE050E05C
:1007B000B801888199810E947917888199810E9466
:1007C000B01687012CC04AE050E069E670E08881ED
:1007D00099810E94791764E671E0888199810E946D
:1007E000A7168C819D810E94191260E08C819D81E9
:1007F0000E94AE12AB01BC0122E030E088819981F9
:100800000E946C1808C04AE050E064E670E08881FD
:1008100099810E947917888199810E94B016C80138
:10082000DF91CF911F910F91FF90EF90DF9008958E
:100830000F931F93CF93DF93EC018EE090E00E9423
:1008400067168C0168850E94160A1B830A8383E160
:1008500090E00E9467168C016A817B810E940E10D5
:100860001D830C83C8010E9437118CE190E00E9427
:1008700067168C0120E04F816E810E94B90C1983AC
:10088000088349855A856B857C85C8010E94E90CDF
:1008900060E271E0CE010E94900267E271E0CE0159
:1008A000DF91CF911F910F910C949002CF93DF9322
:1008B000EC018C819D810E94191260E08C819D81E8
:1008C000DF91CF910C94AE12680F791FFB0187A9BD
:1008D00008950F931F93CF93DF93EC018C01015F79
:1008E0001F4F88819981DC01ED91FC910480F58195
:1008F000E02D0995181619063CF58D859E8588977B
:100900001CF588819981DC01ED91FC910680F781CD
:10091000E02D09952D853E858A3011F08D3059F4F2
:10092000FE01E20FF31F1786B801CE010E9490026C
:100930001E861D86D6CFFE01E20FF31F87872F5F2D
:100940003F4F3E872D87CDCFDF91CF911F910F91E4
:100950000895CF92DF92EF92FF926EE271E08EE8FF
:1009600093E00E94C4160E9423136B017C018091C6
:10097000640290916502A0916602B0916702A7019E
:100980009601281B390B4A0B5B0BDA01C901883829
:100990009341A105B105A0F0C0926402D092650216
:1009A000E0926602F09267028CE092E00E945604A8
:1009B00060935C0270935D0280935E0290935F028D
:1009C0008CE092E00E946904809160029091610243
:1009D000A0916202B0916302A7019601281B390B16
:1009E0004A0B5B0BDA01C901883E9340A105B105B2
:1009F00008F489C0C0926002D0926102E092620263
:100A0000F092630288E692E00E94100E88E692E07F
:100A10000E94170E63E371E088E692E00E94A71639
:100A20006DE070E08CE092E00E946404882319F08D
:100A30006CE371E002C069E371E088E692E00E9435
:100A4000A71641E060E088E692E00E941E0E65E491
:100A500071E088E692E00E94A7166CE070E08CE0FE
:100A600092E00E946404882319F06FE471E002C0F0
:100A70006CE471E088E692E00E94A71642E060E034
:100A800088E692E00E941E0E68E571E088E692E03A
:100A90000E94A71640915C0250915D0260915E0237
:100AA00070915F0222E030E088E692E00E946C18CC
:100AB00043E060E088E692E00E941E0E66E671E088
:100AC00088E692E00E94A71680E00E94DA1360E0B8
:100AD00074E0681B790B882777FD8095982F0E941A
:100AE0005A1E2AE037ED43E251E40E94BF1DAB01DC
:100AF000BC0122E030E088E692E0FF90EF90DF90CA
:100B0000CF900C946C18FF90EF90DF90CF900895E9
:100B10008F92AF92CF92EF92FF920F931F931F92FB
:100B20001F9283E08F9387E0882E96E0A92E25E020
:100B3000C22E34E0E32E00E021E042E067E288E6E6
:100B400092E00E94640F10E8E12E15E2F12E00E021
:100B500010E021E04BE06AE08CE092E00E947D0230
:100B60000F900F900F901F910F91FF90EF90CF90EB
:100B7000AF908F90089520E044E064E188E692E031
:100B80000E94F20F88E692E00E94170E60E771E083
:100B900088E692E00E94A71641E060E088E692E0D5
:100BA0000E941E0E6EE771E088E692E00E94A71692
:100BB00042E060E088E692E00E941E0E62E971E089
:100BC00088E692E00E94A7168CE092E00E9418044A
:100BD00061E08DE00E94DF1461E08CE00E94DF1490
:100BE0008CE092E00E94560460935C0270935D0278
:100BF00080935E0290935F0208958091B10290E02D
:100C00002091B202821B910908952091B202809135
:100C1000B102281750F4E22FF0E0ED54FD4F80812F
:100C200090E02F5F2093B20208958FEF9FEF089519
:100C3000E091B2028091B102E81730F4F0E0ED5497
:100C4000FD4F808190E008958FEF9FEF0895089504
:100C5000CF92DF92EF92FF920F931F93CF93DF9388
:100C60007C01CB018A0120918D02222389F0EB01C6
:100C70006B01C40ED51ECC15DD0569F06991D70155
:100C8000ED91FC910190F081E02DC7010995F3CF22
:100C9000642F0E948707C801DF91CF911F910F91A8
:100CA000FF90EF90DF90CF900895CF93DF931F9246
:100CB000CDB7DEB7698320918D022223D1F0209138
:100CC0008E02203240F021E030E0FC0133832283A9
:100CD00080E090E015C080918F02E82FF0E0E057AF
:100CE000FD4F998190838F5F80938F0280938E0256
:100CF00005C061E0CE0101960E94870781E090E087
:100D00000F90DF91CF910895FC011382128248EE7B
:100D100053E060E070E044835583668377838DE918
:100D200091E09183808308951092B2021092B102F3
:100D300010928F0210928E020C94D206862F4132AE
:100D400008F040E263EB72E00E94F0061092B202FB
:100D50008093B102089521E00C949E0681E0809377
:100D60008D026093B00210928F0210928E0208954D
:100D70000F93062F21E040918E0260E972E080918E
:100D8000B0020E94340710928F0210928E021092CD
:100D90008D020F91089561E00C94B80681E892E00D
:100DA0000C9484061092400381E080933E031092DD
:100DB0003D0361E082E00E94181561E083E00E943B
:100DC0001815E9EBF0E080818E7F808380818D7F34
:100DD000808388E48093B80085E48093BC00089504
:100DE000413208F03FC0909140039111FCCF91E057
:100DF0009093400320933E032FEF2093D302109251
:100E00001803240F2093170390933F0390913F03FF
:100E1000880F892B80933F0380913D03813041F4FB
:100E200010923D0380913F038093BB0085EC01C08D
:100E300085EE8093BC00809140038130E1F3809186
:100E40001803841710F44091180329E133E0FB01E3
:100E5000D9018A2F821B841718F48D918193F9CFC1
:100E6000842F089580E008950F93413208F046C022
:100E7000909140039111FCCF92E090934003009336
:100E80003E039FEF9093D3021092180340931703F1
:100E9000FB0169E173E0DB019A2F961B941718F4AC
:100EA00091919D93F9CF10923F0390913F03880F4A
:100EB000892B80933F0380913D03813041F4109250
:100EC0003D0380913F038093BB0085EC01C085EE1C
:100ED0008093BC00222321F0809140038230E1F313
:100EE0008091D3028F3F61F08091D302803251F024
:100EF0008091D302803341F483E007C081E005C0D4
:100F000080E003C082E001C084E00F910895613267
:100F100098F420914003243089F46093F502FC0199
:100F200087EF92E0DC012A2F281B261718F4219165
:100F30002D93F9CF80E0089581E0089582E008952F
:100F400085ED8093BC008091BC0084FDFCCF1092A5
:100F50004003089585EC8093BC00109240030895EF
:100F60001F920F920FB60F9211242F933F934F931E
:100F70005F936F937F938F939F93AF93BF93EF9301
:100F8000FF938091B900887F803609F49CC068F592
:100F9000883209F45BC090F4803109F454C038F40D
:100FA000882309F4F5C0883009F44DC0F5C08831B4
:100FB00009F44CC0803209F45DC0EEC0803409F4FD
:100FC00068C048F4803309F455C0883309F0E4C0A0
:100FD0008093D302A8C0803509F44FC0883509F446
:100FE0005DC0883409F0D8C0D5C0883909F4C6C0BE
:100FF000A8F4883709F467C038F4883609F463C068
:10100000803709F460C0C8C0883809F4B7C0803997
:1010100009F45FC0803809F0BFC05BC0803B09F4B1
:1010200085C038F4803A09F466C0883A09F47EC075
:10103000B3C0803C09F4A6C0883C09F4A3C0883B37
:1010400009F489C0A9C080913F0310C09091180392
:1010500080911703981770F5E091180381E08E0FC7
:1010600080931803F0E0E75EFC4F80818093BB0023
:1010700085EC85C08093D3028DC0E091180381E098
:101080008E0F809318038091BB00F0E0E75EFC4F69
:10109000808390911803809117036DC0E09118032D
:1010A00081E08E0F809318038091BB00F0E0E75E33
:1010B000FC4F808380913E0381116CC081E080935E
:1010C0003D0384EA60C083E0809340031092D40221
:1010D000CFCF8091D402803208F050C0E091D4028A
:1010E00081E08E0F8093D4028091BB00F0E0EB5240
:1010F000FD4F8083BDCF8091D402803230F4E091E7
:10110000D402F0E0EB52FD4F10820E94A0076091E4
:10111000D40270E0E0913903F0913A0385ED92E05A
:1011200009951092D4020E94AA0736C084E08093E9
:1011300040031092F6021092F502E0913B03F09109
:101140003C0309958091F502811105C081E08093EF
:10115000F5021092F702E091F60281E08E0F809383
:10116000F602F0E0E950FD4F80818093BB00909142
:10117000F6028091F502981708F47ACF85E88093FB
:10118000BC000AC085EC8093BC001092400304C0F0
:101190001092D3020E94A007FF91EF91BF91AF91EF
:1011A0009F918F917F916F915F914F913F912F917F
:1011B0000F900FBE0F901F901895FF920F931F93E3
:1011C000CF93DF93FC010081C181D281F8948981A2
:1011D000F02EF0948F21898378941DE7115029F126
:1011E00082E090E00E947A1388818023B9F3F8941A
:1011F0008A818F218A838981802B8983789480EEEC
:1012000091E00E947A13F89489818F21898386E482
:1012100090E00E947A138881802311E009F010E0A9
:1012200078948AE991E00E947A13812FDF91CF911F
:101230001F910F91FF9008951F93CF93DF93FC01AF
:101240001081C181D281912F909560FF12C0F894D6
:101250008A8189238A838981812B89838AE090E02E
:101260000E947A138A81812B8A83789487E390E0A5
:1012700011C0F8948A8189238A838981812B89838B
:1012800081E490E00E947A138A81812B8A8378948A
:1012900085E090E0DF91CF911F910C947A130F932A
:1012A0001F93CF93DF93FC011081C181D281F89409
:1012B0008981812B89838A81012F009580238A83EC
:1012C00083E090E00E947A138981802389838AE0F9
:1012D00090E00E947A13C881789485E390E00E94A0
:1012E0007A131C2381E009F480E0DF91CF911F91F4
:1012F0000F910895CF92DF92EF92FF920F931F9379
:10130000CF93DF931F92CDB7DEB76C01E62E08E0D6
:1013100010E0FF24F39461E09F2D9E2109F460E02A
:10132000C60149830E941C09FF0C01501109498123
:101330000115110581F7411115C0F894D6011196D8
:10134000ED91FC91129791818C91809589238183F5
:101350001196ED91FC91129792818C918095892341
:10136000828378940F90DF91CF911F910F91FF901E
:10137000EF90DF90CF900895EF92FF920F931F931D
:10138000CF93DF938C01C8E0D0E0F12CEE24E394FE
:10139000C8010E944F098111FE28EE0C2197C1F768
:1013A0008F2DDF91CF911F910F91FF90EF900895B6
:1013B000CF92DF92FF920F931F93CF93DF931F92F1
:1013C000CDB7DEB78C01F62E40E065E579830E944B
:1013D0007A09CF2C7981D72E88E0F82EF601619119
:1013E0006F0140E0C8010E947A09FA94B9F70F90A2
:1013F000DF91CF911F910F91FF90DF90CF900895D3
:1014000040E06CEC0C947A09FC0113861586148676
:1014100027E030E0DF01A20FB31F13961C922115C5
:10142000310519F021503109F5CF08951F93CF935D
:10143000DF93EC01162F60E0812F0E94DF14612FF3
:1014400070E0FB01E255FD4FE491E883FB01E453BA
:10145000FD4FE491F0E0EE0FFF1FE651FD4F859147
:1014600094919A838983CE01DF91CF911F910C943F
:10147000040AAF92BF92CF92DF92EF92FF920F9346
:101480001F93CF93DF931F92CDB7DEB75C01E62E9B
:10149000D72EFC01858581115DC0C5010E94DD0844
:1014A000811105C0F5011386158614866EC040E0D3
:1014B00060EFC5010E947A0901E0F12CC12C11E016
:1014C000C5010E944F09682FC50169830E944F0919
:1014D0006981613019F48130B9F433C02F2D30E0C7
:1014E00068131BC0F5018385181730F4E20FF31F52
:1014F0008381802349F402C0181731F060E019306D
:1015000058F4F501148708C0F501EF0DF11D838132
:10151000802B838361E009C0C12EF501E20FF31F28
:101520008381902F909589238383C5010E941C0994
:101530001F5F000F11F4F39401E0F7E0FF1508F0CE
:10154000BFCF113438F0F501C386C11018C081E057
:10155000858715C0F50113861586148680E0EE2D6B
:10156000FD2D20E030E0D501A20FB31F13969C9112
:1015700091932F5F3F4F28303105A9F706C0F50141
:101580008381882339F381E0EACF0F90DF91CF91F7
:101590001F910F91FF90EF90DF90CF90BF90AF9091
:1015A0000895DC0180E0615038F0ED91E827F0E02B
:1015B000E851FF4F8491F7CF089520918303309134
:1015C000840328173907B9F49091410380914203AD
:1015D000981789F0E0914103F0E0ED5BFC4F8081CA
:1015E0002091410330E02F5F3F4F2F73332720932B
:1015F000410390E008958FEF9FEF089520918303BA
:10160000309184032817390781F490914103809128
:101610004203981751F0E0914103F0E0ED5BFC4F7D
:101620008081992787FD909508958FEF9FEF08950A
:1016300020918303309184032817390771F4809136
:1016400042032091410390E0805C9F4F821B9109EF
:1016500060E470E00E94751F089580E090E00895B6
:1016600020918303309184032817390739F48FB709
:10167000F89410924203109241038FBF0895DC0149
:101680005196ED91FC915297208150968C918095C6
:1016900082238083089520E001972FEF8F3F9207E8
:1016A000D9F70895209183033091840328173907CF
:1016B00089F0FC01238D2E7F238F2FB7F894109291
:1016C00042031092410390938403809383032FBFBE
:1016D00081E0089580E00895EF92FF920F931F93A9
:1016E000CF93DF93EC018B8DEE85FF859D8581FF88
:1016F00004C08081892329F445C08081892309F0B1
:1017000041C08B899C890E944B0B08E010E0EE24BD
:10171000E394F12C8D899E890E944B0BEE85FF8509
:1017200080819D85892311F0FE2803C08E2D809530
:10173000F822EE0C0150110969F78F89988D0E94EB
:101740004B0B8B8D81FDF0948091420320914103DE
:1017500090E001968F73992730E08217930779F014
:10176000E0914203F0E0ED5BFC4FF0828091420398
:1017700090E001968F7399278093420303C08B8D6D
:1017800081608B8FDF91CF911F910F91FF90EF9030
:101790000895611102C00C943F0BDC015196ED914C
:1017A000FC915297208150968C91282B208308958C
:1017B000DF92EF92FF920F931F93CF93DF93EC0191
:1017C000E62E898D9A8D892B39F481E090E09B83F8
:1017D0008A8380E090E049C0DFB6F8946B8D66950F
:1017E0006170CE010E94C90B898D9A8D05960E9469
:1017F0004B0B8B8D08E010E0FF24F39481FF17C0A2
:101800008F2D8E2121F0CE010E943F0B04C061E09C
:10181000CE010E94C90B898D9A8D0E944B0BFF0C43
:101820000150110969F7CE010E943F0B17C08F2D9F
:101830008E2129F061E0CE010E94C90B03C0CE01C8
:101840000E943F0B898D9A8D0E944B0BFF0C01501B
:10185000110969F761E0CE010E94C90BDFBE898DD5
:101860009A8D0E944B0B81E090E0DF91CF911F9108
:101870000F91FF90EF90DF9008951F920F920FB697
:101880000F9211242F933F934F935F936F937F9306
:101890008F939F93AF93BF93EF93FF9380918303B5
:1018A00090918403009711F00E946C0BFF91EF91CF
:1018B000BF91AF919F918F917F916F915F914F9168
:1018C0003F912F910F900FBE0F901F9018951F936F
:1018D000CF93DF93EC01162F61E0812F0E94DF147C
:1018E0006B8D6695617081E06827812F0E941815C5
:1018F000812F90E0FC01E255FD4FE491E88BFC0163
:10190000E453FD4FE491F0E0EE0FFF1FE850FD4F70
:10191000859194919A8B898BDF91CF911F91089536
:101920001F93CF93DF93EC01162F60E0812F0E946D
:10193000DF148B8D81FD04C061E0812F0E9418159A
:101940001C87812F90E0FC01E255FD4FE491ED876B
:10195000FC01E453FD4FE491F0E0EE0FFF1FE65170
:10196000FD4F859194919F878E87DF91CF911F9135
:101970000895FF920F931F93CF93DF93EC01F62E00
:10198000522F1B821A8208EE13E020E030E00C8315
:101990001D832E833F838DEA91E0998388831C8A7F
:1019A0001B8A1E8A1D8A188E1F8A1A8E198E8B8D8D
:1019B0008E7F50FB81F98B8F642FCE010E94670CC4
:1019C0006F2DCE01DF91CF911F910F91FF900C945D
:1019D000900C0F931F93CF93DF93EC011A8E198E07
:1019E000188E1F8A1E8A1D8AA8EEB1E080E090E062
:1019F000FD010591159125913491041715072607CE
:101A0000370709F031C02CE0289FF001299FF00D25
:101A10001124E451FE4F259134913C8B2B8B2CE00B
:101A2000289FF001299FF00D1124E251FE4F2591CE
:101A300034913E8B2D8B2CE0289FF001299FF00DD7
:101A40001124E051FE4F25913491388F2F8B2CE0DB
:101A5000289FF001299FF00D1124EE50FE4F859133
:101A600094919A8F898F08C001961C968D309105AC
:101A700009F0BECF1C8A1B8A8F89988D892B09F4A7
:101A800047C08C8598EF980F943038F092EF980FFC
:101A9000943018F08A518330B8F5809168008160E5
:101AA000809368008C8598EF980F943058F022EF5F
:101AB000280F243038F026EE280F233080F5ABE6CF
:101AC000B0E02FC0ABE6B0E0EBE6F0E02081943070
:101AD00010F49CEF09C08E3071F08F3071F08031BE
:101AE00071F0813171F09AEE980F81E001C0880F9A
:101AF0009A95EAF707C088E005C082E003C084E059
:101B000001C081E0822B8C93898D9A8D0E944B0BB2
:101B1000CE01DF91CF911F910F910C94520BA0E059
:101B2000B0E0233088F2E0E0F0E0D0CFFC01128298
:101B30008FEF8183108213820895FC0183818823B3
:101B400031F0611103C08FEF8183089511820895F0
:101B5000CF93DF93EC016A8381E892E00E949406C0
:101B600041E06A8181E892E00E94AB0691E0811138
:101B700001C090E09B8381E892E00E940506888383
:101B80008B8190E0DF91CF910895CF93DF93EC01AB
:101B90008B818823A9F089818095862388836A8137
:101BA00081E892E00E94AE06688181E892E00E949E
:101BB000550681E892E00E94CB06282F30E002C053
:101BC00020E030E081E090E0232B11F080E090E015
:101BD000DF91CF91089508950895DC01ED91FC9176
:101BE0000284F385E02D41E0099581E090E00895BD
:101BF000FC01138212822DEB31E0318320830895A2
:101C0000DC01ED91FC910084F185E02D6FEF0994EA
:101C1000DC01ED91FC910284F385E02D40E0099414
:101C200061E00E94080E80ED97E00C947A1362E068
:101C30000E94080E80ED97E00C947A13CF93DF9307
:101C4000CDB7DEB728970FB6F894DEBF0FBECDBF75
:101C50001D8220E42E8334E13F8334E538871982E6
:101C60002A8320E12B8320E52C83FC012781421766
:101C700010F04FEF420FFC01308550E0FE01E40F01
:101C8000F51F303121F4243011F4218101C0258168
:101C9000260F2068622F28960FB6F894DEBF0FBE7D
:101CA000CDBFDF91CF910C94080EFC016581262FEA
:101CB000246025836C600C94080ECF93DF93EC01B5
:101CC000423018F08C8188608C834F836887222390
:101CD00029F0413019F48C8184608C8364E670E0D3
:101CE00080E090E00E9452136C8164FD31C0E88175
:101CF000F9810284F385E02D42E063E0CE0109958D
:101D000084E991E10E947A13E881F9810284F385E4
:101D1000E02D42E063E0CE01099584E991E10E9463
:101D20007A13E881F9810284F385E02D42E063E0D3
:101D3000CE01099586E990E00E947A13E881F98145
:101D40000284F385E02D42E062E0CE01099516C0E1
:101D50006062CE010E94080E84E991E10E947A132C
:101D60006C816062CE010E94080E86E990E00E94BC
:101D70007A136C816062CE010E94080E6C816062F1
:101D8000CE010E94080E84E08D83CE010E94550E84
:101D9000CE010E94100E82E08E8366E0CE010E948A
:101DA000080ECE01DF91CF910C94000E21E001C00E
:101DB000220F6A95EAF7DC011C962C931C971A9661
:101DC0005C934E931997ED91FC910084F185E02D81
:101DD00060E00994FC012485222399F08185928595
:101DE000009719F4611105C006C0019721F4611133
:101DF00002C0258701C015866585CF010E960C941B
:101E0000C50D08950F931F93CF93DF93EC018C01C1
:101E1000025F1F4F6B85C8010E94A80D019761F4F6
:101E200061E0C8010E949D0D1C8260E0C8010E9413
:101E3000C50D81E090E002C080E090E0DF91CF919D
:101E40001F910F9108958F92AF92CF92EF920F93BF
:101E5000CF93DF93CDB7DEB7FC0163871486158679
:101E60001286118681E0982F01C0990F4A95EAF7F2
:101E7000928B982F01C0990F2A95EAF7938B982F90
:101E800001C0990F0A95EAF7948B982F01C0990F1A
:101E9000EA94EAF7958B982F01C0990FCA94EAF754
:101EA000968B982F01C0990FAA94EAF7978B01C0DF
:101EB000880F8A94EAF7808FDF91CF910F91EF908E
:101EC000CF90AF908F9008954F925F926F927F92D4
:101ED0008F92AF92CF92EF920F931F93CF93DF9396
:101EE00000D01F92CDB7DEB73C011A894B885C88C1
:101EF0002B834A8369830E94F80D8DEC91E0F301F6
:101F000091838083C3010E960E94960D2B814A8196
:101F10006981C3010E94230FA201612FC3010F90A9
:101F20000F900F90DF91CF911F910F91EF90CF9075
:101F3000AF908F907F906F905F904F900C94D60EE3
:101F4000FF920F931F93CF93DF93EC01F62E8C013A
:101F5000025F1F4F6A896F29C8010E94C50D6A89F7
:101F600060956F21C801DF91CF911F910F91FF9074
:101F70000C94C50D20E030E050E060FF05C0FC018E
:101F8000E20FF31F7589572B66952F5F3F4F243063
:101F9000310599F7413011F4FC014489FC01658554
:101FA000652B642B0C94A00F0F931F93CF93DF939B
:101FB000EC01142F062F0F70423011F440E00AC0DC
:101FC00070E084E0759567958A95E1F7CE010E94EF
:101FD000BA0F412F602FCE01DF91CF911F910F914A
:101FE0000C94BA0F0F931F93CF93DF9300D01F92DF
:101FF000CDB7DEB78C012B834A8369830E94020F21
:102000002B814A816981C8010F900F900F90DF9159
:10201000CF911F910F910C945D0E0895FC018DE0FE
:1020200090E1928B818B768365831482108289E0A4
:10203000818381E0828383830895CF93DF93EB01D3
:1020400067E0CE010E94D10A91E02F81821390E0D7
:10205000892FDF91CF910895EF92FF920F931F93F5
:10206000CF93DF93EC018B01E42E8D819E810E9442
:10207000040AF12CB8018D819E810E94390A8823BF
:1020800059F0FE1006C0B801CE010E941D1081114A
:1020900004C0F394EF1470F780E0DF91CF911F91AB
:1020A0000F91FF90EF900895EF92FF920F931F937F
:1020B000CF93DF9300D0CDB7DEB77C018A01FC015E
:1020C0008581968169837A830E94DD0869817A819E
:1020D000F701858196810E94D80940E06EEBF701F7
:1020E000858196810E947A09F701858196810E94F7
:1020F000BC09F8018083F701858196810E94BC09A3
:10210000F8018183F701858196810E94BC09F8015D
:102110008283F701858196810E94BC09F80183833F
:10212000F701858196810E94BC09F8018483F7013B
:10213000858196810E94BC09F8018583F70185811C
:1021400096810E94BC09F8018683F70185819681FA
:102150000E94BC09F8018783F701858196810E945E
:10216000BC09F8018087F701858196810F900F9057
:10217000DF91CF911F910F91FF90EF900C94DD08AC
:10218000CF93DF93EA010E94541068E0CE010E94D1
:10219000D10A91E02885821390E0892FDF91CF91B9
:1021A0000895EF92FF921F93CF93DF9300D0CDB7A6
:1021B000DEB77C01FC018581968169837A830E9468
:1021C000DD0869817A81F701858196810E94D809AD
:1021D00040E064EBF701858196810E947A09F7015E
:1021E000858196810E944F09182FF701858196817C
:1021F0000E94DD0881E0111180E00F900F90DF91C7
:10220000CF911F91FF90EF900895CF93DF93CDB7BB
:10221000DEB729970FB6F894DEBF0FBECDBFFB0126
:1022200020812031D1F0AE014F5F5F4F0E94C0107E
:10223000882379F08D818F3351F020F48F3149F468
:1022400089E00CC08F3539F08F3739F002C08AE051
:1022500005C080E003C08BE001C08CE029960FB67A
:10226000F894DEBF0FBECDBFDF91CF910895EF92FE
:10227000FF920F931F93CF93DF93CDB7DEB7619794
:102280000FB6F894DEBF0FBECDBF8C01FC01858177
:1022900096810E94040AF8011482FF24F394BE017F
:1022A000665F7F4FF801858196810E94390A8823F5
:1022B000C9F1BE01665F7F4FC8010E941D108823CF
:1022C00071F3F8018081811108C0BE01665F7F4F04
:1022D000C8010E94D110811122C0AE014F5F5F4F33
:1022E000BE01665F7F4FC8010E945410F801E18073
:1022F000BE01665F7F4FC8010E9405118E1518F45C
:10230000F801818106C0BE01665F7F4FC8010E944F
:102310000511F801818384818F5F8483C0CFF80128
:10232000F082DBCF61960FB6F894DEBF0FBECDBF53
:10233000DF91CF911F910F91FF90EF900895CF9370
:10234000DF93CDB7DEB729970FB6F894DEBF0FBE87
:10235000CDBFAE014F5F5F4F0E94541081E0998165
:10236000911101C080E029960FB6F894DEBF0FBE30
:10237000CDBFDF91CF9108958F929F92AF92BF9280
:10238000CF92DF92EF92FF920F931F93CF93DF9341
:10239000EC018A016950633048F4E62FF0E0EE0F5B
:1023A000FF1FE752FE4F8081918102C08EEE92E0C6
:1023B0004C01AA2497FCA094BA2C01151105E1F058
:1023C0008B818823C9F08881811116C00E94231354
:1023D0006B017C01C80CD91CEA1CFB1CB801CE01A6
:1023E0000E949F11811118C00E9423136C157D0556
:1023F0008E059F0588F4F2CFC501B401DF91CF911E
:102400001F910F91FF90EF90DF90CF90BF90AF9012
:102410009F908F900C945213DF91CF911F910F9149
:10242000FF90EF90DF90CF90BF90AF909F908F90F4
:102430000895CF93DF93EC018D819E810E94DD088A
:102440008D819E810E94000A488164E48D819E8175
:102450000E947A098A81882341F040E050E0698136
:10246000CE01DF91CF910C94BC11DF91CF910895F3
:10247000FA01208148E0249F90011124818190E09D
:10248000982F8827990F990F990F282B392BDB014B
:102490008C918031C1F4678170E08681AB01481B6B
:1024A0005109CA019695982F8827979587950E947C
:1024B000751F60517109207F53E0220F331F5A9519
:1024C000E1F7260F371FC9010895EF92FF920F938E
:1024D0001F93CF93DF93CDB7DEB729970FB6F8944C
:1024E000DEBF0FBECDBF8C017B01AE014F5F5F4FE2
:1024F0000E94C010882341F0AE014F5F5F4FB701CB
:10250000C8010E94381202C080E894EE29960FB6E6
:10251000F894DEBF0FBECDBFDF91CF911F910F9119
:10252000FF90EF900895813824EE920774F0BC017B
:10253000882777FD8095982F0E945A1E20E030E072
:1025400040E05CE30E940E1F089560E070E08EEFB3
:1025500092EC08950E9465120C9493120F931F93AE
:10256000CF93DF93CDB7DEB728970FB6F894DEBFD1
:102570000FBECDBF8C01462FBE016F5F7F4F0E9403
:102580002C10882339F0BE016F5F7F4FC8010E9475
:10259000AA1204C060E070E08EEF92EC28960FB6AD
:1025A000F894DEBF0FBECDBFDF91CF911F910F9189
:1025B00008951F920F920FB60F9211242F933F93FD
:1025C0008F939F93AF93BF938091860390918703DE
:1025D000A0918803B09189033091850323E0230FF4
:1025E0002D3720F40196A11DB11D05C026E8230F4B
:1025F0000296A11DB11D20938503809386039093BD
:102600008703A0938803B093890380918A039091F4
:102610008B03A0918C03B0918D030196A11DB11D78
:1026200080938A0390938B03A0938C03B0938D03C4
:10263000BF91AF919F918F913F912F910F900FBEBE
:102640000F901F9018952FB7F894609186037091A2
:10265000870380918803909189032FBF08953FB726
:10266000F89480918A0390918B03A0918C03B09190
:102670008D0326B5A89B05C02F3F19F00196A11D1B
:10268000B11D3FBF6627782F892F9A2F620F711DCA
:10269000811D911D42E0660F771F881F991F4A9583
:1026A000D1F70895CF92DF92EF92FF92CF93DF930D
:1026B0006B017C010E942F13EB01C114D104E104D2
:1026C000F10489F00E94121C0E942F136C1B7D0BD9
:1026D000683E734090F381E0C81AD108E108F10820
:1026E000C851DC4FEACFDF91CF91FF90EF90DF90A0
:1026F000CF900895019739F0880F991F880F991F7F
:1027000002970197F1F70895789484B5826084BDAB
:1027100084B5816084BD85B5826085BD85B58160E5
:1027200085BDEEE6F0E0808181608083E1E8F0E045
:102730001082808182608083808181608083E0E874
:10274000F0E0808181608083E1E9F0E08081826057
:102750008083808181608083E0E9F0E08081816016
:102760008083E1ECF0E080818460808380818260FE
:102770008083808181608083E3ECF0E080818160F0
:102780008083E0ECF0E0808182608083E2ECF0E026
:10279000808181608083EAE7F0E0808184608083CB
:1027A0008081826080838081816080838081806875
:1027B00080830895823108F08251E82FF0E0EC57D1
:1027C000FD4FE49180917B00E3FB222720F930E06C
:1027D00095E0220F331F9A95E1F78F7D822B80932E
:1027E0007B00E7708091060120E4829FC0011124E4
:1027F000E82BE0937C0080917A00806480937A00DB
:1028000080917A0086FDFCCF80917800209179003C
:1028100090E0922B08951F93CF93DF93182FEB0135
:1028200061E00E94DF14209711F460E004C0CF3F04
:10283000D10539F461E0812FDF91CF911F910C9484
:102840001815E12FF0E0E057FD4F449150E0FA01F8
:102850003197EF30F10508F06CC0EA5AFF4F0C9445
:10286000AB1F84B5806884BDC7BD68C084B5806275
:1028700084BDC8BD63C08091800080688093800063
:10288000D0938900C093880059C0809180008062F5
:1028900080938000D0938B00C0938A004FC08091BA
:1028A0008000886080938000D0938D00C0938C005E
:1028B00045C080919000806880939000D0939900EB
:1028C000C09398003BC080919000806280939000FC
:1028D000D0939B00C0939A0031C080919000886093
:1028E00080939000D0939D00C0939C0027C080915E
:1028F000C00080688093C0008091C0008F7B80936F
:10290000C000C093CF001AC08091C0008062809345
:10291000C000C093D00012C08091C2008860809334
:10292000C2008091C2008B7F8093C200C093D2000E
:1029300005C0C038D1050CF07DCF77CFDF91CF91A6
:102940001F91089590E0FC013197EF30F105B0F54B
:10295000EB59FF4F0C94AB1F809180008F7703C021
:10296000809180008F7D8093800008958091800009
:10297000877FF9CF84B58F7702C084B58F7D84BD02
:102980000895809190008F7707C0809190008F7D8F
:1029900003C080919000877F80939000089580917C
:1029A000C0008F7703C08091C0008F7D8093C000EE
:1029B00008958091C200877F8093C2000895CF93CD
:1029C000DF9390E0FC01E255FD4F2491FC01E453BC
:1029D000FD4F8491882349F190E0880F991FFC01F5
:1029E000EA5FFC4FA591B49188509D4FFC01C591C1
:1029F000D4919FB7611108C0F8948C9120958223DF
:102A00008C93888182230AC0623051F4F8948C91AF
:102A1000322F309583238C938881822B888304C046
:102A2000F8948C91822B8C939FBFDF91CF91089566
:102A30000F931F93CF93DF931F92CDB7DEB7282F4D
:102A400030E0F901E057FD4F8491F901E255FD4F67
:102A50001491F901E453FD4F04910023C9F0882338
:102A600021F069830E94A2146981E02FF0E0EE0F4B
:102A7000FF1FE850FD4FA591B4919FB7F8948C913A
:102A8000611103C01095812301C0812B8C939FBFDE
:102A90000F90DF91CF911F910F910895CF93DF9306
:102AA000282F30E0F901E057FD4F8491F901E255FC
:102AB000FD4FD491F901E453FD4FC491CC2391F023
:102AC00081110E94A214EC2FF0E0EE0FFF1FE651DF
:102AD000FD4FA591B4912C912D2381E090E021F43C
:102AE00080E002C080E090E0DF91CF9108950E94E5
:102AF000EC20CF93DF931F92CDB7DEB76983DC0163
:102B0000ED91FC910280F381E02D41E050E0BE01A7
:102B10006F5F7F4F09950F90DF91CF910895CF930D
:102B2000DF93EC018C859D8597FF05C082E00E94B4
:102B30003F199D878C878C859D85DF91CF91089566
:102B400083E00C94941BFC018485958597FD06C059
:102B500082E00E94E71890E00196089582E00E94CA
:102B6000E71890E00895FC018485958597FD05C0E0
:102B70002FEF3FEF35872487089582E00C943F19AB
:102B8000CF93DF93EC0180910E01882331F083E035
:102B90000E9470191816190634F081E090E09B83AA
:102BA0008A8380E090E0DF91CF910895FC0120813D
:102BB0002E5F208342E450E064E173E080E80C94EF
:102BC0000B1AFC0181819081913A59F4813209F00C
:102BD0003CC047E050E067E071E080E00E940B1AE3
:102BE00043C0913291F5803239F467E070E087E0BC
:102BF00091E00E943C1A06C0823209F035C0828101
:102C000080930E018091070190910801A091090124
:102C1000B0910A01803B9440A105B105C1F48091B7
:102C20000E0180FD14C087E797E790930108809319
:102C300000082BE088E190E00FB6F894A895809307
:102C400060000FBE209360000FC080E0089588E10F
:102C50000FB6F89480936000109260000FBEA895A4
:102C6000109201081092000881E0089510929103DB
:102C70001092900388EE93E0A0E0B0E0809392037E
:102C800090939303A0939403B093950383EE91E004
:102C900090938F0380938E038FEF9FEF90939B030E
:102CA00080939A03089508950E9484130E945316F6
:102CB0008EED93E00E94F41B0E94BB05C0E0D0E0C3
:102CC0000E94A9042097E1F30E940000F9CF0C9420
:102CD000C51FCF92DF92EF92FF920F931F93CF9376
:102CE000DF936C017A01EB01E60EF71E00E010E0C5
:102CF000CE15DF0561F06991D601ED91FC9101904F
:102D0000F081E02DC6010995080F191FF1CFC80108
:102D1000DF91CF911F910F91FF90EF90DF90CF90B7
:102D200008956115710581F0DB010D900020E9F730
:102D3000AD0141505109461B570BDC01ED91FC914F
:102D40000280F381E02D099480E090E008950C94D6
:102D50009116DC01ED91FC910190F081E02D099438
:102D60000F931F93CF93DF93EC016DE00E94A916A0
:102D70008C016AE0CE010E94A916800F911FDF919D
:102D8000CF911F910F9108950F931F93CF93DF93CE
:102D9000EC010E9491168C01CE010E94B016800FAA
:102DA000911FDF91CF911F910F9108958F929F9264
:102DB000AF92BF92CF92DF92EF92FF920F931F9349
:102DC000CF93DF93CDB7DEB7A1970FB6F894DEBFF0
:102DD0000FBECDBF7C01C42EE52FCB01D22E19A290
:102DE00021E02D1510F02AE0D22E8E010F5D1F4F2D
:102DF0008D2C912CA12CB12C6C2D7E2FA501940132
:102E00000E94891F8C2DD29E801911240150110916
:102E10008A3014F4805D01C0895CF801808321153B
:102E200031054105510521F0C22EE32FCA01E4CF3F
:102E3000B801C7010E949116A1960FB6F894DEBFA3
:102E40000FBECDBFDF91CF911F910F91FF90EF90FB
:102E5000DF90CF90BF90AF909F908F900895CF92CA
:102E6000DF92EF92FF920F931F93CF93DF93EC01CA
:102E70006A017B012115310579F4E881F98101901E
:102E8000F081E02D642FDF91CF911F910F91FF9082
:102E9000EF90DF90CF9009942A303105E9F477FF65
:102EA0001AC06DE20E94A9168C0144275527BA0169
:102EB0004C195D096E097F092AE0CE010E94D616E1
:102EC000800F911FDF91CF911F910F91FF90EF9095
:102ED000DF90CF9008952AE0B701A601CE01DF91DF
:102EE000CF911F910F91FF90EF90DF90CF900C94B6
:102EF000D6169A01AB01662757FD6095762F0C9484
:102F00002F174F925F926F927F928F929F92AF9204
:102F1000BF92CF92DF92EF92FF920F931F93CF93C6
:102F2000DF93EC016A017B01B22E9A01AB01C7016C
:102F3000B6010E94711F882319F06FEE71E027C05F
:102F400026013701E89477F82FEF3FEF4FE75FE76F
:102F5000C301B2010E94711F81110DC02FEF3FEF1D
:102F60004FE75FE7C301B2010E94BB1D18161CF4B6
:102F700063EF71E00CC02FEF3FEF4FE75FE4C70155
:102F8000B6010E940A1F1816ACF467EF71E0CE017B
:102F9000DF91CF911F910F91FF90EF90DF90CF9035
:102FA000BF90AF909F908F907F906F905F904F9069
:102FB0000C9491162FEF3FEF4FE75FECC701B6017E
:102FC0000E94BB1D87FDE1CF20E030E0A901C701D1
:102FD000B6010E94BB1D87FF0AC06DE2CE010E94B0
:102FE000A9168C01F7FAF094F7F8F09402C000E00B
:102FF00010E0A12C60E070E080E09FE3AB1441F0B2
:1030000020E030E040E251E40E94BF1DA394F6CFDF
:103010009B01AC01C701B6010E94571D6B017C01E9
:103020000E942C1E2B013C010E94581E9B01AC01EA
:10303000C701B6010E94561D6B017C012AE0B30155
:10304000A201CE010E94D616080F191FBB2039F02D
:103050006BEF71E0CE010E949116080F191F7B2CB7
:10306000772041F120E030E040E251E4C701B601B1
:103070000E940E1F6B017C010E94271E4B01AA2497
:1030800097FCA094BA2C2AE030E0B501A401CE014F
:103090000E942F17080F191FC501B4010E945A1E64
:1030A0009B01AC01C701B6010E94561D6B017C015A
:1030B0007A94D6CFC801DF91CF911F910F91FF90E5
:1030C000EF90DF90CF90BF90AF909F908F907F90C8
:1030D0006F905F904F9008950C9481174091E20398
:1030E0005091E3032091E0033091E103421753072D
:1030F000B4F49091E8009570E1F39091E80092FDAE
:1031000019C08093F1008091E2039091E30301964E
:103110008F739927892B19F48EEF8093E8008091A3
:10312000E2039091E30301969093E3038093E2031B
:1031300081E0089580E00895CF92DF92FF920F938F
:103140001F93CF93DF931F92CDB7DEB7082F162FB3
:10315000862F880F8E5F99830E946E1883E00E94ED
:103160006E18F02EC02E9981D92E8C2D8F198117B3
:1031700078F4F60184910E946E18082F80E00E9476
:103180006E188023FFEFCF1ADF0A8111EECF01C046
:1031900081E00F90DF91CF911F910F91FF90DF9011
:1031A000CF900895615030F02091F100FC01208310
:1031B0000196F8CF289884E68093E50308952FB709
:1031C000FC012083F89467706093E9000895CF9321
:1031D000DF931F92CDB7DEB7682FCE0101960E9414
:1031E000DF188091F20099819FBF0F90DF91CF91FE
:1031F0000895FF920F931F93CF93DF9300D0CDB725
:10320000DEB7F62E8A019091E403992311F057FF5F
:1032100003C08FEF9FEF2BC0682FCE0101967A83FA
:103220000E94DF188091F20090E0A8017A81801757
:1032300091070CF4AC01EF2DF72FF40E84E6FE1687
:1032400039F028988093E5039091F1009193F7CF9E
:103250004115510521F08091F200882321F08981E8
:103260008FBFCA0104C08BE68093E800F8CF0F90AF
:103270000F90DF91CF911F910F91FF900895CF9301
:10328000DF931F92CDB7DEB741E050E0BE016F5F24
:103290007F4F0E94F918019719F4898190E002C0CC
:1032A0008FEF9FEF0F90DF91CF910895CF93DF9332
:1032B0001F92CDB7DEB7682FCE0101960E94DF18AE
:1032C0009091E800892F807295FF04C09091F200E0
:1032D00080E4891B99819FBF0F90DF91CF91089562
:1032E0006F927F928F929F92AF92BF92CF92DF9216
:1032F000EF92FF920F931F93CF93DF931F92CDB75F
:10330000DEB7782E7B01C42EB52E8091E40388238E
:1033100069F0042F152F8AEFD82E872D8072982EF2
:103320009AE3A92E872D8074882E11C08FEF9FEF0E
:1033300057C0872D0E945619682E81110CC0DA944F
:10334000A9F361E070E080E090E00E945213011563
:10335000110579F73BC0282F30E0021713070CF452
:10336000602E672DCE0101960E94DF188091E80043
:1033700085FF29C0262D30E0021B130B992039F060
:103380006A948FEF6816B1F01092F100F9CFF7014F
:10339000862D77FE07C0815058F094919093F100EC
:1033A0003196F9CF815020F091919093F100FACFAE
:1033B000E20EF31E8091E80085FF0FC00115110594
:1033C00011F481100AC089818FBFC1CF5D9884E656
:1033D0008093E6038C2D9B2D03C0A092E800F3CFD1
:1033E0000F90DF91CF911F910F91FF90EF90DF90A1
:1033F000CF90BF90AF909F908F907F906F900895E7
:103400001092E9001092E3031092E2039093E1031B
:103410008093E0030895CF92DF92FF920F931F9362
:10342000CF93DF9300D0CDB7DEB7F82E8A016B01C2
:1034300001151105B1F0F601F7FE02C0849101C03B
:10344000808149835A830E946E1801501109FFEF51
:10345000CF1ADF0A49815A818111EACF8FEF9FEF9E
:1034600001C0CA010F900F90DF91CF911F910F9172
:10347000FF90DF90CF9008951F93CF93DF931F921B
:10348000CDB7DEB7162F2091E80022FFFCCF612FC9
:1034900079830E94D2188BEF8093E800812F798185
:1034A000972F0F90DF91CF911F910895CF93DF93C6
:1034B0001F92CDB7DEB71982CE0101960E94D615B4
:1034C000CE0101960E94311C898190E00F90DF911E
:1034D000CF9108951F920F920FB60F921124EF9281
:1034E000FF920F931F932F933F934F935F936F938D
:1034F0007F938F939F93AF93BF93EF93FF93CF935C
:10350000DF93CDB7DEB76297DEBFCDBF1092E90083
:103510008091E80083FFEBC068E0CE010A960E942C
:10352000D21882EF8093E8009A8597FF05C08091BA
:10353000E80080FFFCCF03C08EEF8093E800892F66
:10354000807609F0B9C08B85811105C01092F10019
:103550001092F100C5C0282F2D7F213009F4C0C082
:10356000853049F48091E80080FFFCCF8C8580682D
:103570008093E300B5C0863009F076C02D85E888D9
:10358000F988223071F580E090E02A8B0E94001AC1
:103590000E94561A99E08E010F5F1F4FF801392FD4
:1035A00011923A95E9F799832A892A8391E09E83BB
:1035B00090E898879AEF99872091E2033091E3038E
:1035C000275F3F4F3C832B838D83C7010E94001AE6
:1035D00049E050E0B80180E00E940B1A0E94561AA0
:1035E0007FC0C7012A8B0E94001A2A89223241F427
:1035F00082E290E00E943C1C892B09F071C074C0EB
:10360000213069F488899989089711F42093DF03A0
:103610008091DF03811118C06DE673E01AC023307A
:1036200009F062C08C85882391F0823021F460E13A
:103630008BE893E006C0813009F056C06BE08FE75D
:1036400093E00E949C184AC06BE573E002C06CE9ED
:1036500073E06115710509F447C0FB01449150E026
:1036600080E80E940B1A3CC0873009F43DC08830C6
:1036700021F481E08093F10033C0893089F59370A3
:1036800099F5E7E5F3E081E021E096E38093E90036
:103690002093EB0034913093EC009093ED008F5F1A
:1036A0003196853099F78EE78093EA001092EA0010
:1036B0008C858093E40314C0888999890E94001A3C
:1036C0008E85811105C0CE010A960E94E11506C0C3
:1036D000823051F4CE010A960E94641C882321F0A6
:1036E0008EEF8093E80003C081E28093EB00629646
:1036F0000FB6F894DEBF0FBECDBFDF91CF91FF9123
:10370000EF91BF91AF919F918F917F916F915F9159
:103710004F913F912F911F910F91FF90EF900F903C
:103720000FBE0F901F9018958093E9008091F200D2
:10373000882319F08AE38093E80008951F920F927E
:103740000FB60F9211242F933F934F935F936F9374
:103750007F938F939F93AF93BF93EF93FF9380914A
:10376000E1001092E10083FF0FC01092E90091E0A8
:103770009093EB001092EC0092E39093ED00109286
:10378000E40398E09093F00082FF1DC083E00E9464
:10379000941B8091E603882339F08091E6038150E1
:1037A0008093E603882369F08091E503882359F02C
:1037B0008091E50381508093E503811104C0289A2C
:1037C00002C05D9AF1CFFF91EF91BF91AF919F91B0
:1037D0008F917F916F915F914F913F912F910F90BA
:1037E0000FBE0F901F9018951092E40381E0809314
:1037F000D70080EA8093D80082E189BD09B400FE39
:10380000FDCF61E070E080E090E00E94521380E91B
:103810008093D8008CE08093E2001092E000559AEB
:10382000209A08950895FF920F931F93CF93DF93EB
:10383000EC01F62EE881F9810480F581E02D0995EF
:103840008C01E881F9810680F781E02D6F2DCE0192
:103850000995C8019927DF91CF911F910F91FF9092
:103860000895FC0120812F5F208349E150E060E250
:1038700074E080E80C940B1A45E650E069E374E0CC
:1038800080E80C940B1AEF92FF920F931F93CF9343
:10389000DF931F92CDB7DEB789838B017A0141E0B8
:1038A00050E0BE016F5F7F4F84E00E947019A70156
:1038B000B80184E40E9470190F90DF91CF911F919D
:1038C0000F91FF90EF900895FC0191818081813AE2
:1038D00031F481E0913091F0933089F411C081325C
:1038E00071F49B3021F482818093100105C09A30DD
:1038F00031F4828180930F0181E00895089580E082
:10390000089548E050E082E00C94431CCF93DF938D
:10391000DC01683818F0E8E7E60F25C0E62FF0E094
:1039200067FF11C0E058F10981E090E001C0880F05
:10393000EA95EAF714969C911497982B14969C9309
:103940001497E0E010C0E056FC4FE491EE2309F438
:1039500040C0E7FF08C014968C91149782601496BB
:103960008C931497EF7716968C9116978E1741F1DA
:1039700017968C9117978E1719F118968C911897A6
:103980008E17F1F019968C9119978E17C9F01A9627
:103990008C911A978E17A1F01B968C911B978E17FE
:1039A00079F080E090E0ED01C80FD91F2E81211140
:1039B00002C0EE8305C0019686309105A1F709C0CB
:1039C000BD016C5F7F4FCD010E94811C81E090E0C2
:1039D00008C081E090E013969C938E93129780E04C
:1039E00090E0DF91CF910895683818F0E8E7E60F8E
:1039F00025C0E62FF0E067FF12C0E058F10921E092
:103A000030E001C0220FEA95EAF72095DC01149618
:103A10003C911497322314963C93E0E00FC0E0569B
:103A2000FC4FE491EE2329F1E7FF08C0DC01149676
:103A30002C9114972D7F14962C93EF7720E030E093
:103A4000EE2351F0DC01A20FB31F16964C9116978E
:103A50004E1302C016961C922F5F3F4F2630310541
:103A600079F7BC016C5F7F4F0E94811C81E090E080
:103A7000089580E090E00895FC0116821782108678
:103A80001186128613861482BC016C5F7F4F0C94E2
:103A9000811C1092F3031092EA031092E90381E073
:103AA00092E09093E8038093E70308955058BB2772
:103AB000AA270ED075C166D130F06BD120F031F459
:103AC0009F3F11F41EF45BC10EF4E095E7FB51C17A
:103AD000E92F77D180F3BA17620773078407950738
:103AE00018F071F49EF58FC10EF4E0950B2EBA2FED
:103AF000A02D0B01B90190010C01CA01A0011124F4
:103B0000FF27591B99F0593F50F4503E68F11A169F
:103B1000F040A22F232F342F4427585FF3CF469530
:103B200037952795A795F0405395C9F77EF41F1652
:103B3000BA0B620B730B840BBAF09150A1F0FF0F1C
:103B4000BB1F661F771F881FC2F70EC0BA0F621F08
:103B5000731F841F48F4879577956795B795F795F8
:103B60009E3F08F0B3CF9395880F08F09927EE0F8A
:103B7000979587950895D9D008F481E008950CD0E1
:103B80000FC107D140F0FED030F021F45F3F19F0B3
:103B9000F0C0511139C1F3C014D198F39923C9F37E
:103BA0005523B1F3951B550BBB27AA276217730743
:103BB000840738F09F5F5F4F220F331F441FAA1FF7
:103BC000A9F333D00E2E3AF0E0E830D091505040B7
:103BD000E695001CCAF729D0FE2F27D0660F771F65
:103BE000881FBB1F261737074807AB07B0E809F047
:103BF000BB0B802DBF01FF2793585F4F2AF09E3FDC
:103C0000510568F0B6C000C15F3FECF3983EDCF3AD
:103C1000869577956795B795F7959F5FC9F7880F54
:103C2000911D9695879597F90895E1E0660F771FA6
:103C3000881FBB1F621773078407BA0720F0621B37
:103C4000730B840BBA0BEE1F88F7E095089504D030
:103C50006894B111D9C00895BCD088F09F5790F0F6
:103C6000B92F9927B751A0F0D1F0660F771F881FA1
:103C7000991F1AF0BA95C9F712C0B13081F0C3D0BC
:103C8000B1E00895C0C0672F782F8827B85F39F05A
:103C9000B93FCCF3869577956795B395D9F73EF400
:103CA00090958095709561957F4F8F4F9F4F0895A8
:103CB000E89409C097FB3EF49095809570956195C6
:103CC0007F4F8F4F9F4F9923A9F0F92F96E9BB277C
:103CD0009395F695879577956795B795F111F8CFF8
:103CE000FAF4BB0F11F460FF1BC06F5F7F4F8F4F63
:103CF0009F4F16C0882311F096E911C0772321F059
:103D00009EE8872F762F05C0662371F096E8862FF0
:103D100070E060E02AF09A95660F771F881FDAF747
:103D2000880F9695879597F90895990F0008550F74
:103D3000AA0BE0E8FEEF16161706E807F907C0F031
:103D400012161306E407F50798F0621B730B840B39
:103D5000950B39F40A2661F0232B242B252B21F413
:103D600008950A2609F4A140A6958FEF811D811DB3
:103D7000089597F99F6780E870E060E008959FEFED
:103D800080EC089500240A941616170618060906F2
:103D9000089500240A9412161306140605060895C1
:103DA000092E0394000C11F4882352F0BB0F40F449
:103DB000BF2B11F460FF04C06F5F7F4F8F4F9F4F89
:103DC000089557FD9058440F551F59F05F3F71F00B
:103DD0004795880F97FB991F61F09F3F79F0879572
:103DE0000895121613061406551FF2CF4695F1DFFB
:103DF00008C0161617061806991FF1CF869571058B
:103E0000610508940895E894BB2766277727CB01BE
:103E100097F908958ADF08F48FEF08950BD0C0CF8B
:103E2000B1DF28F0B6DF18F0952309F0A2CFA7CFB5
:103E30001124EACFC6DFA0F3959FD1F3950F50E090
:103E4000551F629FF001729FBB27F00DB11D639F4C
:103E5000AA27F00DB11DAA1F649F6627B00DA11DF2
:103E6000661F829F2227B00DA11D621F739FB00D98
:103E7000A11D621F839FA00D611D221F749F332708
:103E8000A00D611D231F849F600D211D822F762FA1
:103E90006A2F11249F5750408AF0E1F088234AF09E
:103EA000EE0FFF1FBB1F661F771F881F91505040EA
:103EB000A9F79E3F510570F05CCFA6CF5F3FECF3B2
:103EC000983EDCF3869577956795B795F795E795D6
:103ED0009F5FC1F7FE2B880F911D9695879597F9E7
:103EE000089523DF880B990B089597FB072E16F48E
:103EF000009407D077FD09D00E94B11F07FC05D0C0
:103F00003EF4909581959F4F0895709561957F4FF0
:103F10000895A1E21A2EAA1BBB1BFD010DC0AA1F0A
:103F2000BB1FEE1FFF1FA217B307E407F50720F022
:103F3000A21BB30BE40BF50B661F771F881F991F9D
:103F40001A9469F760957095809590959B01AC01E6
:103F5000BD01CF010895EE0FFF1F0590F491E02DF4
:103F60000994AA1BBB1B51E107C0AA1FBB1FA617C0
:103F7000B70710F0A61BB70B881F991F5A95A9F712
:103F800080959095BC01CD010895CF93DF93823049
:103F9000910510F482E090E0E091F603F091F703D0
:103FA00020E030E0A0E0B0E0309739F1408151816D
:103FB00048175907B8F04817590771F4828193815F
:103FC000109729F013969C938E9312972CC0909380
:103FD000F7038093F60327C02115310531F042170E
:103FE000530718F0A901DB0101C0EF019A01BD01DF
:103FF000DF010280F381E02DD7CF21153105F9F0E3
:10400000281B390B2430310580F48A819B8161158E
:10401000710521F0FB019383828304C09093F70321
:104020008093F603FE01329644C0FE01E20FF31FB7
:104030008193919322503109398328833AC020918A
:10404000F4033091F503232B41F4209102013091C8
:1040500003013093F5032093F40320910001309184
:1040600001012115310541F42DB73EB740910401FE
:1040700050910501241B350BE091F403F091F503F9
:10408000E217F307A0F42E1B3F0B2817390778F02F
:10409000AC014E5F5F4F2417350748F04E0F5F1F8E
:1040A0005093F5034093F4038193919302C0E0E0B1
:1040B000F0E0CF01DF91CF910895CF93DF93009788
:1040C00009F487C0FC01329713821282C091F60373
:1040D000D091F703209781F420813181280F391F77
:1040E0008091F4039091F5038217930779F5F0938B
:1040F000F503E093F4036DC0DE0120E030E0AE177D
:10410000BF0750F412964D915C9113979D01411594
:10411000510509F1DA01F3CFB383A28340815181C4
:10412000840F951F8A179B0771F48D919C911197AD
:10413000840F951F02969183808312968D919C9196
:104140001397938382832115310529F4F093F703A4
:10415000E093F6033EC0D9011396FC93EE931297B9
:104160004D915D91A40FB51FEA17FB0779F480818B
:104170009181840F951F0296D90111969C938E937D
:104180008281938113969C938E931297E0E0F0E0E6
:104190008A819B81009719F0FE01EC01F9CFCE01D5
:1041A000029628813981820F931F2091F403309168
:1041B000F5032817390769F4309729F41092F703AB
:1041C0001092F60302C013821282D093F503C093BB
:1041D000F403DF91CF91089581E090E0F8940C947E
:1041E0003C21FC0188279927E89421912032E9F3AA
:1041F000293010F02E30C8F32B3241F02D3239F433
:10420000689404C00E943421820F911D2191205393
:104210002A30C0F31EF4909581959F4F0895FC01BC
:104220008191861721F08823D9F79927089531972E
:10423000CF010895FB0151915523A9F0BF01DC0185
:104240004D9145174111E1F759F4CD01019000203E
:1042500049F04D9140154111C9F3FB014111EFCFD8
:1042600081E090E0019708957AE0979F902D879FD5
:0C427000802D910D11240895F894FFCFCB
:10427C000000F80380000100E100000000000001D4
:10428C00014849474856414C004C4F5756414C0049
:10429C0032203133203100322031322031006C6F2A
:1042AC006F70004C555A3A200044455341435449D1
:1042BC005641444100414952453A2000444553413E
:1042CC004354495641444F0054454D504552415476
:1042DC005552413A200048554D454441443A20003E
:1042EC004C6F6164696E6720646174612000436F78
:1042FC006E656374696E6720746F2072656D6F7480
:10430C006500646576696365000000000055062849
:10431C0006FD0505061806270600000000D80B69E7
:10432C0016180BDD0AFE0A300B00000000ED0D69BB
:10433C00165D0EEB0DEC0D771500000000ED0D6910
:10434C0016F20FD60EEA0ED40F5E00BC00770100F9
:10435C000000007915C015A315B3158F15A0156EA7
:10436C00616E00696E66006F7666002E00000000BC
:0C437C0000131C6916861CF41C3C1D007C
:00000001FF
