:100000000C9452020C947A020C947A020C947A02A8
:100010000C947A020C947A020C947A020C947A0270
:100020000C947A020C94DD070C94ED130C94B91225
:100030000C947A020C947A020C947A020C947A0250
:100040000C947A020C947A020C947A020C947A0240
:100050000C947A020C947A020C947A020C94020C9E
:100060000C947A020C947A020C947A020C947A0220
:100070000C947A020C947A020C947A020C947A0210
:100080000C947A020C947A020C947A020C947A0200
:100090000C947A020C947A020C947A020C947A02F0
:1000A0000C947A020C947A020C947A025A0D5F0D29
:1000B000640D6E0D780DC20DC20DC20D820D8C0D3A
:1000C000960DA00DAD0DC20DB50DE30DE60DD50DD0
:1000D000D90DDF0D070E070E070EEA0DEE0DF20D1E
:1000E000F80DFC0D070E020E005EBCE2613FDD83E1
:1000F000C29C7E20A3FD1F419DC3217FFCA2401E08
:100100005F01E3BD3E6082DC237D9FC1421CFEA0F7
:10011000E1BF5D0380DE3C62BEE0025CDF81633DE7
:100120007C22C09E1D43A1FF4618FAA427799BC5D7
:1001300084DA3866E5BB5907DB856739BAE40658C7
:100140001947A5FB7826C49A653BD987045AB8E6B7
:10015000A7F91B45C6987A24F8A6441A99C7257BA7
:100160003A6486D85B05E7B98CD2306EEDB3510F97
:100170004E10F2AC2F7193CD114FADF3702ECC9287
:10018000D38D6F31B2EC0E50AFF1134DCE90722C77
:100190006D33D18F0C52B0EE326C8ED0530DEFB167
:1001A000F0AE4C1291CF2D73CA947628ABF5174957
:1001B0000856B4EA6937D58B5709EBB536688AD447
:1001C00095CB2977F4AA4816E9B7550B88D6346A37
:1001D0002B7597C94A14F6A8742AC896154BA9F727
:1001E000B6E80A54D7896B3500C20100010011003E
:1001F00011000C0000E100000A002500250021008C
:10020000009600001900390039003600127A00000B
:100210001F004600460044008070000022004D0090
:100220004D004A00004B000036007500750072005A
:10023000403800004A009C009C0099008025000086
:100240007200EC00EC00E900C0120000E900DA01E5
:10025000DA01D70160090000D701B603B603B30382
:10026000B0040000B3036E076E076B07580200006E
:100270006E07DC0EDC0ED80E2C010000DC0EC11D5A
:10028000C11DBE1D070605040100080A0B0C0D095F
:100290000000000200090F0000030401000C000030
:1002A0000000000000000000000000000000040842
:1002B000020110408040102040804080080204016C
:1002C00080402010020110801020404004040404EB
:1002D00004030405020202020403020202020606EB
:1002E00006060606040402020204000000002300C1
:1002F000260029002C002F00000000002500280007
:100300002B002E00310000000000240027002A00EE
:100310002D00300000C18081C112010002020000E6
:100320004041233680000101020001120100020059
:100330000000404123368000010102000141726447
:1003400075696E6F204C4C430041726475696E6F25
:10035000204C656F6E6172646F0004030904080B22
:10036000000202020100090400000102020000056F
:1003700024001001052401010104240206052406BD
:1003800000010705810310004009040100020A0072
:10039000000007050202400000070583024000003C
:1003A00000000000000000002A2B280000000000D0
:1003B000000000000000000000000000000000003D
:1003C0002C9EB4A0A1A2A434A6A7A5AE362D373882
:1003D000271E1F20212223242526B333B62EB7B88B
:1003E0009F8485868788898A8B8C8D8E8F90919249
:1003F000939495969798999A9B9C9D2F3130A3AD95
:10040000350405060708090A0B0C0D0E0F10111212
:10041000131415161718191A1B1C1DAFB1B0B5000F
:10042000090402000103000000092101010001226A
:1004300065000705840340000105010902A10109C7
:1004400001A1008501050919012903150025019560
:1004500003750181029501750581030501093009C4
:100460003109381581257F750895038106C0C005BF
:10047000010906A1018502050719E029E7150025F4
:10048000017501950881029501750881039506752E
:1004900008150025650507190029658100C0760447
:1004A0001F15721611241FBECFEFDAE0DEBFCDBFDD
:1004B00011E0A0E0B1E0E0E9F4E302C005900D92A4
:1004C000AA35B107D9F722E0AAE5B1E001C01D9233
:1004D000A634B207E1F714E0C4EAD4E004C02297DE
:1004E000FE010E94D618CE39D107C9F70E94A10E8D
:1004F0000C94461A0C940000FC0114861386668343
:100500004783208780EC92E19287818708950F933B
:100510001F93CF93DF93EC018EE090E00E94B40E26
:100520008C0168850E94B6051983088383E190E0F9
:100530000E94B40E8C01688179810E9437091B8367
:100540000A83C8010E94600A8CE190E00E94B40E08
:100550008C0120E04F816E810E9459081D830C831D
:1005600049855A85662757FD6095762FC801DF912A
:10057000CF911F910F910C948908CF92DF92EF9247
:10058000FF920F931F93CF93DF93EC017B0160E207
:1005900070E0C7010E94331AFC0111928F01C7015C
:1005A0000E94151A8330910509F48DC00CF04EC0DD
:1005B0008130910509F462C0029709F039C160E207
:1005C00070E0C8010E94331AFC0111927F01C8013A
:1005D0000E94151A182F092F4AE050E066E670E0D5
:1005E0008C819D810E94B40F61E171E08C819D81BD
:1005F0000E94F40E4AE050E0612F702F8C819D81A3
:100600000E94B40F61E171E08C819D810E94F40E23
:10061000C7010E94151A082F4AE050E0682F792F71
:100620008C819D810E94B40F61E171E08C819D817C
:100630000E94F40E61E0812F0E94080E602F812F2E
:100640000E94410E812F0E94770EA6C08530910531
:1006500009F4AFC00CF45FC0069709F0E9C04AE0A6
:1006600050E06AE670E08C819D810E94B40F61E1E8
:1006700071E08C819D810E94F40EE2C0C8010E944D
:10068000151AF82EE92E4AE050E065E670E08C81FC
:100690009D810E94B40F61E171E08C819D810E9477
:1006A000F40E4AE050E06F2D7E2D8C819D810E94DA
:1006B000B40F61E171E08C819D810E94F40E8F2D59
:1006C0000E94770E24C0C8010E94151AF82EE92E48
:1006D0004AE050E067E670E08C819D810E94B40F93
:1006E00061E171E08C819D810E94F40E4AE050E04E
:1006F0006F2D7E2D8C819D810E94B40F61E171E090
:100700008C819D810E94F40E8F2D0E94030D4AE082
:1007100050E0BC0191C060E270E0C8010E94331A51
:10072000FC0111927F01C8010E94151AD82E192FC1
:100730004AE050E068E670E08C819D810E94B40F31
:1007400061E171E08C819D810E94F40E4AE050E0ED
:100750006D2D712F8C819D810E94B40F61E171E03C
:100760008C819D810E94F40EC7010E94151A8C0194
:100770004AE050E0BC018C819D810E94B40F61E190
:1007800071E08C819D810E94F40EB8018D2D0E9434
:10079000340D8D2D0E94030D4AE050E0BC018C8188
:1007A0009D810E94B40F8C819D810E94FD0E870166
:1007B0004BC04AE050E069E670E08C819D810E9468
:1007C000B40F61E171E08C819D810E94F40E8A81F9
:1007D0009B810E94420B60E08A819B810E94D70B23
:1007E000AB01BC0122E030E08C819D810E94BB10F6
:1007F0008C819D810E94FD0E40E0C12CD12CB60160
:100800008A819B810E9455097601C12CD12CF70168
:1008100061917F014AE050E08C819D810E94C90F67
:10082000FFEFCF1ADF0A88E0C816D10481F70CC0A9
:100830004AE050E064E670E08C819D810E94B40F34
:100840008C819D810E94FD0EC801DF91CF911F9187
:100850000F91FF90EF90DF90CF9008950F931F932B
:10086000CF93DF93EC018C01035F1F4F8C819D813F
:10087000DC01ED91FC910480F581E02D09951816BD
:1008800019063CF58B859C8588971CF58C819D818C
:10089000DC01ED91FC910680F781E02D09952B8517
:1008A0003C858A3011F08D3059F4FE01E20FF31FC0
:1008B0001586B801CE010E94BD021C861B86D6CFCC
:1008C000FE01E20FF31F85872F5F3F4F3C872B8789
:1008D000CDCFDF91CF911F910F9108958AE591E0DF
:1008E0000C9487028AE591E00C942E0421E049E003
:1008F00068E08AE591E00C947C02FF920F931F93CD
:10090000CF93DF93FC010081C181D281F89489816A
:10091000F02EF0948F21898378941DE7115029F1EE
:1009200082E090E00E94A30C88818023B9F3F894C0
:100930008A818F218A838981802B8983789480EEB4
:1009400091E00E94A30CF89489818F21898386E429
:1009500090E00E94A30C8881802311E009F010E050
:1009600078948AE991E00E94A30C812FDF91CF91C6
:100970001F910F91FF9008951F93CF93DF93FC0178
:100980001081C181D281912F909560FF12C0F8949F
:100990008A8189238A838981812B89838AE090E0F7
:1009A0000E94A30C8A81812B8A83789487E390E04C
:1009B00011C0F8948A8189238A838981812B898354
:1009C00081E490E00E94A30C8A81812B8A83789431
:1009D00085E090E0DF91CF911F910C94A30C0F93D1
:1009E0001F93CF93DF93FC011081C181D281F894D2
:1009F0008981812B89838A81012F009580238A83B5
:100A000083E090E00E94A30C8981802389838AE09F
:100A100090E00E94A30CC881789485E390E00E9446
:100A2000A30C1C2381E009F480E0DF91CF911F919A
:100A30000F910895CF92DF92EF92FF920F931F9341
:100A4000CF93DF931F92CDB7DEB76C01E62E08E09F
:100A500010E0FF24F39461E09F2D9E2109F460E0F3
:100A6000C60149830E94BC04FF0C01501109498151
:100A70000115110581F7411115C0F894D6011196A1
:100A8000ED91FC91129791818C91809589238183BE
:100A90001196ED91FC91129792818C91809589230A
:100AA000828378940F90DF91CF911F910F91FF90E7
:100AB000EF90DF90CF900895EF92FF920F931F93E6
:100AC000CF93DF938C01C8E0D0E0F12CEE24E394C7
:100AD000C8010E94EF048111FE28EE0C2197C1F796
:100AE0008F2DDF91CF911F910F91FF90EF9008957F
:100AF000CF92DF92FF920F931F93CF93DF931F92BA
:100B0000CDB7DEB78C01F62E40E065E579830E9413
:100B10001A05CF2C7981D72E88E0F82EF601619145
:100B20006F0140E0C8010E941A05FA94B9F70F90CE
:100B3000DF91CF911F910F91FF90DF90CF9008959B
:100B400040E06CEC0C941A05FC01138615861486A3
:100B500027E030E0DF01A20FB31F13961C9221158E
:100B6000310519F021503109F5CF08951F93CF9326
:100B7000DF93EC01162F60E0812F0E94080E612F99
:100B800070E0FB01E255FD4FE491E883FB01E45383
:100B9000FD4FE491F0E0EE0FFF1FE651FD4F859110
:100BA00094919A838983CE01DF91CF911F910C9408
:100BB000A405AF92BF92CF92DF92EF92FF920F9374
:100BC0001F93CF93DF931F92CDB7DEB75C01E62E64
:100BD000D72EFC01858581115DC0C5010E947D0471
:100BE000811105C0F5011386158614866EC040E09C
:100BF00060EFC5010E941A0501E0F12CC12C11E043
:100C0000C5010E94EF04682FC50169830E94EF04AB
:100C10006981613019F48130B9F433C02F2D30E08F
:100C200068131BC0F5018385181730F4E20FF31F1A
:100C30008381802349F402C0181731F060E0193035
:100C400058F4F501148708C0F501EF0DF11D8381FB
:100C5000802B838361E009C0C12EF501E20FF31FF1
:100C60008381902F909589238383C5010E94BC04C2
:100C70001F5F000F11F4F39401E0F7E0FF1508F097
:100C8000BFCF113438F0F501C386C11018C081E020
:100C9000858715C0F50113861586148680E0EE2D34
:100CA000FD2D20E030E0D501A20FB31F13969C91DB
:100CB00091932F5F3F4F28303105A9F706C0F5010A
:100CC0008381882339F381E0EACF0F90DF91CF91C0
:100CD0001F910F91FF90EF90DF90CF90BF90AF905A
:100CE0000895DC0180E0615038F0ED91E827F0E0F4
:100CF000E851FF4F8491F7CF08952091D1013091B1
:100D0000D20128173907B9F490918F018091900191
:100D1000981789F0E0918F01F0E0EF56FE4F808147
:100D200020918F0130E02F5F3F4F2F7333272093A7
:100D30008F0190E008958FEF9FEF08952091D101EA
:100D40003091D2012817390781F490918F01809159
:100D50009001981751F0E0918F01F0E0EF56FE4FAF
:100D60008081992787FD909508958FEF9FEF0895D3
:100D70002091D1013091D2012817390771F4809167
:100D8000900120918F0190E0805C9F4F821B910920
:100D900060E470E00E949E18089580E090E008955D
:100DA0002091D1013091D2012817390739F48FB73A
:100DB000F8941092900110928F018FBF0895DC017A
:100DC0005196ED91FC915297208150968C9180958F
:100DD00082238083089520E001972FEF8F3F9207B1
:100DE000D9F708952091D1013091D2012817390700
:100DF00089F0FC01238D2E7F238F2FB7F89410925A
:100E0000900110928F019093D2018093D1012FBF56
:100E100081E0089580E00895EF92FF920F931F9371
:100E2000CF93DF93EC018B8DEE85FF859D8581FF50
:100E300004C08081892329F445C08081892309F079
:100E400041C08B899C890E94EB0608E010E0EE24EB
:100E5000E394F12C8D899E890E94EB06EE85FF8537
:100E600080819D85892311F0FE2803C08E2D8095F9
:100E7000F822EE0C0150110969F78F89988D0E94B4
:100E8000EB068B8D81FDF0948091900120918F0174
:100E900090E001968F73992730E08217930779F0DD
:100EA000E0919001F0E0EF56FE4FF08280919001CA
:100EB00090E001968F7399278093900103C08B8DEA
:100EC00081608B8FDF91CF911F910F91FF90EF90F9
:100ED0000895611102C00C94DF06DC015196ED917A
:100EE000FC915297208150968C91282B2083089555
:100EF000DF92EF92FF920F931F93CF93DF93EC015A
:100F0000E62E898D9A8D892B39F481E090E09B83C0
:100F10008A8380E090E049C0DFB6F8946B8D6695D7
:100F20006170CE010E946907898D9A8D05960E9495
:100F3000EB068B8D08E010E0FF24F39481FF17C0CF
:100F40008F2D8E2121F0CE010E94DF0604C061E0CA
:100F5000CE010E946907898D9A8D0E94EB06FF0CD5
:100F60000150110969F7CE010E94DF0617C08F2DCD
:100F70008E2129F061E0CE010E94690703C0CE01F5
:100F80000E94DF06898D9A8D0E94EB06FF0C0150AE
:100F9000110969F761E0CE010E946907DFBE898D02
:100FA0009A8D0E94EB0681E090E0DF91CF911F9136
:100FB0000F91FF90EF90DF9008951F920F920FB660
:100FC0000F9211242F933F934F935F936F937F93CF
:100FD0008F939F93AF93BF93EF93FF938091D10132
:100FE0009091D201009711F00E940C07FF91EF91B0
:100FF000BF91AF919F918F917F916F915F914F9131
:101000003F912F910F900FBE0F901F9018951F9337
:10101000CF93DF93EC01162F61E0812F0E94080E21
:101020006B8D6695617081E06827812F0E94410E6B
:10103000812F90E0FC01E255FD4FE491E88BFC012B
:10104000E453FD4FE491F0E0EE0FFF1FE850FD4F39
:10105000859194919A8B898BDF91CF911F910895FF
:101060001F93CF93DF93EC01162F60E0812F0E9436
:10107000080E8B8D81FD04C061E0812F0E94410E1E
:101080001C87812F90E0FC01E255FD4FE491ED8734
:10109000FC01E453FD4FE491F0E0EE0FFF1FE65139
:1010A000FD4F859194919F878E87DF91CF911F91FE
:1010B0000895FF920F931F93CF93DF93EC01F62EC9
:1010C000522F1B821A8208EE13E020E030E00C83DE
:1010D0001D832E833F838BE191E0998388831C8A53
:1010E0001B8A1E8A1D8A188E1F8A1A8E198E8B8D56
:1010F0008E7F50FB81F98B8F642FCE010E940708F1
:101100006F2DCE01DF91CF911F910F91FF900C9425
:1011100030080F931F93CF93DF93EC011A8E198E33
:10112000188E1F8A1E8A1D8AA8EEB1E080E090E02A
:10113000FD01059115912591349104171507260796
:10114000370709F031C02CE0289FF001299FF00DEE
:101150001124E451FE4F259134913C8B2B8B2CE0D4
:10116000289FF001299FF00D1124E251FE4F259197
:1011700034913E8B2D8B2CE0289FF001299FF00DA0
:101180001124E051FE4F25913491388F2F8B2CE0A4
:10119000289FF001299FF00D1124EE50FE4F8591FC
:1011A00094919A8F898F08C001961C968D30910575
:1011B00009F0BECF1C8A1B8A8F89988D892B09F470
:1011C00047C08C8598EF980F943038F092EF980FC5
:1011D000943018F08A518330B8F5809168008160AE
:1011E000809368008C8598EF980F943058F022EF28
:1011F000280F243038F026EE280F233080F5ABE698
:10120000B0E02FC0ABE6B0E0EBE6F0E02081943038
:1012100010F49CEF09C08E3071F08F3071F0803186
:1012200071F0813171F09AEE980F81E001C0880F62
:101230009A95EAF707C088E005C082E003C084E021
:1012400001C081E0822B8C93898D9A8D0E94EB06E0
:10125000CE01DF91CF911F910F910C94F206A0E087
:10126000B0E0233088F2E0E0F0E0D0CF0895FC0158
:1012700086E399E0928B818B76836583148210825A
:1012800089E0818381E0828383830895CF93DF9314
:10129000EB0167E0CE010E94710691E02F8182137D
:1012A00090E0892FDF91CF910895EF92FF920F93F5
:1012B0001F93CF93DF93EC018B01E42E8D819E81F0
:1012C0000E94A405F12CB8018D819E810E94D90550
:1012D000882359F0FE1006C0B801CE010E944609CD
:1012E000811104C0F394EF1470F780E0DF91CF9187
:1012F0001F910F91FF90EF900895EF92FF920F933F
:101300001F93CF93DF9300D0CDB7DEB77C018A0166
:10131000FC018581968169837A830E947D046981BD
:101320007A81F701858196810E94780540E06EEB15
:10133000F701858196810E941A05F70185819681C2
:101340000E945C05F8018083F701858196810E94E7
:101350005C05F8018183F701858196810E945C0517
:10136000F8018283F701858196810E945C05F8016E
:101370008383F701858196810E945C05F80184834F
:10138000F701858196810E945C05F8018583F7014C
:10139000858196810E945C05F8018683F70185812D
:1013A00096810E945C05F8018783F701858196810B
:1013B0000E945C05F8018087F701858196810F9076
:1013C0000F90DF91CF911F910F91FF90EF900C94B0
:1013D0007D04CF93DF93EA010E947D0968E0CE018E
:1013E0000E94710691E02885821390E0892FDF9199
:1013F000CF910895EF92FF921F93CF93DF9300D088
:10140000CDB7DEB77C01FC018581968169837A8343
:101410000E947D0469817A81F701858196810E940D
:10142000780540E064EBF701858196810E941A05FA
:10143000F701858196810E94EF04182FF7018581BD
:1014400096810E947D0481E0111180E00F900F9041
:10145000DF91CF911F91FF90EF900895CF93DF938D
:10146000CDB7DEB729970FB6F894DEBF0FBECDBF5C
:10147000FB0120812031D1F0AE014F5F5F4F0E9410
:10148000E909882379F08D818F3351F020F48F3171
:1014900049F489E00CC08F3539F08F3739F002C03C
:1014A0008AE005C080E003C08BE001C08CE0299693
:1014B0000FB6F894DEBF0FBECDBFDF91CF91089578
:1014C000EF92FF920F931F93CF93DF93CDB7DEB7C9
:1014D00061970FB6F894DEBF0FBECDBF8C01FC0143
:1014E000858196810E94A405F8011482FF24F3945B
:1014F000BE01665F7F4FF801858196810E94D90504
:101500008823C9F1BE01665F7F4FC8010E9446096A
:10151000882371F3F8018081811108C0BE01665FE4
:101520007F4FC8010E94FA09811122C0AE014F5FAE
:101530005F4FBE01665F7F4FC8010E947D09F801C1
:10154000E180BE01665F7F4FC8010E942E0A8E15A2
:1015500018F4F801818106C0BE01665F7F4FC801A3
:101560000E942E0AF801818384818F5F8483C0CF1B
:10157000F801F082DBCF61960FB6F894DEBF0FBEA4
:10158000CDBFDF91CF911F910F91FF90EF90089504
:10159000CF93DF93CDB7DEB729970FB6F894DEBFB0
:1015A0000FBECDBFAE014F5F5F4F0E947D0981E04E
:1015B0009981911101C080E029960FB6F894DEBFA1
:1015C0000FBECDBFDF91CF9108958F929F92AF92C2
:1015D000BF92CF92DF92EF92FF920F931F93CF9320
:1015E000DF93EC018A016950633048F4E62FF0E0A4
:1015F000EE0FFF1FE95DFE4F8081918102C08EEEEC
:1016000092E04C01AA2497FCA094BA2C0115110574
:10161000E1F08B818823C9F08881811116C00E9476
:101620004C0C6B017C01C80CD91CEA1CFB1CB801DA
:10163000CE010E94C80A811118C00E944C0C6C1582
:101640007D058E059F0588F4F2CFC501B401DF91B9
:10165000CF911F910F91FF90EF90DF90CF90BF90AF
:10166000AF909F908F900C947B0CDF91CF911F9146
:101670000F91FF90EF90DF90CF90BF90AF909F9031
:101680008F900895CF93DF93EC018D819E810E940E
:101690007D048D819E810E94A005488164E48D8136
:1016A0009E810E941A058A81882341F040E050E023
:1016B0006981CE01DF91CF910C94E50ADF91CF9142
:1016C0000895FA01208148E0249F9001112481812E
:1016D00090E0982F8827990F990F990F282B392B75
:1016E000DB018C918031C1F4678170E08681AB01B0
:1016F000481B5109CA019695982F88279795879579
:101700000E949E1860517109207F53E0220F331F01
:101710005A95E1F7260F371FC9010895EF92FF92FE
:101720000F931F93CF93DF93CDB7DEB729970FB6F3
:10173000F894DEBF0FBECDBF8C017B01AE014F5FC1
:101740005F4F0E94E909882341F0AE014F5F5F4F70
:10175000B701C8010E94610B02C080E894EE29968F
:101760000FB6F894DEBF0FBECDBFDF91CF911F91B2
:101770000F91FF90EF900895813824EE920774F056
:10178000BC01882777FD8095982F0E94831720E061
:1017900030E040E05CE30E943718089560E070E0BC
:1017A0008EEF92EC08950E948E0B0C94BC0B0F935D
:1017B0001F93CF93DF93CDB7DEB728970FB6F8947A
:1017C000DEBF0FBECDBF8C01462FBE016F5F7F4FC6
:1017D0000E945509882339F0BE016F5F7F4FC80111
:1017E0000E94D30B04C060E070E08EEF92EC28966C
:1017F0000FB6F894DEBF0FBECDBFDF91CF911F9122
:101800000F9108951F920F920FB60F9211242F93EC
:101810003F938F939F93AF93BF938091D401909107
:10182000D501A091D601B091D7013091D30123E029
:10183000230F2D3720F40196A11DB11D05C026E808
:10184000230F0296A11DB11D2093D3018093D401D3
:101850009093D501A093D601B093D7018091D80180
:101860009091D901A091DA01B091DB010196A11DFF
:10187000B11D8093D8019093D901A093DA01B09360
:10188000DB01BF91AF919F918F913F912F910F906D
:101890000FBE0F901F9018952FB7F8946091D40148
:1018A0007091D5018091D6019091D7012FBF0895F5
:1018B0003FB7F8948091D8019091D901A091DA01B5
:1018C000B091DB0126B5A89B05C02F3F19F001960A
:1018D000A11DB11D3FBF6627782F892F9A2F620F58
:1018E000711D811D911D42E0660F771F881F991F92
:1018F0004A95D1F70895CF92DF92EF92FF92CF935E
:10190000DF936B017C010E94580CEB01C114D104E0
:10191000E104F10489F00E9461140E94580C6C1BD0
:101920007D0B683E734090F381E0C81AD108E1084E
:10193000F108C851DC4FEACFDF91CF91FF90EF90D3
:10194000DF90CF900895019739F0880F991F880F85
:10195000991F02970197F1F70895789484B58260F2
:1019600084BD84B5816084BD85B5826085BD85B543
:10197000816085BDEEE6F0E0808181608083E1E8F2
:10198000F0E010828081826080838081816080832A
:10199000E0E8F0E0808181608083E1E9F0E080812F
:1019A00082608083808181608083E0E9F0E08081D3
:1019B00081608083E1ECF0E08081846080838081BD
:1019C00082608083808181608083E3ECF0E08081AD
:1019D00081608083E0ECF0E0808182608083E2ECD3
:1019E000F0E0808181608083EAE7F0E080818460BC
:1019F0008083808182608083808181608083808118
:101A0000806880830895823108F08251E82FF0E0E9
:101A1000EC57FD4FE49180917B00E3FB222720F9F6
:101A200030E095E0220F331F9A95E1F78F7D822BEE
:101A300080937B00E7708091060120E4829FC001C3
:101A40001124E82BE0937C0080917A0080648093DD
:101A50007A0080917A0086FDFCCF809178002091F9
:101A6000790090E0922B08951F93CF93DF93182F66
:101A7000EB0161E00E94080E209711F460E004C0C1
:101A8000CF3FD10539F461E0812FDF91CF911F91D4
:101A90000C94410EE12FF0E0E057FD4F449150E0EF
:101AA000FA013197EF30F10508F06CC0EA5AFF4FA8
:101AB0000C94D41884B5806884BDC7BD68C084B553
:101AC000806284BDC8BD63C08091800080688093BF
:101AD0008000D0938900C093880059C08091800015
:101AE000806280938000D0938B00C0938A004FC0A7
:101AF00080918000886080938000D0938D00C09397
:101B00008C0045C080919000806880939000D093B5
:101B10009900C09398003BC08091900080628093B0
:101B20009000D0939B00C0939A0031C080919000A8
:101B3000886080939000D0939D00C0939C0027C044
:101B40008091C00080688093C0008091C0008F7B2E
:101B50008093C000C093CF001AC08091C000806203
:101B60008093C000C093D00012C08091C2008860F2
:101B70008093C2008091C2008B7F8093C200C0938B
:101B8000D20005C0C038D1050CF07DCF77CFDF91F2
:101B9000CF911F91089590E0FC013197EF30F1054E
:101BA000B0F5EB59FF4F0C94D418809180008F77DB
:101BB00003C0809180008F7D809380000895809184
:101BC0008000877FF9CF84B58F7702C084B58F7D81
:101BD00084BD0895809190008F7707C08091900018
:101BE0008F7D03C080919000877F8093900008953F
:101BF0008091C0008F7703C08091C0008F7D80935B
:101C0000C00008958091C200877F8093C20008952C
:101C1000CF93DF9390E0FC01E255FD4F2491FC014E
:101C2000E453FD4F8491882349F190E0880F991F78
:101C3000FC01EA5FFC4FA591B49188509D4FFC01D7
:101C4000C591D4919FB7611108C0F8948C912095EB
:101C500082238C93888182230AC0623051F4F894E5
:101C60008C91322F309583238C938881822B8883AB
:101C700004C0F8948C91822B8C939FBFDF91CF91FD
:101C800008950F931F93CF93DF931F92CDB7DEB7C5
:101C9000282F30E0F901E057FD4F8491F901E2551A
:101CA000FD4F1491F901E453FD4F04910023C9F055
:101CB000882321F069830E94CB0D6981E02FF0E039
:101CC000EE0FFF1FE850FD4FA591B4919FB7F89418
:101CD0008C91611103C01095812301C0812B8C93DD
:101CE0009FBF0F90DF91CF911F910F910895CF93D8
:101CF000DF93282F30E0F901E057FD4F8491F9017F
:101D0000E255FD4FD491F901E453FD4FC491CC232A
:101D100091F081110E94CB0DEC2FF0E0EE0FFF1F30
:101D2000E651FD4FA591B4912C912D2381E090E0D7
:101D300021F480E002C080E090E0DF91CF9108952F
:101D400008950E94AD0C0E94A00E8CED91E00E94BF
:101D500043140E946E04C0E0D0E00E9472042097F9
:101D6000E1F30E940000F9CF0C94EE18CF92DF92BD
:101D7000EF92FF920F931F93CF93DF936C017A0141
:101D8000EB01E60EF71E00E010E0CE15DF0561F076
:101D90006991D601ED91FC910190F081E02DC60191
:101DA0000995080F191FF1CFC801DF91CF911F913D
:101DB0000F91FF90EF90DF90CF900895611571051E
:101DC00081F0DB010D900020E9F7AD014150510990
:101DD000461B570BDC01ED91FC910280F381E02D55
:101DE000099480E090E008950C94DE0EDC01ED9102
:101DF000FC910190F081E02D09940F931F93CF93F4
:101E0000DF93EC016DE00E94F60E8C016AE0CE01DA
:101E10000E94F60E800F911FDF91CF911F910F91BD
:101E200008958F929F92AF92BF92CF92DF92EF92DE
:101E3000FF920F931F93CF93DF93CDB7DEB7A19798
:101E40000FB6F894DEBF0FBECDBF7C01C42EE52FC8
:101E5000CB01D22E19A221E02D1510F02AE0D22EAE
:101E60008E010F5D1F4F8D2C912CA12CB12C6C2D50
:101E70007E2FA50194010E94B2188C2DD29E80194C
:101E80001124015011098A3014F4805D01C0895C6D
:101E9000F8018083211531054105510521F0C22E3D
:101EA000E32FCA01E4CFB801C7010E94DE0EA1965C
:101EB0000FB6F894DEBF0FBECDBFDF91CF911F915B
:101EC0000F91FF90EF90DF90CF90BF90AF909F90D9
:101ED0008F900895CF92DF92EF92FF920F931F930E
:101EE000CF93DF93EC016A017B012115310579F471
:101EF000E881F9810190F081E02D642FDF91CF918D
:101F00001F910F91FF90EF90DF90CF9009942A30AE
:101F10003105E9F477FF1AC06DE20E94F60E8C01DC
:101F200044275527BA014C195D096E097F092AE03B
:101F3000CE010E94110F800F911FDF91CF911F9151
:101F40000F91FF90EF90DF90CF9008952AE0B701B6
:101F5000A601CE01DF91CF911F910F91FF90EF90DD
:101F6000DF90CF900C94110F9A01AB01662757FDBB
:101F70006095762F0C946A0F2115310541F4DC0130
:101F8000ED91FC910190F081E02D642F09940C9467
:101F9000110F9A01462F50E060E070E00C94BC0FE6
:101FA0004F925F926F927F928F929F92AF92BF9269
:101FB000CF92DF92EF92FF920F931F93CF93DF9315
:101FC000EC016A017B01B22E9A01AB01C701B60197
:101FD0000E949A18882319F06DE271E027C026014B
:101FE0003701E89477F82FEF3FEF4FE75FE7C30142
:101FF000B2010E949A1881110DC02FEF3FEF4FE7F9
:102000005FE7C301B2010E94E41618161CF461E3F5
:1020100071E00CC02FEF3FEF4FE75FE4C701B6015F
:102020000E9433181816ACF465E371E0CE01DF911D
:10203000CF911F910F91FF90EF90DF90CF90BF90C5
:10204000AF909F908F907F906F905F904F900C9487
:10205000DE0E2FEF3FEF4FE75FECC701B6010E94A6
:10206000E41687FDE1CF20E030E0A901C701B60109
:102070000E94E41687FF0AC06DE2CE010E94F60EB0
:102080008C01F7FAF094F7F8F09402C000E010E049
:10209000A12C60E070E080E09FE3AB1441F020E011
:1020A00030E040E251E40E94E816A394F6CF9B0191
:1020B000AC01C701B6010E9480166B017C010E9431
:1020C00055172B013C010E9481179B01AC01C701F0
:1020D000B6010E947F166B017C012AE0B301A201C8
:1020E000CE010E94110F080F191FBB2039F069E3C0
:1020F00071E0CE010E94DE0E080F191F7B2C7720A5
:1021000041F120E030E040E251E4C701B6010E9415
:1021100037186B017C010E9450174B01AA2497FCD1
:10212000A094BA2C2AE030E0B501A401CE010E94AF
:102130006A0F080F191FC501B4010E9483179B0184
:10214000AC01C701B6010E947F166B017C017A9435
:10215000D6CFC801DF91CF911F910F91FF90EF90E3
:10216000DF90CF90BF90AF909F908F907F906F90B7
:102170005F904F9008950C94D00F4091E0015091E2
:10218000E1012091DE013091DF0142175307B4F4E1
:102190009091E8009570E1F39091E80092FD19C0EC
:1021A0008093F1008091E0019091E10101968F739D
:1021B0009927892B19F48EEF8093E8008091E00134
:1021C0009091E10101969093E1018093E00181E01B
:1021D000089580E00895CF92DF92FF920F931F93AE
:1021E000CF93DF931F92CDB7DEB7082F162F862F20
:1021F000880F8E5F99830E94BD1083E00E94BD10FE
:10220000F02EC02E9981D92E8C2D8F19811778F43C
:10221000F60184910E94BD10082F80E00E94BD103D
:102220008023FFEFCF1ADF0A8111EECF01C081E0DA
:102230000F90DF91CF911F910F91FF90DF90CF9082
:102240000895615030F02091F100FC012083019647
:10225000F8CF289884E68093E30108952FB7FC0116
:102260002083F89467706093E9000895CF93DF931B
:102270001F92CDB7DEB7682FCE0101960E942E11B6
:102280008091F20099819FBF0F90DF91CF910895C7
:10229000FF920F931F93CF93DF9300D0CDB7DEB79C
:1022A000F62E8A019091E201992311F057FF03C0A5
:1022B0008FEF9FEF2BC0682FCE0101967A830E948B
:1022C0002E118091F20090E0A8017A818017910789
:1022D0000CF4AC01EF2DF72FF40E84E6FE1639F066
:1022E00028988093E3019091F1009193F7CF4115E5
:1022F000510521F08091F200882321F089818FBF60
:10230000CA0104C08BE68093E800F8CF0F900F90CD
:10231000DF91CF911F910F91FF900895CF93DF939D
:102320001F92CDB7DEB741E050E0BE016F5F7F4F37
:102330000E944811019719F4898190E002C08FEF43
:102340009FEF0F90DF91CF910895CF93DF931F926E
:10235000CDB7DEB7682FCE0101960E942E11909165
:10236000E800892F807295FF04C09091F20080E40C
:10237000891B99819FBF0F90DF91CF9108956F9234
:102380007F928F929F92AF92BF92CF92DF92EF9205
:10239000FF920F931F93CF93DF931F92CDB7DEB7BA
:1023A000782E7B01C42EB52E8091E201882369F03E
:1023B000042F152F8AEFD82E872D8072982E9AE33E
:1023C000A92E872D8074882E11C08FEF9FEF57C0E4
:1023D000872D0E94A511682E81110CC0DA94A9F3F3
:1023E00061E070E080E090E00E947B0C0115110537
:1023F00079F73BC0282F30E0021713070CF4602E4A
:10240000672DCE0101960E942E118091E80085FF74
:1024100029C0262D30E0021B130B992039F06A9455
:102420008FEF6816B1F01092F100F9CFF701862D09
:1024300077FE07C0815058F094919093F100319647
:10244000F9CF815020F091919093F100FACFE20EF4
:10245000F31E8091E80085FF0FC00115110511F4EE
:1024600081100AC089818FBFC1CF5D9884E68093B7
:10247000E4018C2D9B2D03C0A092E800F3CF0F90B8
:10248000DF91CF911F910F91FF90EF90DF90CF9050
:10249000BF90AF909F908F907F906F900895109213
:1024A000E9001092E1011092E0019093DF01809326
:1024B000DE010895CF92DF92FF920F931F93CF9387
:1024C000DF9300D0CDB7DEB7F82E8A016B0101157E
:1024D0001105B1F0F601F7FE02C0849101C08081C0
:1024E00049835A830E94BD1001501109FFEFCF1A92
:1024F000DF0A49815A818111EACF8FEF9FEF01C036
:10250000CA010F900F90DF91CF911F910F91FF9013
:10251000DF90CF9008951F93CF93DF931F92CDB795
:10252000DEB7162F2091E80022FFFCCF612F7983C0
:102530000E9421118BEF8093E800812F7981972FE2
:102540000F90DF91CF911F910895CF93DF931F924A
:10255000CDB7DEB71982CE0101960E94BF14CE011D
:1025600001960E945A15898190E00F90DF91CF91DA
:1025700008951F920F920FB60F921124EF92FF92BF
:102580000F931F932F933F934F935F936F937F937B
:102590008F939F93AF93BF93EF93FF93CF93DF936B
:1025A000CDB7DEB76297DEBFCDBF1092E900809154
:1025B000E80083FFEBC068E0CE010A960E9421117B
:1025C00082EF8093E8009A8597FF05C08091E8002C
:1025D00080FFFCCF03C08EEF8093E800892F8076C8
:1025E00009F0B9C08B85811105C01092F1001092DD
:1025F000F100C5C0282F2D7F213009F4C0C08530DF
:1026000049F48091E80080FFFCCF8C85806880933E
:10261000E300B5C0863009F076C02D85E888F988DA
:10262000223071F580E090E02A8B0E944F120E94C8
:10263000A51299E08E010F5F1F4FF801392F1192FB
:102640003A95E9F799832A892A8391E09E8390E855
:1026500098879AEF99872091E0013091E101275FF7
:102660003F4F3C832B838D83C7010E944F1249E06B
:1026700050E0B80180E00E945A120E94A5127FC06B
:10268000C7012A8B0E944F122A89223241F482E22A
:1026900090E00E946515892B09F071C074C021304B
:1026A00069F488899989089711F42093DD01809154
:1026B000DD01811118C06BE273E01AC0233009F00C
:1026C00062C08C85882391F0823021F460E189E436
:1026D00093E006C0813009F056C06BE08DE393E0D3
:1026E0000E94EB104AC069E173E002C06AE573E042
:1026F0006115710509F447C0FB01449150E080E881
:102700000E945A123CC0873009F43DC0883021F441
:1027100081E08093F10033C0893089F5937099F599
:10272000E5E1F3E081E021E096E38093E900209386
:10273000EB0034913093EC009093ED008F5F319675
:10274000853099F78EE78093EA001092EA008C8535
:102750008093E20114C0888999890E944F128E8566
:10276000811105C0CE010A960E94CA1406C08230AB
:1027700051F4CE010A960E948D15882321F08EEF28
:102780008093E80003C081E28093EB0062960FB66D
:10279000F894DEBF0FBECDBFDF91CF91FF91EF91D7
:1027A000BF91AF919F918F917F916F915F914F9169
:1027B0003F912F911F910F91FF90EF900F900FBEBF
:1027C0000F901F9018958093E9008091F200882364
:1027D00019F08AE38093E80008951F920F920FB6D4
:1027E0000F9211242F933F934F935F936F937F9397
:1027F0008F939F93AF93BF93EF93FF938091E100EB
:102800001092E10083FF0FC01092E90091E09093D5
:10281000EB001092EC0092E39093ED001092E20135
:1028200098E09093F00082FF1DC083E00E94E313C4
:102830008091E401882339F08091E40181508093F4
:10284000E401882369F08091E301882359F08091A5
:10285000E30181508093E301811104C0289A02C0F2
:102860005D9AF1CFFF91EF91BF91AF919F918F91C1
:102870007F916F915F914F913F912F910F900FBE7C
:102880000F901F9018951092E20181E08093D7007D
:1028900080EA8093D80082E189BD09B400FEFDCFB3
:1028A00061E070E080E090E00E947B0C80E9809322
:1028B000D8008CE08093E2001092E000559A209AB4
:1028C00008950895CF93DF931F92CDB7DEB7698344
:1028D000DC01ED91FC910280F381E02D41E050E0BC
:1028E000BE016F5F7F4F09950F90DF91CF910895E3
:1028F000CF93DF93EC018C859D8597FF05C082E027
:102900000E948E119D878C878C859D85DF91CF914C
:10291000089583E00C94E313FC018485958597FD6D
:1029200006C082E00E94361190E00196089582E090
:102930000E94361190E00895FC018485958597FDED
:1029400005C02FEF3FEF35872487089582E00C9470
:102950008E11CF93DF93EC0180910E01882331F02B
:1029600083E00E94BF111816190634F081E090E050
:102970009B838A8380E090E0DF91CF910895FC01F2
:1029800020812E5F208342E450E06EE573E080E812
:102990000C945A12FC0181819081913A59F4813250
:1029A00009F03CC047E050E067E071E080E00E9441
:1029B0005A1243C0913291F5803239F467E070E0E9
:1029C00087E091E00E948B1206C0823209F035C088
:1029D000828180930E018091070190910801A0915E
:1029E0000901B0910A01803B9440A105B105C1F4F1
:1029F00080910E0180FD14C087E797E7909301084E
:102A0000809300082BE088E190E00FB6F894A89539
:102A1000809360000FBE209360000FC080E0089597
:102A200088E10FB6F89480936000109260000FBEAA
:102A3000A895109201081092000881E00895109264
:102A4000E8011092E70188EE93E0A0E0B0E0809307
:102A5000E9019093EA01A093EB01B093EC018FE3BD
:102A600091E09093E6018093E5018FEF9FEF9093C3
:102A7000F2018093F1010895FF920F931F93CF937A
:102A8000DF93EC01F62EE881F9810480F581E02DD9
:102A900009958C01E881F9810680F781E02D6F2D81
:102AA000CE010995C8019927DF91CF911F910F9110
:102AB000FF900895FC0120812F5F208349E150E0C1
:102AC00060E274E080E80C945A1245E650E069E355
:102AD00074E080E80C945A12EF92FF920F931F93C8
:102AE000CF93DF931F92CDB7DEB789838B017A0135
:102AF00041E050E0BE016F5F7F4F84E00E94BF1154
:102B0000A701B80184E40E94BF110F90DF91CF911B
:102B10001F910F91FF90EF900895FC0191818081AA
:102B2000813A31F481E0913091F0933089F411C011
:102B3000813271F49B3021F482818093100105C0B1
:102B40009A3031F4828180930F0181E008950895D5
:102B500080E0089548E050E082E00C946C15CF933B
:102B6000DF93DC01683818F0E8E7E60F25C0E62FB0
:102B7000F0E067FF11C0E058F10981E090E001C08A
:102B8000880FEA95EAF714969C911497982B14965F
:102B90009C931497E0E010C0E056FC4FE491EE23C4
:102BA00009F440C0E7FF08C014968C911497826026
:102BB00014968C931497EF7716968C9116978E1720
:102BC00041F117968C9117978E1719F118968C91E1
:102BD00018978E17F1F019968C9119978E17C9F0E6
:102BE0001A968C911A978E17A1F01B968C911B97B1
:102BF0008E1779F080E090E0ED01C80FD91F2E818B
:102C0000211102C0EE8305C0019686309105A1F71F
:102C100009C0BD016C5F7F4FCD010E94AA1581E004
:102C200090E008C081E090E013969C938E931297F9
:102C300080E090E0DF91CF910895683818F0E8E7E0
:102C4000E60F25C0E62FF0E067FF12C0E058F1095B
:102C500021E030E001C0220FEA95EAF72095DC017F
:102C600014963C911497322314963C93E0E00FC0E5
:102C7000E056FC4FE491EE2329F1E7FF08C0DC01A8
:102C800014962C9114972D7F14962C93EF7720E0B7
:102C900030E0EE2351F0DC01A20FB31F16964C91E9
:102CA00016974E1302C016961C922F5F3F4F263088
:102CB000310579F7BC016C5F7F4F0E94AA1581E056
:102CC00090E0089580E090E00895FC01168217825C
:102CD00010861186128613861482BC016C5F7F4FAA
:102CE0000C94AA15109241021092380210923702E9
:102CF0008FE491E090933602809335020895505806
:102D0000BB27AA270ED075C166D130F06BD120F059
:102D100031F49F3F11F41EF45BC10EF4E095E7FB24
:102D200051C1E92F77D180F3BA176207730784077F
:102D3000950718F071F49EF58FC10EF4E0950B2EF7
:102D4000BA2FA02D0B01B90190010C01CA01A001FD
:102D50001124FF27591B99F0593F50F4503E68F158
:102D60001A16F040A22F232F342F4427585FF3CF99
:102D7000469537952795A795F0405395C9F77EF46A
:102D80001F16BA0B620B730B840BBAF09150A1F0B3
:102D9000FF0FBB1F661F771F881FC2F70EC0BA0F39
:102DA000621F731F841F48F4879577956795B795C1
:102DB000F7959E3F08F0B3CF9395880F08F09927B9
:102DC000EE0F979587950895D9D008F481E008957E
:102DD0000CD00FC107D140F0FED030F021F45F3F9E
:102DE00019F0F0C0511139C1F3C014D198F39923EF
:102DF000C9F35523B1F3951B550BBB27AA276217BF
:102E00007307840738F09F5F5F4F220F331F441F03
:102E1000AA1FA9F333D00E2E3AF0E0E830D091503B
:102E20005040E695001CCAF729D0FE2F27D0660F28
:102E3000771F881FBB1F261737074807AB07B0E867
:102E400009F0BB0B802DBF01FF2793585F4F2AF07D
:102E50009E3F510568F0B6C000C15F3FECF3983E5D
:102E6000DCF3869577956795B795F7959F5FC9F7DA
:102E7000880F911D9695879597F90895E1E0660F63
:102E8000771F881FBB1F621773078407BA0720F0DC
:102E9000621B730B840BBA0BEE1F88F7E095089545
:102EA00004D06894B111D9C00895BCD088F09F5760
:102EB00090F0B92F9927B751A0F0D1F0660F771F86
:102EC000881F991F1AF0BA95C9F712C0B13081F066
:102ED000C3D0B1E00895C0C0672F782F8827B85FAE
:102EE00039F0B93FCCF3869577956795B395D9F7C7
:102EF0003EF490958095709561957F4F8F4F9F4FD1
:102F00000895E89409C097FB3EF4909580957095DC
:102F100061957F4F8F4F9F4F9923A9F0F92F96E925
:102F2000BB279395F695879577956795B795F1119A
:102F3000F8CFFAF4BB0F11F460FF1BC06F5F7F4F37
:102F40008F4F9F4F16C0882311F096E911C0772349
:102F500021F09EE8872F762F05C0662371F096E852
:102F6000862F70E060E02AF09A95660F771F881F21
:102F7000DAF7880F9695879597F90895990F0008C5
:102F8000550FAA0BE0E8FEEF16161706E807F9073B
:102F9000C0F012161306E407F50798F0621B730BD6
:102FA000840B950B39F40A2661F0232B242B252B57
:102FB00021F408950A2609F4A140A6958FEF811DFA
:102FC000811D089597F99F6780E870E060E008959B
:102FD0009FEF80EC089500240A9416161706180631
:102FE0000906089500240A9412161306140605060D
:102FF0000895092E0394000C11F4882352F0BB0F9E
:1030000040F4BF2B11F460FF04C06F5F7F4F8F4F00
:103010009F4F089557FD9058440F551F59F05F3F3B
:1030200071F04795880F97FB991F61F09F3F79F0EA
:1030300087950895121613061406551FF2CF46956C
:10304000F1DF08C0161617061806991FF1CF8695EE
:103050007105610508940895E894BB2766277727D2
:10306000CB0197F908958ADF08F48FEF08950BD00C
:10307000C0CFB1DF28F0B6DF18F0952309F0A2CF5A
:10308000A7CF1124EACFC6DFA0F3959FD1F3950F08
:1030900050E0551F629FF001729FBB27F00DB11DDC
:1030A000639FAA27F00DB11DAA1F649F6627B00D6C
:1030B000A11D661F829F2227B00DA11D621F739F55
:1030C000B00DA11D621F839FA00D611D221F749F63
:1030D0003327A00D611D231F849F600D211D822FAA
:1030E000762F6A2F11249F5750408AF0E1F08823F1
:1030F0004AF0EE0FFF1FBB1F661F771F881F9150FE
:103100005040A9F79E3F510570F05CCFA6CF5F3FBE
:10311000ECF3983EDCF3869577956795B795F79530
:10312000E7959F5FC1F7FE2B880F911D96958795B8
:1031300097F9089523DF880B990B089597FB072EC5
:1031400016F4009407D077FD09D00E94DA1807FC26
:1031500005D03EF4909581959F4F089570956195A7
:103160007F4F0895A1E21A2EAA1BBB1BFD010DC0C3
:10317000AA1FBB1FEE1FFF1FA217B307E407F50727
:1031800020F0A21BB30BE40BF50B661F771F881F03
:10319000991F1A9469F760957095809590959B0199
:1031A000AC01BD01CF010895EE0FFF1F0590F49112
:1031B000E02D0994AA1BBB1B51E107C0AA1FBB1F2E
:1031C000A617B70710F0A61BB70B881F991F5A95B3
:1031D000A9F780959095BC01CD010895CF93DF9319
:1031E0008230910510F482E090E0E0914402F09189
:1031F000450220E030E0A0E0B0E0309739F14081B6
:10320000518148175907B8F04817590771F482815E
:103210009381109729F013969C938E9312972CC04C
:10322000909345028093440227C02115310531F067
:103230004217530718F0A901DB0101C0EF019A0101
:10324000BD01DF010280F381E02DD7CF21153105CB
:10325000F9F0281B390B2430310580F48A819B81D9
:103260006115710521F0FB019383828304C0909363
:10327000450280934402FE01329644C0FE01E20FF3
:10328000F31F8193919322503109398328833AC0E7
:103290002091420230914302232B41F420910201FC
:1032A00030910301309343022093420220910001A8
:1032B000309101012115310541F42DB73EB7409100
:1032C000040150910501241B350BE0914202F0915D
:1032D0004302E217F307A0F42E1B3F0B2817390710
:1032E00078F0AC014E5F5F4F2417350748F04E0F62
:1032F0005F1F50934302409342028193919302C017
:10330000E0E0F0E0CF01DF91CF910895CF93DF931C
:10331000009709F487C0FC01329713821282C09192
:103320004402D0914502209781F420813181280FF9
:10333000391F80914202909143028217930779F5D9
:10334000F0934302E09342026DC0DE0120E030E0E2
:10335000AE17BF0750F412964D915C9113979D01E3
:103360004115510509F1DA01F3CFB383A2834081FE
:103370005181840F951F8A179B0771F48D919C9141
:103380001197840F951F02969183808312968D91D9
:103390009C911397938382832115310529F4F0932F
:1033A0004502E09344023EC0D9011396FC93EE938C
:1033B00012974D915D91A40FB51FEA17FB0779F4A1
:1033C00080819181840F951F0296D90111969C935B
:1033D0008E938281938113969C938E931297E0E053
:1033E000F0E08A819B81009719F0FE01EC01F9CF92
:1033F000CE01029628813981820F931F20914202CB
:10340000309143022817390769F4309729F4109254
:1034100045021092440202C013821282D0934302EA
:10342000C0934202DF91CF910895FC01882799272C
:10343000E89421912032E9F3293010F02E30C8F3BE
:103440002B3241F02D3239F4689404C00E943E1AA8
:10345000820F911D219120532A30C0F31EF49095C4
:1034600081959F4F0895FC018191861721F0882353
:10347000D9F7992708953197CF0108957AE0979F5A
:10348000902D879F802D910D11240895F894FFCFE2
:103490000000460280000100E10000000000000181
:1034A000012000686F6C00000000007807B60EB8BD
:1034B000067D069E06D0065E00BC0077016E616E3A
:1034C00000696E66006F7666002E000000000062E4
:1034D00014A9148C149C1478148914000000003C66
:0A34E00015B60EAF151D1665160097
:00000001FF
