:100000000C9404020C942C020C942C020C942C02E0
:100010000C942C020C942C020C942C020C942C02A8
:100020000C942C020C9406040C94C8110C9494109B
:100030000C942C020C942C020C942C020C942C0288
:100040000C942C020C942C020C942C020C942C0278
:100050000C942C020C942C020C942C020C94FF088F
:100060000C942C020C942C020C942C020C942C0258
:100070000C942C020C942C020C942C020C942C0248
:100080000C942C020C942C020C942C020C942C0238
:100090000C942C020C942C020C942C020C942C0228
:1000A0000C942C020C942C020C942C02570A5C0A1F
:1000B000610A6B0A750ABF0ABF0ABF0A7F0A890A6A
:1000C000930A9D0AAA0ABF0AB20AE00AE30AD20A00
:1000D000D60ADC0A040B040B040BE70AEB0AEF0A4E
:1000E000F50AF90A040BFF0A005EBCE2613FDD83FA
:1000F000C29C7E20A3FD1F419DC3217FFCA2401E08
:100100005F01E3BD3E6082DC237D9FC1421CFEA0F7
:10011000E1BF5D0380DE3C62BEE0025CDF81633DE7
:100120007C22C09E1D43A1FF4618FAA427799BC5D7
:1001300084DA3866E5BB5907DB856739BAE40658C7
:100140001947A5FB7826C49A653BD987045AB8E6B7
:10015000A7F91B45C6987A24F8A6441A99C7257BA7
:100160003A6486D85B05E7B98CD2306EEDB3510F97
:100170004E10F2AC2F7193CD114FADF3702ECC9287
:10018000D38D6F31B2EC0E50AFF1134DCE90722C77
:100190006D33D18F0C52B0EE326C8ED0530DEFB167
:1001A000F0AE4C1291CF2D73CA947628ABF5174957
:1001B0000856B4EA6937D58B5709EBB536688AD447
:1001C00095CB2977F4AA4816E9B7550B88D6346A37
:1001D0002B7597C94A14F6A8742AC896154BA9F727
:1001E000B6E80A54D7896B35070605040100080AEA
:1001F0000B0C0D090000000200090F0000030401B0
:10020000000C0000000000000000000000000000E2
:10021000000004080201104080401020408040800F
:10022000080204018040201002011080102040408C
:10023000040404040403040502020202040302028B
:100240000202060606060606040402020204000074
:1002500000002300260029002C002F0000000000D1
:10026000250028002B002E00310000000000240093
:1002700027002A002D003000080B000202020100B6
:1002800009040000010202000005240010010524F9
:10029000010101042402060524060001070581036B
:1002A00010004009040100020A00000007050202D4
:1002B0004000000705830240000000C18081C11298
:1002C00001000202000040412336800001010200CB
:1002D00001120100020000004041233680000101AC
:1002E00002000141726475696E6F204C4C430041FD
:1002F000726475696E6F204C656F6E6172646F0019
:100300000403090400000000000000002A2B28005C
:1003100000000000000000000000000000000000DD
:10032000000000002C9EB4A0A1A2A434A6A7A5AEF4
:10033000362D3738271E1F20212223242526B333AC
:10034000B62EB7B89F8485868788898A8B8C8D8ED8
:100350008F909192939495969798999A9B9C9D2FA4
:100360003130A3AD350405060708090A0B0C0D0E44
:100370000F101112131415161718191A1B1C1DAF84
:10038000B1B0B50009040200010300000009210119
:1003900001000122650007058403400001050109F1
:1003A00002A1010901A1008501050919012903150F
:1003B00000250195037501810295017505810305ED
:1003C000010930093109381581257F7508950381A8
:1003D00006C0C005010906A1018502050719E0292B
:1003E000E7150025017501950881029501750881C1
:1003F000039506750815002565050719002965810F
:1004000000C06703600C731311241FBECFEFDAE046
:10041000DEBFCDBF11E0A0E0B1E0E4E4FCE202C049
:1004200005900D92AC36B107D9F722E0ACE6B1E009
:1004300001C01D92A836B207E1F714E0C8E0D4E08D
:1004400004C02297FE010E94D715C230D107C9F718
:100450000E947E0C0C9420160C94000040E855E29B
:1004600060E070E082E092E00E945A0CE0910202AB
:10047000F09103020280F381E02D4AE050E06BE04E
:1004800071E082E092E0099584E991E00C945D07C7
:10049000FF920F931F93CF93DF938C0160E270E084
:1004A0000E940D16EC011992C8010E94EF158230CE
:1004B000910509F46EC00CF03FC0009709F44CC0E0
:1004C000019709F0FDC060E270E0CE010E940D16B8
:1004D000FC0111928F01CE010E94EF15EC016CE13D
:1004E00071E082E092E00E94CF0C4AE050E0BE0151
:1004F00082E092E00E948F0D66E271E082E092E07D
:100500000E94CF0CC8010E94EF15D82F4AE050E09E
:10051000682F792F82E092E00E948F0D66E271E0F1
:1005200082E092E00E94CF0C6D2F8C2F0E943E0B38
:100530008C2F0E94740B8EC08430910509F497C0F3
:100540000CF44FC0059709F0BBC064E371E082E092
:1005500092E00E94CF0CB4C0CE010E94EF15182F7C
:10056000092F66E171E082E092E00E94CF0C4AE040
:1005700050E0612F702F82E092E00E948F0D66E2C2
:1005800071E082E092E00E94CF0C812F0E94740BF8
:100590001CC0CE010E94EF15182F092F62E271E0F6
:1005A00082E092E00E94CF0C4AE050E0612F702F71
:1005B00082E092E00E948F0D66E271E082E092E0BC
:1005C0000E94CF0C812F0E94000A4AE050E0BC013B
:1005D00082E092E00E948F0D82E092E00E94D80CAF
:1005E0006FC060E270E0CE010E940D16FC01119216
:1005F0008F01CE010E94EF15F82EC92F68E271E03D
:1006000082E092E00E94CF0C4AE050E06F2D7C2FF8
:1006100082E092E00E948F0D66E271E082E092E05B
:100620000E94CF0CC8010E94EF15EC014AE050E097
:10063000BC0182E092E00E948F0D66E271E082E0F0
:1006400092E00E94CF0CBE018F2D0E94310A8F2DA7
:100650000E94000A4AE050E0BC0182E092E00E9461
:100660008F0D82E092E00E94D80CE80129C06EE272
:1006700071E082E092E00E94CF0C84E991E00E9458
:100680003F0860E084E991E00E94D408AB01BC011E
:1006900022E030E082E092E00E94960E66E271E095
:1006A00082E092E00E94CF0C84E991E00E94400633
:1006B0004AE050E0682F82E092E00E94A40D8CCFC7
:1006C000CE01DF91CF911F910F91FF90089563E0CC
:1006D00087EA91E00E94690567EA71E084E991E0A8
:1006E0000C943106CF93DF9382E092E00E94C70B17
:1006F0001816190624F5C0E0D0E082E092E00E94CE
:10070000C70B1816190684F7C832D1056CF782E0BA
:1007100092E00E94D70BFE01E459FE4F8A3011F09F
:100720008D3051F4108280916C01882321F38CE686
:1007300091E00E944802DFCF80832196DECFDF91D7
:10074000CF91089520E001972FEF8F3F9207D9F7BF
:100750000895EF92FF920F931F93CF93DF93EC01D5
:100760008B8DEE85FF859D8581FF04C08081892367
:1007700029F445C08081892309F041C08B899C8977
:100780000E94A20308E010E0EE24E394F12C8D898E
:100790009E890E94A203EE85FF8580819D85892325
:1007A00011F0FE2803C08E2D8095F822EE0C01502A
:1007B000110969F78F89988D0E94A2038B8D81FDA5
:1007C000F0948091B6012091B50190E001968F736D
:1007D000992730E08217930779F0E091B601F0E0B5
:1007E000E954FE4FF0828091B60190E001968F733C
:1007F00099278093B60103C08B8D81608B8FDF9129
:10080000CF911F910F91FF90EF9008951F920F923B
:100810000FB60F9211242F933F934F935F936F93D3
:100820007F938F939F93AF93BF93EF93FF938091A9
:10083000F7019091F801009711F00E94A903FF9130
:10084000EF91BF91AF919F918F917F916F915F9148
:100850004F913F912F910F900FBE0F901F901895C1
:10086000FF920F931F93CF93DF93FC010081C1810F
:10087000D281F8948981F02EF0948F218983789425
:100880001DE7115029F182E090E00E94A0098881C3
:100890008023B9F3F8948A818F218A838981802B00
:1008A0008983789480EE91E00E94A009F894898170
:1008B0008F21898386E490E00E94A00988818023AB
:1008C00011E009F010E078948AE991E00E94A00913
:1008D000812FDF91CF911F910F91FF9008951F936A
:1008E000CF93DF93FC011081C181D281912F90952C
:1008F00060FF12C0F8948A8189238A838981812BC1
:1009000089838AE090E00E94A0098A81812B8A83F2
:10091000789487E390E011C0F8948A8189238A83D0
:100920008981812B898381E490E00E94A0098A81DA
:10093000812B8A83789485E090E0DF91CF911F919D
:100940000C94A0090F931F93CF93DF93FC011081A8
:10095000C181D281F8948981812B89838A81012F79
:10096000009580238A8383E090E00E94A00989811A
:10097000802389838AE090E00E94A009C88178944E
:1009800085E390E00E94A0091C2381E009F480E047
:10099000DF91CF911F910F910895CF92DF92EF9247
:1009A000FF920F931F93CF93DF931F92CDB7DEB7C4
:1009B0006C01E62E08E010E0FF24F39461E09F2D27
:1009C0009E2109F460E0C60149830E946F04FF0C78
:1009D0000150110949810115110581F7411115C017
:1009E000F894D6011196ED91FC91129791818C911A
:1009F0008095892381831196ED91FC9112979281C4
:100A00008C9180958923828378940F90DF91CF9188
:100A10001F910F91FF90EF90DF90CF900895EF928C
:100A2000FF920F931F93CF93DF938C01C8E0D0E028
:100A3000F12CEE24E394C8010E94A2048111FE2847
:100A4000EE0C2197C1F78F2DDF91CF911F910F9160
:100A5000FF90EF900895CF92DF92FF920F931F9334
:100A6000CF93DF931F92CDB7DEB78C01F62E40E017
:100A700065E579830E94CD04CF2C7981D72E88E05B
:100A8000F82EF60161916F0140E0C8010E94CD048B
:100A9000FA94B9F70F90DF91CF911F910F91FF90CA
:100AA000DF90CF90089540E06CEC0C94CD04FC01F5
:100AB00013861586148627E030E0DF01A20FB31FEE
:100AC00013961C922115310519F021503109F5CFEB
:100AD00008951F93CF93DF93EC01162F60E0812FD1
:100AE0000E94050B612F70E0FB01EE5EFD4FE4916B
:100AF000E883FB01E05DFD4FE491F0E0EE0FFF1FA6
:100B0000E25BFD4F859194919A838983CE01DF91B9
:100B1000CF911F910C945705AF92BF92CF92DF9265
:100B2000EF92FF920F931F93CF93DF931F92CDB756
:100B3000DEB75C01E62ED72EFC01858581115DC0F4
:100B4000C5010E943004811105C0F5011386158688
:100B500014866EC040E060EFC5010E94CD0401E044
:100B6000F12CC12C11E0C5010E94A204682FC5011F
:100B700069830E94A2046981613019F48130B9F45B
:100B800033C02F2D30E068131BC0F5018385181783
:100B900030F4E20FF31F8381802349F402C0181759
:100BA00031F060E0193058F4F501148708C0F50100
:100BB000EF0DF11D8381802B838361E009C0C12E7D
:100BC000F501E20FF31F8381902F90958923838392
:100BD000C5010E946F041F5F000F11F4F39401E040
:100BE000F7E0FF1508F0BFCF113438F0F501C386E8
:100BF000C11018C081E0858715C0F50113861586E0
:100C0000148680E0EE2DFD2D20E030E0D501A20F0E
:100C1000B31F13969C9191932F5F3F4F283031055E
:100C2000A9F706C0F5018381882339F381E0EACF73
:100C30000F90DF91CF911F910F91FF90EF90DF9078
:100C4000CF90BF90AF900895DC0180E0615038F004
:100C5000ED91E827F0E0E851FF4F8491F7CF089538
:100C60000895FC0180E396E0928B818B7683658307
:100C70001482108289E0818381E0828383830895D6
:100C8000FC0184810895CF93DF93EB0167E0CE01EF
:100C90000E94240691E02F81821390E0892FDF913A
:100CA000CF910895EF92FF920F931F93CF93DF930D
:100CB000EC018B01E42E8D819E810E945705F12C61
:100CC000B8018D819E810E948C05882359F0FE1009
:100CD00006C0B801CE010E944306811104C0F394FE
:100CE000EF1470F780E0DF91CF911F910F91FF908B
:100CF000EF900895EF92FF920F931F93CF93DF939E
:100D000000D0CDB7DEB77C018A01FC0185819681D8
:100D100069837A830E94300469817A81F701858131
:100D200096810E942B0540E06EEBF701858196814C
:100D30000E94CD04F701858196810E940F05F8017C
:100D40008083F701858196810E940F05F8018183D8
:100D5000F701858196810E940F05F8018283F701D2
:100D6000858196810E940F05F8018383F7018581B3
:100D700096810E940F05F8018483F7018581968191
:100D80000E940F05F8018583F701858196810E94F5
:100D90000F05F8018683F701858196810E940F0572
:100DA000F8018783F701858196810E940F05F8017C
:100DB0008087F701858196810F900F90DF91CF9109
:100DC0001F910F91FF90EF900C943004CF93DF931D
:100DD000EA010E947A0668E0CE010E94240691E0B2
:100DE0002885821390E0892FDF91CF910895EF92AB
:100DF000FF921F93CF93DF9300D0CDB7DEB77C0176
:100E0000FC018581968169837A830E94300469811F
:100E10007A81F701858196810E942B0540E064EB81
:100E2000F701858196810E94CD04F7018581968125
:100E30000E94A204182FF701858196810E94300438
:100E400081E0111180E00F900F90DF91CF911F9101
:100E5000FF90EF900895CF93DF93CDB7DEB729973A
:100E60000FB6F894DEBF0FBECDBFFB01208120314D
:100E7000D1F0AE014F5F5F4F0E94E606882379F004
:100E80008D818F3351F020F48F3149F489E00CC00B
:100E90008F3539F08F3739F002C08AE005C080E025
:100EA00003C08BE001C08CE029960FB6F894DEBF3A
:100EB0000FBECDBFDF91CF910895EF92FF920F93B8
:100EC0001F93CF93DF93CDB7DEB761970FB6F8943A
:100ED000DEBF0FBECDBF8C01FC01858196810E94D3
:100EE0005705F8011482FF24F394BE01665F7F4F1B
:100EF000F801858196810E948C058823C9F1BE0185
:100F0000665F7F4FC8010E944306882371F3F80192
:100F10008081811108C0BE01665F7F4FC8010E94B9
:100F2000F706811122C0AE014F5F5F4FBE01665FC1
:100F30007F4FC8010E947A06F801E180BE01665F1A
:100F40007F4FC8010E942B078E1518F4F80181818C
:100F500006C0BE01665F7F4FC8010E942B07F801E3
:100F6000818384818F5F8483C0CFF801F082DBCFDF
:100F700061960FB6F894DEBF0FBECDBFDF91CF9163
:100F80001F910F91FF90EF900895CF93DF93CDB70E
:100F9000DEB729970FB6F894DEBF0FBECDBFAE0106
:100FA0004F5F5F4F0E947A0681E09981911101C0E5
:100FB00080E029960FB6F894DEBF0FBECDBFDF915B
:100FC000CF9108958F929F92AF92BF92CF92DF926E
:100FD000EF92FF920F931F93CF93DF93EC018A015F
:100FE0006950633048F4E62FF0E0EE0FFF1FE65C37
:100FF000FE4F8081918102C08EEE92E04C01AA24C6
:1010000097FCA094BA2C01151105E1F08B8188237F
:10101000C9F08881811116C00E9449096B017C01C9
:10102000C80CD91CEA1CFB1CB801CE010E94C507E4
:10103000811118C00E9449096C157D058E059F0518
:1010400088F4F2CFC501B401DF91CF911F910F91C8
:10105000FF90EF90DF90CF90BF90AF909F908F90D8
:101060000C947809DF91CF911F910F91FF90EF9031
:10107000DF90CF90BF90AF909F908F900895CF93C7
:10108000DF93EC018D819E810E9430048D819E81D1
:101090000E945305488164E48D819E810E94CD04A5
:1010A0008A81882341F040E050E06981CE01DF91E0
:1010B000CF910C94E207DF91CF910895FA0120813E
:1010C00048E0249F90011124818190E0982F882787
:1010D000990F990F990F282B392BDB018C918031B7
:1010E000C1F4678170E08681AB01481B5109CA01D8
:1010F0009695982F8827979587950E949F15605100
:101100007109207F53E0220F331F5A95E1F7260F14
:10111000371FC9010895EF92FF920F931F93CF934A
:10112000DF93CDB7DEB729970FB6F894DEBF0FBEB9
:10113000CDBF8C017B01AE014F5F5F4F0E94E60681
:10114000882341F0AE014F5F5F4FB701C8010E9495
:101150005E0802C080E894EE29960FB6F894DEBFD0
:101160000FBECDBFDF91CF911F910F91FF90EF90F8
:101170000895813824EE920774F0BC01882777FD2A
:101180008095982F0E94841420E030E040E05CE3DA
:101190000E943815089560E070E08EEF92EC08959B
:1011A0000E948B080C94B9080F931F93CF93DF9381
:1011B000CDB7DEB728970FB6F894DEBF0FBECDBF10
:1011C0008C01462FBE016F5F7F4F0E94520688231D
:1011D00039F0BE016F5F7F4FC8010E94D00804C084
:1011E00060E070E08EEF92EC28960FB6F894DEBFC8
:1011F0000FBECDBFDF91CF911F910F9108951F9228
:101200000F920FB60F9211242F933F938F939F93BA
:10121000AF93BF938091FA019091FB01A091FC01E3
:10122000B091FD013091F90123E0230F2D3720F417
:101230000196A11DB11D05C026E8230F0296A11D30
:10124000B11D2093F9018093FA019093FB01A093C3
:10125000FC01B093FD018091FE019091FF01A091EE
:101260000002B09101020196A11DB11D8093FE0103
:101270009093FF01A0930002B0930102BF91AF9140
:101280009F918F913F912F910F900FBE0F901F90C4
:1012900018952FB7F8946091FA017091FB01809135
:1012A000FC019091FD012FBF08953FB7F894809104
:1012B000FE019091FF01A0910002B091010226B5BC
:1012C000A89B05C02F3F19F00196A11DB11D3FBF7E
:1012D0006627782F892F9A2F620F711D811D911D0E
:1012E00042E0660F771F881F991F4A95D1F708952E
:1012F000CF92DF92EF92FF92CF93DF936B017C014D
:101300000E945509EB01C114D104E104F10489F0F4
:101310000E943C120E9455096C1B7D0B683E734075
:1013200090F381E0C81AD108E108F108C851DC4FF8
:10133000EACFDF91CF91FF90EF90DF90CF900895AB
:10134000019739F0880F991F880F991F029701970D
:10135000F1F70895789484B5826084BD84B5816086
:1013600084BD85B5826085BD85B5816085BDEEE6AD
:10137000F0E0808181608083E1E8F0E0108280818C
:1013800082608083808181608083E0E8F0E08081FA
:1013900081608083E1E9F0E08081826080838081E8
:1013A00081608083E0E9F0E0808181608083E1EC0E
:1013B000F0E080818460808380818260808380818E
:1013C00081608083E3ECF0E0808181608083E0ECE9
:1013D000F0E0808182608083E2ECF0E080818160D7
:1013E0008083EAE7F0E0808184608083808182608E
:1013F000808380818160808380818068808308957C
:10140000823108F08251E82FF0E0E851FE4FE4917C
:1014100080917B00E3FB222720F930E095E0220F4A
:10142000331F9A95E1F78F7D822B80937B00E770C5
:101430008091000120E4829FC0011124E82BE093F9
:101440007C0080917A00806480937A0080917A0099
:1014500086FDFCCF809178002091790090E0922B5E
:1014600008951F93CF93DF93182FEB0161E00E9443
:10147000050B209711F460E004C0CF3FD10539F48B
:1014800061E0812FDF91CF911F910C943E0BE12FF2
:10149000F0E0EC50FE4F449150E0FA013197EF300C
:1014A000F10508F06CC0EA5AFF4F0C94D51584B5CD
:1014B000806884BDC7BD68C084B5806284BDC8BD76
:1014C00063C080918000806880938000D093890001
:1014D000C093880059C08091800080628093800012
:1014E000D0938B00C0938A004FC0809180008860A9
:1014F00080938000D0938D00C0938C0045C0809174
:101500009000806880939000D0939900C0939800D9
:101510003BC080919000806280939000D0939B00AC
:10152000C0939A0031C080919000886080939000B1
:10153000D0939D00C0939C0027C08091C00080681C
:101540008093C0008091C0008F7B8093C000C093C7
:10155000CF001AC08091C00080628093C000C09309
:10156000D00012C08091C20088608093C200809138
:10157000C2008B7F8093C200C093D20005C0C038E8
:10158000D1050CF07DCF77CFDF91CF911F910895DA
:1015900090E0FC013197EF30F105B0F5EB59FF4FCA
:1015A0000C94D515809180008F7703C080918000C6
:1015B0008F7D80938000089580918000877FF9CF90
:1015C00084B58F7702C084B58F7D84BD08958091E6
:1015D00090008F7707C0809190008F7D03C080912D
:1015E0009000877F8093900008958091C0008F774E
:1015F00003C08091C0008F7D8093C00008958091CA
:10160000C200877F8093C2000895CF93DF9390E05C
:10161000FC01EE5EFD4F2491FC01E05DFD4F8491E5
:10162000882349F190E0880F991FFC01E659FD4F8E
:10163000A591B491845A9D4FFC01C591D4919FB757
:10164000611108C0F8948C91209582238C93888135
:1016500082230AC0623051F4F8948C91322F309575
:1016600083238C938881822B888304C0F8948C9187
:10167000822B8C939FBFDF91CF9108950F931F937F
:10168000CF93DF931F92CDB7DEB7282F30E0F9015B
:10169000EC50FE4F8491F901EE5EFD4F1491F9017B
:1016A000E05DFD4F04910023C9F0882321F0698398
:1016B0000E94C80A6981E02FF0E0EE0FFF1FE45A94
:1016C000FD4FA591B4919FB7F8948C91611103C01F
:1016D0001095812301C0812B8C939FBF0F90DF91C8
:1016E000CF911F910F910895CF93DF93282F30E072
:1016F000F901EC50FE4F8491F901EE5EFD4FD4915B
:10170000F901E05DFD4FC491CC2391F081110E945D
:10171000C80AEC2FF0E0EE0FFF1FE25BFD4FA59132
:10172000B4912C912D2381E090E021F480E002C05F
:1017300080E090E0DF91CF910895CF93DF931F92E7
:10174000CDB7DEB76983DC01ED91FC910280F381B6
:10175000E02D41E050E0BE016F5F7F4F09950F9093
:10176000DF91CF910895CF93DF93EC018C859D8518
:1017700097FF05C082E00E94690F9D878C878C854A
:101780009D85DF91CF91089583E00C94BE11FC01FB
:101790008485958597FD06C082E00E94110F90E038
:1017A0000196089582E00E94110F90E00895FC01D7
:1017B0008485958597FD05C02FEF3FEF35872487FA
:1017C000089582E00C94690FCF93DF93EC01809130
:1017D0000801882331F083E00E949A0F1816190639
:1017E00034F081E090E09B838A8380E090E0DF9199
:1017F000CF910895FC0120812E5F208342E450E0C8
:1018000068E772E080E80C943510FC0181819081DA
:10181000913A59F4813209F03CC047E050E061E070
:1018200071E080E00E94351043C0913291F5803222
:1018300039F467E070E081E091E00E94661006C034
:10184000823209F035C082818093080180910101C4
:1018500090910201A0910301B0910401803B94405A
:10186000A105B105C1F48091080180FD14C087E78E
:1018700097E790930108809300082BE088E190E0BF
:101880000FB6F894A895809360000FBE2093600077
:101890000FC080E0089588E10FB6F894809360004F
:1018A000109260000FBEA8951092010810920008D7
:1018B00081E008952FEF3FEFFC01358724870895DD
:1018C000109205021092040288EE93E0A0E0B0E0CE
:1018D0008093060290930702A0930802B093090236
:1018E00084E491E090930302809302028FEF9FEFD4
:1018F00090930F0280930E02089508950E94AA0902
:101900000E947D0C82E592E00E941E120E942E022F
:10191000C0E0D0E00E9472032097E1F30E94000033
:10192000F9CFCF92DF92EF92FF920F931F93CF9355
:10193000DF936C017A01EB01E60EF71E00E010E088
:10194000CE15DF0561F06991D601ED91FC91019012
:10195000F081E02DC6010995080F191FF1CFC801CC
:10196000DF91CF911F910F91FF90EF90DF90CF907B
:1019700008956115710581F0DB010D900020E9F7F4
:10198000AD0141505109461B570BDC01ED91FC9113
:101990000280F381E02D099480E090E008950C949A
:1019A000B90CDC01ED91FC910190F081E02D0994DE
:1019B0000F931F93CF93DF93EC016DE00E94D10C46
:1019C0008C016AE0CE010E94D10C800F911FDF9143
:1019D000CF911F910F9108958F929F92AF92BF92D6
:1019E000CF92DF92EF92FF920F931F93CF93DF93EB
:1019F000CDB7DEB7A1970FB6F894DEBF0FBECDBF4F
:101A00007C01C42EE52FCB01D22E19A221E02D1589
:101A100010F02AE0D22E8E010F5D1F4F8D2C912CDD
:101A2000A12CB12C6C2D7E2FA50194010E94B31521
:101A30008C2DD29E80191124015011098A3014F482
:101A4000805D01C0895CF801808321153105410565
:101A5000510521F0C22EE32FCA01E4CFB801C7011E
:101A60000E94B90CA1960FB6F894DEBF0FBECDBF91
:101A7000DF91CF911F910F91FF90EF90DF90CF906A
:101A8000BF90AF909F908F900895CF92DF92EF928A
:101A9000FF920F931F93CF93DF93EC016A017B01B9
:101AA0002115310579F4E881F9810190F081E02D6B
:101AB000642FDF91CF911F910F91FF90EF90DF90F6
:101AC000CF9009942A303105E9F477FF1AC06DE20E
:101AD0000E94D10C8C0144275527BA014C195D098D
:101AE0006E097F092AE0CE010E94EC0C800F911F45
:101AF000DF91CF911F910F91FF90EF90DF90CF90EA
:101B000008952AE0B701A601CE01DF91CF911F9180
:101B10000F91FF90EF90DF90CF900C94EC0C9A0116
:101B2000AB01662757FD6095762F0C94450D211566
:101B3000310541F4DC01ED91FC910190F081E02D43
:101B4000642F09940C94EC0C9A01462F50E060E04D
:101B500070E00C94970D4F925F926F927F928F92EC
:101B60009F92AF92BF92CF92DF92EF92FF920F932C
:101B70001F93CF93DF93EC016A017B01B22E9A0190
:101B8000AB01C701B6010E949B15882319F060E5DF
:101B900071E027C026013701E89477F82FEF3FEF77
:101BA0004FE75FE7C301B2010E949B1581110DC091
:101BB0002FEF3FEF4FE75FE7C301B2010E94E5134C
:101BC00018161CF464E571E00CC02FEF3FEF4FE7EF
:101BD0005FE4C701B6010E9434151816ACF468E53D
:101BE00071E0CE01DF91CF911F910F91FF90EF90A7
:101BF000DF90CF90BF90AF909F908F907F906F902D
:101C00005F904F900C94B90C2FEF3FEF4FE75FECD4
:101C1000C701B6010E94E51387FDE1CF20E030E067
:101C2000A901C701B6010E94E51387FF0AC06DE252
:101C3000CE010E94D10C8C01F7FAF094F7F8F094E1
:101C400002C000E010E0A12C60E070E080E09FE3C3
:101C5000AB1441F020E030E040E251E40E94E9138F
:101C6000A394F6CF9B01AC01C701B6010E9481137A
:101C70006B017C010E9456142B013C010E948214CE
:101C80009B01AC01C701B6010E9480136B017C016E
:101C90002AE0B301A201CE010E94EC0C080F191F2B
:101CA000BB2039F06CE571E0CE010E94B90C080F41
:101CB000191F7B2C772041F120E030E040E251E415
:101CC000C701B6010E9438156B017C010E945114B6
:101CD0004B01AA2497FCA094BA2C2AE030E0B5016D
:101CE000A401CE010E94450D080F191FC501B401C2
:101CF0000E9484149B01AC01C701B6010E948013AD
:101D00006B017C017A94D6CFC801DF91CF911F91EE
:101D10000F91FF90EF90DF90CF90BF90AF909F908A
:101D20008F907F906F905F904F9008950C94AB0DC3
:101D30004091560250915702209154023091550221
:101D400042175307B4F49091E8009570E1F3909135
:101D5000E80092FD19C08093F100809156029091A5
:101D6000570201968F739927892B19F48EEF809370
:101D7000E800809156029091570201969093570285
:101D80008093560281E0089580E00895CF92DF921B
:101D9000FF920F931F93CF93DF931F92CDB7DEB7C0
:101DA000082F162F862F880F8E5F99830E94980E1A
:101DB00083E00E94980EF02EC02E9981D92E8C2D92
:101DC0008F19811778F4F60184910E94980E082FDC
:101DD00080E00E94980E8023FFEFCF1ADF0A811166
:101DE000EECF01C081E00F90DF91CF911F910F9155
:101DF000FF90DF90CF900895615030F02091F10076
:101E0000FC0120830196F8CF289884E6809359023C
:101E100008952FB7FC012083F89467706093E90060
:101E20000895CF93DF931F92CDB7DEB7682FCE0111
:101E300001960E94090F8091F20099819FBF0F9037
:101E4000DF91CF910895FF920F931F93CF93DF936C
:101E500000D0CDB7DEB7F62E8A01909158029923B3
:101E600011F057FF03C08FEF9FEF2BC0682FCE01FB
:101E700001967A830E94090F8091F20090E0A801F8
:101E80007A81801791070CF4AC01EF2DF72FF40E37
:101E900084E6FE1639F02898809359029091F1005B
:101EA0009193F7CF4115510521F08091F2008823DD
:101EB00021F089818FBFCA0104C08BE68093E800BE
:101EC000F8CF0F900F90DF91CF911F910F91FF905E
:101ED0000895CF93DF931F92CDB7DEB741E050E076
:101EE000BE016F5F7F4F0E94230F019719F4898114
:101EF00090E002C08FEF9FEF0F90DF91CF91089598
:101F0000CF93DF931F92CDB7DEB7682FCE01019636
:101F10000E94090F9091E800892F807295FF04C0FC
:101F20009091F20080E4891B99819FBF0F90DF910F
:101F3000CF9108956F927F928F929F92AF92BF92AE
:101F4000CF92DF92EF92FF920F931F93CF93DF9385
:101F50001F92CDB7DEB7782E7B01C42EB52E8091AF
:101F60005802882369F0042F152F8AEFD82E872D69
:101F70008072982E9AE3A92E872D8074882E11C026
:101F80008FEF9FEF57C0872D0E94800F682E811121
:101F90000CC0DA94A9F361E070E080E090E00E9468
:101FA00078090115110579F73BC0282F30E0021799
:101FB00013070CF4602E672DCE0101960E94090FC5
:101FC0008091E80085FF29C0262D30E0021B130B0D
:101FD000992039F06A948FEF6816B1F01092F100F1
:101FE000F9CFF701862D77FE07C0815058F0949104
:101FF0009093F1003196F9CF815020F09191909318
:10200000F100FACFE20EF31E8091E80085FF0FC0C9
:102010000115110511F481100AC089818FBFC1CF4C
:102020005D9884E680935A028C2D9B2D03C0A0926C
:10203000E800F3CF0F90DF91CF911F910F91FF90A8
:10204000EF90DF90CF90BF90AF909F908F907F9058
:102050006F9008951092E900109257021092560264
:1020600090935502809354020895CF92DF92FF928D
:102070000F931F93CF93DF9300D0CDB7DEB7F82E29
:102080008A016B0101151105B1F0F601F7FE02C0DE
:10209000849101C0808149835A830E94980E015027
:1020A0001109FFEFCF1ADF0A49815A818111EACF66
:1020B0008FEF9FEF01C0CA010F900F90DF91CF917A
:1020C0001F910F91FF90DF90CF9008951F93CF93B2
:1020D000DF931F92CDB7DEB7162F2091E80022FFC5
:1020E000FCCF612F79830E94FC0E8BEF8093E80078
:1020F000812F7981972F0F90DF91CF911F910895B4
:10210000CF93DF931F92CDB7DEB71982CE01019630
:102110000E94FA0BCE0101960E945B12898190E029
:102120000F90DF91CF9108951F920F920FB60F92EB
:102130001124EF92FF920F931F932F933F934F938E
:102140005F936F937F938F939F93AF93BF93EF931F
:10215000FF93CF93DF93CDB7DEB76297DEBFCDBFDE
:102160001092E9008091E80083FFEBC068E0CE01A7
:102170000A960E94FC0E82EF8093E8009A8597FFF2
:1021800005C08091E80080FFFCCF03C08EEF8093F4
:10219000E800892F807609F0B9C08B85811105C0D0
:1021A0001092F1001092F100C5C0282F2D7F213030
:1021B00009F4C0C0853049F48091E80080FFFCCF6D
:1021C0008C8580688093E300B5C0863009F076C0C6
:1021D0002D85E888F988223071F580E090E02A8B1F
:1021E0000E942A100E94801099E08E010F5F1F4FFD
:1021F000F801392F11923A95E9F799832A892A83B0
:1022000091E09E8390E898879AEF998720915602F3
:1022100030915702275F3F4F3C832B838D83C7014B
:102220000E942A1049E050E0B80180E00E94351079
:102230000E9480107FC0C7012A8B0E942A102A8921
:10224000223241F482E290E00E946612892B09F06A
:1022500071C074C0213069F488899989089711F494
:102260002093530280915302811118C061ED72E0F6
:102270001AC0233009F062C08C85882391F0823027
:1022800021F460E18FEE92E006C0813009F056C083
:102290006BE083EE92E00E94C60E4AC06FEB72E0E4
:1022A00002C060E073E06115710509F447C0FB01ED
:1022B000449150E080E80E9435103CC0873009F41A
:1022C0003DC0883021F481E08093F10033C0893033
:1022D00089F5937099F5EBEBF2E081E021E096E36C
:1022E0008093E9002093EB0034913093EC009093BD
:1022F000ED008F5F3196853099F78EE78093EA0085
:102300001092EA008C858093580214C088899989BC
:102310000E942A108E85811105C0CE010A960E9466
:10232000050C06C0823051F4CE010A960E948E122E
:10233000882321F08EEF8093E80003C081E2809330
:10234000EB0062960FB6F894DEBF0FBECDBFDF91F3
:10235000CF91FF91EF91BF91AF919F918F917F911D
:102360006F915F914F913F912F911F910F91FF902E
:10237000EF900F900FBE0F901F9018958093E9007B
:102380008091F200882319F08AE38093E800089591
:102390001F920F920FB60F9211242F933F934F93DA
:1023A0005F936F937F938F939F93AF93BF93EF93BD
:1023B000FF938091E1001092E10083FF0FC0109223
:1023C000E90091E09093EB001092EC0092E390937F
:1023D000ED001092580298E09093F00082FF1DC02B
:1023E00083E00E94BE1180915A02882339F08091C7
:1023F0005A02815080935A02882369F080915902D1
:10240000882359F08091590281508093590281119B
:1024100004C0289A02C05D9AF1CFFF91EF91BF915D
:10242000AF919F918F917F916F915F914F913F916C
:102430002F910F900FBE0F901F9018951092580279
:1024400081E08093D70080EA8093D80082E189BD43
:1024500009B400FEFDCF61E070E080E090E00E94F2
:10246000780980E98093D8008CE08093E200109294
:10247000E000559A209A08950895FF920F931F93B4
:10248000CF93DF93EC01F62EE881F9810480F5818A
:10249000E02D09958C01E881F9810680F781E02D16
:1024A0006F2DCE010995C8019927DF91CF911F911A
:1024B0000F91FF900895FC0120812F5F208349E157
:1024C00050E064E873E080E80C94351045E650E095
:1024D0006DE973E080E80C943510EF92FF920F9352
:1024E0001F93CF93DF931F92CDB7DEB789838B0104
:1024F0007A0141E050E0BE016F5F7F4F84E00E94AF
:102500009A0FA701B80184E40E949A0F0F90DF91FF
:10251000CF911F910F91FF90EF900895FC01918151
:102520008081813A31F481E0913091F0933089F4E7
:1025300011C0813271F49B3021F4828180930A01B1
:1025400005C09A3031F482818093090181E00895B9
:10255000089580E0089548E050E082E00C946D1208
:10256000CF93DF93DC01683818F0E8E7E60F25C069
:10257000E62FF0E067FF11C0E058F10981E090E03C
:1025800001C0880FEA95EAF714969C911497982B4E
:1025900014969C931497E0E010C0EC5FFC4FE4911C
:1025A000EE2309F440C0E7FF08C014968C911497FD
:1025B000826014968C931497EF7716968C911697E9
:1025C0008E1741F117968C9117978E1719F118965F
:1025D0008C9118978E17F1F019968C9119978E1788
:1025E000C9F01A968C911A978E17A1F01B968C91B0
:1025F0001B978E1779F080E090E0ED01C80FD91F8E
:102600002E81211102C0EE8305C00196863091050E
:10261000A1F709C0BD016C5F7F4FCD010E94AB12D5
:1026200081E090E008C081E090E013969C938E9347
:10263000129780E090E0DF91CF910895683818F00C
:10264000E8E7E60F25C0E62FF0E067FF12C0E0588C
:10265000F10921E030E001C0220FEA95EAF7209568
:10266000DC0114963C911497322314963C93E0E0DD
:102670000FC0EC5FFC4FE491EE2329F1E7FF08C0A7
:10268000DC0114962C9114972D7F14962C93EF77E0
:1026900020E030E0EE2351F0DC01A20FB31F1696CC
:1026A0004C9116974E1302C016961C922F5F3F4F07
:1026B0002630310579F7BC016C5F7F4F0E94AB1269
:1026C00081E090E0089580E090E00895FC0116829A
:1026D000178210861186128613861482BC016C5FE5
:1026E0007F4F0C94AB121092670210925E02109210
:1026F0005D0282E691E090935C0280935B02089514
:102700005058BB27AA270ED075C166D130F06BD1C7
:1027100020F031F49F3F11F41EF45BC10EF4E095FC
:10272000E7FB51C1E92F77D180F3BA17620773072E
:102730008407950718F071F49EF58FC10EF4E095AB
:102740000B2EBA2FA02D0B01B90190010C01CA016B
:10275000A0011124FF27591B99F0593F50F4503E16
:1027600068F11A16F040A22F232F342F4427585F08
:10277000F3CF469537952795A795F0405395C9F720
:102780007EF41F16BA0B620B730B840BBAF09150D8
:10279000A1F0FF0FBB1F661F771F881FC2F70EC077
:1027A000BA0F621F731F841F48F48795779567954A
:1027B000B795F7959E3F08F0B3CF9395880F08F033
:1027C0009927EE0F979587950895D9D008F481E061
:1027D00008950CD00FC107D140F0FED030F021F4A5
:1027E0005F3F19F0F0C0511139C1F3C014D198F313
:1027F0009923C9F35523B1F3951B550BBB27AA2782
:1028000062177307840738F09F5F5F4F220F331FF3
:10281000441FAA1FA9F333D00E2E3AF0E0E830D0BF
:1028200091505040E695001CCAF729D0FE2F27D0C2
:10283000660F771F881FBB1F261737074807AB0790
:10284000B0E809F0BB0B802DBF01FF2793585F4F05
:102850002AF09E3F510568F0B6C000C15F3FECF31F
:10286000983EDCF3869577956795B795F7959F5FCA
:10287000C9F7880F911D9695879597F90895E1E01E
:10288000660F771F881FBB1F621773078407BA077D
:1028900020F0621B730B840BBA0BEE1F88F7E095D8
:1028A000089504D06894B111D9C00895BCD088F0BF
:1028B0009F5790F0B92F9927B751A0F0D1F0660F2C
:1028C000771F881F991F1AF0BA95C9F712C0B13047
:1028D00081F0C3D0B1E00895C0C0672F782F88275A
:1028E000B85F39F0B93FCCF3869577956795B39586
:1028F000D9F73EF490958095709561957F4F8F4FF5
:102900009F4F0895E89409C097FB3EF490958095F9
:10291000709561957F4F8F4F9F4F9923A9F0F92FA5
:1029200096E9BB279395F695879577956795B79523
:10293000F111F8CFFAF4BB0F11F460FF1BC06F5F09
:102940007F4F8F4F9F4F16C0882311F096E911C01B
:10295000772321F09EE8872F762F05C0662371F03C
:1029600096E8862F70E060E02AF09A95660F771F50
:10297000881FDAF7880F9695879597F90895990F2C
:102980000008550FAA0BE0E8FEEF16161706E80739
:10299000F907C0F012161306E407F50798F0621B5A
:1029A000730B840B950B39F40A2661F0232B242B2F
:1029B000252B21F408950A2609F4A140A6958FEF4E
:1029C000811D811D089597F99F6780E870E060E0A0
:1029D00008959FEF80EC089500240A9416161706B8
:1029E00018060906089500240A9412161306140600
:1029F00005060895092E0394000C11F4882352F063
:102A0000BB0F40F4BF2B11F460FF04C06F5F7F4F1A
:102A10008F4F9F4F089557FD9058440F551F59F001
:102A20005F3F71F04795880F97FB991F61F09F3FBB
:102A300079F087950895121613061406551FF2CFE4
:102A40004695F1DF08C0161617061806991FF1CF34
:102A500086957105610508940895E894BB2766275B
:102A60007727CB0197F908958ADF08F48FEF08954F
:102A70000BD0C0CFB1DF28F0B6DF18F0952309F0F6
:102A8000A2CFA7CF1124EACFC6DFA0F3959FD1F341
:102A9000950F50E0551F629FF001729FBB27F00D0C
:102AA000B11D639FAA27F00DB11DAA1F649F662761
:102AB000B00DA11D661F829F2227B00DA11D621FB0
:102AC000739FB00DA11D621F839FA00D611D221F6A
:102AD000749F3327A00D611D231F849F600D211D4E
:102AE000822F762F6A2F11249F5750408AF0E1F0F1
:102AF00088234AF0EE0FFF1FBB1F661F771F881F3A
:102B000091505040A9F79E3F510570F05CCFA6CF81
:102B10005F3FECF3983EDCF3869577956795B79524
:102B2000F795E7959F5FC1F7FE2B880F911D96954E
:102B3000879597F9089523DF880B990B089597FBE4
:102B4000072E16F4009407D077FD09D00E94DB15FC
:102B500007FC05D03EF4909581959F4F08957095A0
:102B600061957F4F0895A1E21A2EAA1BBB1BFD01A0
:102B70000DC0AA1FBB1FEE1FFF1FA217B307E4075C
:102B8000F50720F0A21BB30BE40BF50B661F771FB4
:102B9000881F991F1A9469F7609570958095909594
:102BA0009B01AC01BD01CF010895EE0FFF1F059001
:102BB000F491E02D0994AA1BBB1B51E107C0AA1F89
:102BC000BB1FA617B70710F0A61BB70B881F991FCE
:102BD0005A95A9F780959095BC01CD010895FC0107
:102BE00088279927E89421912032E9F3293010F0C1
:102BF0002E30C8F32B3241F02D3239F4689404C0E2
:102C00000E941816820F911D219120532A30C0F383
:102C10001EF4909581959F4F0895FC018191861730
:102C200021F08823D9F7992708953197CF01089586
:102C30007AE0979F902D879F802D910D1124089504
:042C4000F894FFCF36
:102C44000100E10000000000000101436F6E6563B4
:102C54007461646F0A004252444420004257524453
:102C64002000425244412000425752412000425425
:102C7400454D2000424C434420005E00BC007701D7
:102C8400000000009D0BE40BC70BD70BB30BC40B68
:102C94006E616E00696E66006F7666002E0000003D
:0C2CA40000003D12910CB0121E136613CC
:00000001FF
