:100000000C94C4010C94EC010C94EC010C94EC01E4
:100010000C94EC010C94EC010C94EC010C94EC01AC
:100020000C94EC010C94EC010C94E22D0C94AE2C8D
:100030000C94EC010C94EC010C94EC010C94EC018C
:100040000C94EC010C94EC010C94EC010C94EC017C
:100050000C94EC010C94EC010C94EC010C940B2628
:100060000C94EC010C94EC010C94EC010C94EC015C
:100070000C94EC010C94EC010C94EC010C94EC014C
:100080000C94EC010C94EC010C94EC010C94EC013C
:100090000C94EC010C94EC010C94EC010C94EC012C
:1000A0000C94EC010C94EC010C94EC011A271D2724
:1000B0000C27102716273E273E273E2721272527D6
:1000C00029272F2733273E273927446F6E6500469F
:1000D000696C657320666F756E6420696E20616C53
:1000E0006C20646972733A0046696C657320666FB0
:1000F000756E6420696E20726F6F743A006F706560
:100100006E526F6F74206661696C656400566F6C27
:10011000756D652069732046415400766F6C2E69B9
:100120006E6974206661696C656421006361726444
:100130002E696E6974206661696C6564210046727F
:1001400065652052414D3A20005344206572726F1C
:10015000723A20006572726F723A20007C3C3E5EFB
:100160002B3D3F2F5B5D3B2C2A225C0062616420AB
:10017000646972000000000200090F00000304011E
:10018000000C000000000000000000000000000063
:100190000000040802011040804010204080408090
:1001A000080204018040201002011080102040400D
:1001B000040404040403040502020202040302020C
:1001C00002020606060606060404020202040000F5
:1001D0000000250028002B002E0031000000000048
:1001E000240027002A002D003000080B0002020224
:1001F00001000904000001020200000524001001B2
:100200000524010101042402060524060001070556
:10021000810310004009040100020A0000000705E4
:1002200002024000000705830240000000C18081F7
:10023000C11201000202000040412336800001018A
:10024000020001120100020000004041233680003C
:10025000010102000141726475696E6F204C4C43CC
:100260000041726475696E6F204C656F6E617264D7
:100270006F000403090400000000000000002A2BA6
:100280002800000000000000000000000000000046
:100290000000000000002C9EB4A0A1A2A434A6A7D8
:1002A000A5AE362D3738271E1F20212223242526D0
:1002B000B333B62EB7B89F8485868788898A8B8C9E
:1002C0008D8E8F909192939495969798999A9B9CE6
:1002D0009D2F3130A3AD350405060708090A0B0C24
:1002E0000D0E0F101112131415161718191A1B1CC6
:1002F0001DAFB1B0B5000904020001030000000900
:100300002101010001226500070584034000010569
:10031000010902A1010901A10085010509190129AD
:10032000031500250195037501810295017505816D
:100330000305010930093109381581257F750895B4
:10034000038106C0C005010906A101850205071940
:10035000E029E715002501750195088102950175D1
:1003600008810395067508150025650507190029FC
:10037000658100C017026315BC150B1AEE1B881DA2
:100380005E1F7128F9288C2F11241FBECFEFDAE0F1
:10039000DEBFCDBF13E0A0E0B1E0EAE1F0E602C0CD
:1003A00005900D92A633B107D9F726E0A6E3B3E096
:1003B00001C01D92AF36B207E1F713E0C8E8D3E001
:1003C00004C02297FE010E94BD2FC437D107C9F790
:1003D0000E9409290C940B300C940000EC0184E578
:1003E00091E00E94F610CE010E94FD1080918D03D5
:1003F000811101C0FFCF89E491E00E94F610609165
:100400008D0370E040E150E08FEF95E00E94612A9B
:100410006CE28FEF95E00E947F2960918F0370E07E
:1004200040E150E08FEF95E00E94692AE3CF0F93FF
:1004300000E020E040E060E087E993E00E94D228FD
:1004400060E570E081E993E00E94531C89E18093AC
:100450008D0310929003109285031092580310920E
:100460005A0310925703109256038FEB92E0909329
:1004700055038093540310923A0310923C03109258
:1004800039031092380390933703809336030F910A
:100490000895CF93DF9300D000D000D0CDB7DEB762
:1004A00040E058EE63E070E08FEF95E00E946B282B
:1004B0008EE391E00E94F6100E94BC104AE050E0EA
:1004C000BC018FEF95E00E94692A61E08AE00E94FA
:1004D0003F2761E08AE00E94782742E060911E0198
:1004E0008CE893E00E941905811103C08CE291E031
:1004F00014C041E06CE873E082E793E00E94561478
:1005000081110DC040E06CE873E082E793E00E9447
:100510005614811104C08BE191E00E94EE018DE040
:1005200091E00E94F6104AE050E0609185038FEF61
:1005300095E00E94952A8FEF95E00E94862962E758
:1005400073E088E593E00E94A709811103C08DEF55
:1005500090E0E3CF88EE90E00E94FD1063E088E534
:1005600093E00E94B4108FEF95E00E9486298FECF3
:1005700090E00E94FD1064E088E593E00E94B410D2
:100580008FEF95E00E9486298AEC90E00E94FD1092
:1005900064E171E0CE0101960E94DE28AE014F5F5A
:1005A0005F4F68E171E08CEB95E00E94BD1981E935
:1005B00093E00E940F1C26960FB6F894DEBF0FBE84
:1005C000CDBFDF91CF9108950F931F93CF93DF930A
:1005D000CDB7DEB7C157D1090FB6F894DEBF0FBE55
:1005E000CDBF61E973E0CE018B599F4F0E94171D6B
:1005F000CE018B599F4F0E94391A882309F40DC1EF
:1006000000E010E0CE018B599F4F0E94CA1B882347
:1006100009F4F8C0CE018B599F4F0E94661A892BAE
:1006200089F3CE018B599F4F0E946F1AE1E0F0E0F1
:10063000EC0FFD1FE00FF11F8A3059F08D3049F0AB
:1006400080830F5F1F4F04361105E4F203E610E0CC
:10065000D9CF1082BE016F5F7F4F8FEF95E00E9470
:10066000AC296DE271E0CE0101960E94F12F892B39
:1006700019F400E010E002C00AE011E064E371E068
:10068000CE0101960E94F12F892BE9F00115110589
:1006900019F48E010A5F1F4F6AE371E0CE010196E3
:1006A0000E94F12FFC011082B8018FEF95E00E94AB
:1006B000AC2921E0A80168E573E08AE393E00E9499
:1006C0005D0C81111BC060E471E0CE018B599F4F1E
:1006D0000E94AC2967E571E0CE018B599F4F0E94C3
:1006E000AC29CE018B599F4F0E9486296FE671E09D
:1006F000CE018B599F4F0E94AC2984C068E871E0FD
:100700008FEF95E00E94AC2960E971E0CE018B5932
:100710009F4F0E94AC2960EA71E0C8010E94F12F4E
:10072000892B19F067E571E052C065EA71E0C801F4
:100730000E94F12F892B19F06AEA71E048C061EC40
:1007400071E0C8010E94F12F892B19F066EC71E06D
:100750003EC06EED71E0C8010E94F12F892B19F0A7
:1007600063EE71E034C06CEF71E0C8010E94F12FBC
:10077000892B19F061E072E02AC069E172E0C801DA
:100780000E94F12F892B19F06EE172E020C067E31F
:1007900072E0C8010E94F12F892B19F06CE372E01E
:1007A00016C06AE572E0C8010E94F12F892B19F08A
:1007B0006EE572E00CC065E872E0C8010E94F12F9E
:1007C000892B19F06AE872E002C068EA72E0CE0193
:1007D0008B599F4F0E94AC29CE018B599F4F0E948D
:1007E00086298AE393E00E94530897FD07C0682F8B
:1007F000CE018B599F4F0E94231AF3CF8AE393E0D7
:100800000E943B0A61E070E080E090E00E94842654
:10081000CE018B599F4F0E94891BCF58DF4F0FB6D7
:10082000F894DEBF0FBECDBFDF91CF911F910F9126
:100830000895CF93CFB7F8948091A003811116C08B
:1008400061E081E10E94782761E081E10E943F2719
:100850008CB580618CBD8CB580648CBD61E08FE00F
:100860000E943F2761E080E10E943F278091A00322
:100870008F5F8093A003CFBFCF9108958FEF8EBD80
:100880000DB407FEFDCF8EB508958EBD0DB407FEE5
:10089000FDCF089561E0FC0180810E9478278FEFF1
:1008A0000C944504CF93DF93EC016A8181EA93E0D5
:1008B0000E94341160E08881DF91CF910C947827F9
:1008C000CF92DF92EF92FF920F931F93CF93DF931C
:1008D000EC018B017A010E9455266B010E943E04B7
:1008E0008B838F3F49F40E9455266C197D096D3228
:1008F0007140A0F381E103C08E3F39F08FE089831E
:10090000CE010E944A0480E028C0E114F104E1F025
:1009100081E0E81AF1088FEF8EBDF8012FEFCF01CB
:10092000801B910B8E159F0538F40DB407FEFDCF8B
:100930008EB52EBD8193F3CF0DB407FEFDCF8EB5DE
:10094000F801EE0DFF1D80831B820E943E040E9471
:100950003E04CE010E944A0481E0DF91CF911F91B5
:100960000F91FF90EF90DF90CF9008950F931F931A
:10097000CF93DF93EB010E9455268B010E943E042A
:100980008F3F49F00E945526601B710B6C177D0745
:10099000A8F380E001C081E0DF91CF911F910F911A
:1009A0000895FF920F931F93CF93DF9300D000D051
:1009B000CDB7DEB78C01F62E29833A834B835C8357
:1009C0000E94520468E572E0C8010E94B6048F2DAF
:1009D00080640E9445048C810E9445048B810E94A2
:1009E00045048A810E94450489810E944504F110D2
:1009F00002C085E901C087E80E9445048CE0F81236
:100A000002C00E943E04F12C0E943E04F801838340
:100A100087FF05C0FFEFFF1611F0F394F5CF0F909D
:100A20000F900F900F90DF91CF911F910F91FF903A
:100A30000895BF92CF92DF92EF92FF920F931F9390
:100A4000CF93DF93EC01B42E1C82198268830E943D
:100A500055268B0161E088810E943F2761E08881F3
:100A60000E94782781EA93E00E94201180E48A8323
:100A700060E481EA93E00E9434112AE0F22E8FEFC5
:100A80000E944504FA94D9F720E030E0A90160E023
:100A9000CE010E94D104813049F00E945526601B8E
:100AA000710B613D774080F381E051C02AEA31E06B
:100AB00040E050E068E0CE010E94D104853011F49E
:100AC00081E00AC094E0F92E0E943E048B83FA94E0
:100AD000D9F78A3A59F482E08C838C81823079F498
:100AE000C12CD12CE12C80E4F82E0CC00E9455269C
:100AF000601B710B613D7740C8F282E028C0C12CB9
:100B0000D12C760120E030E0A90167E3CE010E94FC
:100B1000D104A701960169E2CE010E94D104882385
:100B200049F00E945526601B710B613D774050F3E0
:100B30008AE00DC08C818230E9F420E030E0A90128
:100B40006AE3CE010E94D104882339F088E08983CA
:100B5000CE010E944A0480E012C00E943E04807CC4
:100B6000803C11F483E08C830E943E040E943E048A
:100B70000E943E04CE010E944A04BA8281E0DF91C5
:100B8000CF911F910F91FF90EF90DF90CF90BF908A
:100B900008950F931F93CF93DF93EC0189018C810C
:100BA000833039F039E0440F551F661F771F3A959F
:100BB000D1F79A01AB0161E1CE010E94D10481110C
:100BC0000AC040E052E0B801CE01DF91CF911F9101
:100BD0000F910C94600484E08983CE010E944A0442
:100BE00080E0DF91CF911F910F9108950F931F9394
:100BF000CF93DF93EC01862F8A010E944504F80110
:100C000080818EBD818122E030E00DB407FEFDCFF2
:100C10008EBD2115F2E03F0739F0F801E20FF31F16
:100C200080812F5F3F4FF1CF0DB407FEFDCF8FEFD7
:100C30000E9445048FEF0E9445040E943E048B836E
:100C40008F71853039F083E18983CE010E944A0497
:100C500080E001C081E0DF91CF911F910F91089555
:100C60000F931F93CF93DF93EC0189018C81833025
:100C700039F089E0440F551F661F771F8A95D1F719
:100C80009A01AB0168E1CE010E94D104882319F0DA
:100C900086E089830CC0A8016EEFCE010E94F605A4
:100CA000182F882321F0CE010E944A0404C0CE01EF
:100CB0000E944A0410E0812FDF91CF911F910F9184
:100CC0000895CF93DF93EC019C012A5F3F4F41E0F1
:100CD00050E060E070E08C819D810E94F3128823D7
:100CE00099F04E895F89688D798D452B462B472B6E
:100CF00059F44E815F81688579854E8B5F8B688F53
:100D0000798F998190689983DF91CF910895BF92EF
:100D1000CF92DF92EF92FF920F931F93CF93DF93C7
:100D2000EC018A899B89AC89BD89803E9F4FAF4188
:100D3000B105A8F4CE010E946106882381F04E819E
:100D40005F81688579858C819D810E94EF116B019F
:100D50007C0145E00E949B118C01009719F480E012
:100D600090E037C080E092E0F8019C0111922150A0
:100D70003040E1F7BB24B394EC81FD818481B81647
:100D800088F49801B701A6014B0D511D611D711D1D
:100D90008091A4039091A5030E9430068823F9F264
:100DA000B394EACF90E0A0E0B0E029E0880F991F6B
:100DB000AA1FBB1F2A95D1F74A895B896C897D8957
:100DC000480F591F6A1F7B1F4A8B5B8B6C8B7D8B77
:100DD000C801DF91CF911F910F91FF90EF90DF90AD
:100DE000CF90BF900895CF93DF93EC01462F6E858F
:100DF0007F85888999890E949B11009739F02B8102
:100E000030E2239F800D911D112402C080E090E00C
:100E1000DF91CF910895FB012BE030E23193215017
:100E2000E9F7DC0190E027E03A2FEB2F8D9181115B
:100E30000AC0DA013C931196EC9381E0FB019081AA
:100E4000903239F525C08F32A1F38E3219F0ECE5DE
:100E5000F1E008C02A30E1F098E02AE0E5CF3196D1
:100E60003817B1F034913111FACF291788F03FEDDE
:100E7000380F3E3568F431E0390FFB01E90FF11D01
:100E80009FE9980F9A3108F480528083932FCCCF3A
:100E900080E008952F923F924F925F926F927F92DF
:100EA0008F929F92AF92BF92CF92DF92EF92FF927A
:100EB0000F931F93CF93DF9300D000D0CDB7DEB751
:100EC0009C838B836B017A01FC018281811103C0B9
:100ED0008FEF9FEFD1C0EB81FC81818180FFF8CF44
:100EE000EB81FC8142895389648975898285938568
:100EF000A485B5854701A12CB12C8A019B01081B53
:100F0000190B2A0B3B0B80169106A206B30618F0AC
:100F10007A01E81AF90A87018B819C8106969A83E7
:100F20008983812CF2E09F2E0115110509F46AC016
:100F3000EB81FC8142855385648575855A01F1E01A
:100F4000BF22EB81FC8184819581FC0175801A01AF
:100F50002B01E9E05694479437942794EA95D1F70A
:100F6000EB81FC812281223051F4FC016689778972
:100F7000808D918D620D731D841D951D2EC0722074
:100F8000A114B104E1F471101AC0EB81FC81452B6E
:100F9000462B472B49F486899789A08DB18D86838E
:100FA0009783A087B1870BC0468157816085718583
:100FB00029813A810E940712882309F489CFEB81A5
:100FC000FC814681578160857185848195810E946D
:100FD000EF11670D711D811D911DA114B104A1F4C4
:100FE0000115F2E01F0780F04090A7035090A8037E
:100FF0006090A9037090AA0364157505860597058E
:10100000C9F402C0C70138C094012A193B0938014C
:101010002017310708F4390140E00E949B11009726
:1010200009F456CFBC016A0D7B1DA301C6010E94C5
:10103000E82F0FC09601AB01BC018091A4039091F1
:10104000A5030E94C905882309F442CF612C32E030
:10105000732EC60CD71CEB81FC8182859385A485F9
:10106000B585860D971DA11DB11D82879387A48725
:10107000B5870619170958CF0F900F900F900F9052
:10108000DF91CF911F910F91FF90EF90DF90CF9064
:10109000BF90AF909F908F907F906F905F904F9098
:1010A0003F902F900895CF93DF931F92CDB7DEB777
:1010B00041E050E0BE016F5F7F4F0E944A070197F9
:1010C00019F4898190E002C08FEF9FEF0F90DF91BC
:1010D000CF9108951F93CF93DF93EC018A818230E3
:1010E00018F480E090E024C04A855B856C857D859E
:1010F000B5E07695679557954795BA95D1F7142F32
:101100001F70CE010E94530897FDEBCF4A855B8587
:101110006C857D85415E5F4F6F4F7F4F4A875B8750
:101120006C877D8720E2129FC001112485559C4F5A
:10113000DF91CF911F9108954F925F926F927F92AE
:10114000AF92BF92CF92DF92EF92FF920F931F93D5
:10115000CF93DF93EC016A017B012A81222349F0BE
:101160008A899B89AC89BD8984179507A607B7072B
:1011700010F480E06CC0223009F464C0C114D104C2
:10118000E104F10449F41E821F82188619861A862A
:101190001B861C861D865AC08A859B85AC85BD85AD
:1011A000EC81FD81E285F0E03996AC01BD01415052
:1011B0005109610971090E2E04C0769567955795FE
:1011C00047950A94D2F79701860101501109210928
:1011D000310904C03695279517950795EA95D2F7FA
:1011E000041715072607370720F0892B8A2B8B2B2E
:1011F00049F48E899F89A88DB98D8E839F83A88796
:10120000B98704C0041B150B260B370B28013901C5
:101210005E0186E0A80EB11C411451046104710402
:1012200089F04E815F816885798595018C819D81EA
:101230000E94071291E0491A510861087108811152
:10124000EBCF05C0CA86DB86EC86FD8681E0DF91A8
:10125000CF911F910F91FF90EF90DF90CF90BF90B3
:10126000AF907F906F905F904F900895AF92BF9234
:10127000CF92DF92EF92FF920F931F93CF93DF9362
:1012800000D000D0CDB7DEB78C01FC0186899789EC
:10129000A08DB18D89839A83AB83BC83A12CB12CA3
:1012A00049815A816B817C819E012F5F3F4FD8011C
:1012B00014968D919C9115970E9407128823C1F175
:1012C000D8011496ED91FC9115978481A80EB11C5C
:1012D000A114B0E1BB0658F5C980DA80EB80FC8030
:1012E0008389803149F481E0E8EFCE16EFEFDE0626
:1012F000E104F10450F4D4CF81E0F8EFCF16FFEF12
:10130000DF06EF06FFE0FF0658F2A50160E070E09F
:1013100099E0440F551F661F771F9A95D1F7D801A2
:1013200052964D935D936D937C93559701C080E0E9
:101330000F900F900F900F90DF91CF911F910F9111
:10134000FF90EF90DF90CF90BF90AF900895CF9334
:10135000DF93EC01FB018A81882311F080E03CC01F
:101360007D836C838389803109F18032B9F783E012
:101370008A8346895789608D718D4E8B5F8B688F0C
:10138000798FCE010E943609882341F381E0898359
:101390001E821F82188619861A861B861C861D8649
:1013A0001E861F86188A198A1B8216C082E08A83CD
:1013B0001E8A1F8A188E198E4489558960E070E054
:1013C00025E0440F551F661F771F2A95D1F74A8BDA
:1013D0005B8B6C8B7D8BDACFDF91CF9108950F9370
:1013E0001F93CF93DF93EC018A818823E1F18981F8
:1013F00087FF33C061E0CE010E94F3068C010097A5
:1014000091F1FC018081853E71F18A81823040F446
:101410004A895B896C897D89448F558F668F778F68
:101420004E895F89688D798DF801538F428F758B56
:10143000648BE091A203F091A303309759F0B801B7
:101440006A5E7F4FC80148960995F801808D918D9D
:10145000938B828B89818F778983DF91CF911F91C5
:101460000F910C944C1181E0888380E0DF91CF9143
:101470001F910F910895CF93DF93EC010E94EF0924
:101480001A82DF91CF9108954F925F926F927F926F
:10149000AF92BF92CF92DF92EF92FF920F931F9382
:1014A000CF93DF9300D000D0CDB7DEB75C016A01E7
:1014B0007B01FC0182818130F1F4818181FF1BC0BD
:1014C000F50182899389A489B58984179507A607B0
:1014D000B70788F0892B8A2B8B2B09F479C0F5018B
:1014E0004284538464847584B701A601C5010E94B7
:1014F0009C08811102C080E06CC0F5018481958157
:10150000C114D104E104F10471F446895789608D56
:10151000718D0E94F813882371F3F501168A178ADA
:10152000108E118E3AC0F501468157816085718514
:101530009E012F5F3F4F0E9407128823E1F24981ED
:101540005A816B817C81F50184819581FC0123891D
:10155000203139F4483FFFEF5F0761057105E8F47A
:1015600007C0483F2FEF520762072FE07207A8F429
:101570000E94F813882309F4BECFF50146815781F4
:10158000608571850FEF1FEF2FEF3FE0848195811C
:101590000E948012882309F4AECFF501C28AD38A53
:1015A000E48AF58A818180688183C5010E94EF0900
:1015B000882309F4A0CFB701A6014C145D046E0482
:1015C0007F0410F4B301A201C5010E949C0801C070
:1015D00081E00F900F900F900F90DF91CF911F91AE
:1015E0000F91FF90EF90DF90CF90BF90AF907F90E2
:1015F0006F905F904F900895BF92CF92DF92EF92DD
:10160000FF920F931F93CF93DF93EC01B42E80E2F0
:10161000689FF0011124E555FC4F8385817121F00D
:10162000842F827109F04BC08091A7039091A80389
:10163000A091A903B091AA038E879F87A88BB98B2D
:101640006B830489158920E030E098011127002779
:10165000C28CD38CE12CF12C0C291D292E293F2979
:101660000E8B1F8B288F398F8385887151F4048DE1
:10167000158D268D378D0A8B1B8B2C8B3D8B81E036
:1016800008C08031E1F4CE010E9436098823B9F008
:1016900084E08A838B2D8F7089831E821F82188637
:1016A00019861A861B861C861D86B4FE0BC040E078
:1016B00050E0BA01CE010E94440A811103C01A828F
:1016C00080E013C0B5FE10C04A895B896C897D89B2
:1016D000CE01DF91CF911F910F91FF90EF90DF909E
:1016E000CF90BF900C949C0881E0DF91CF911F9127
:1016F0000F91FF90EF90DF90CF90BF9008955F9291
:101700006F927F928F929F92AF92BF92CF92DF9211
:10171000EF92FF920F931F93CF93DF937C01EB0126
:101720006A01622E8C819D81F7019583848340E05C
:1017300050E0BA01CE010E949C08712C4A855B855D
:101740006C857D858A899B89AC89BD894817590735
:101750006A077B0708F056C0CE010E94530897FD28
:101760009BC00A851B852C853D8501501E4F2F4F40
:101770003F4F0A871B872C873D878090A703909057
:10178000A803A090A903B090AA030BEA13E0512C80
:10179000F8018081882311F0853E79F4711006C02C
:1017A000F70186869786A08AB18A5382F8018081E4
:1017B00077247394811109C025C04BE050E0B80133
:1017C000C6010E94DB2F892B39F05394005E1F4F16
:1017D000F0E15F12DDCFB2CF67FC5EC0462D652D14
:1017E000C701DF91CF911F910F91FF90EF90DF9094
:1017F000CF90BF90AF909F908F907F906F905F90B1
:101800000C94FC0A862D8274823409F045C077203E
:1018100051F0F701538061E0C7010E94F306EC012B
:10182000009759F439C08A818230B1F1CE010E940B
:101830008706009789F1EC01512C80E2FE0111929C
:101840008A95E9F78BE0F601DE0101900D928A9509
:10185000E1F7E091A203F091A303309739F0BE01C4
:10186000625F7F4FCE014096099508C081E298E201
:10187000998B888B80E098E09F878E8788899989EB
:101880009B8B8A8B998F888F8E859F859F8B8E8B64
:101890000E944C118111A2CF80E0DF91CF911F9166
:1018A0000F91FF90EF90DF90CF90BF90AF909F90FF
:1018B0008F907F906F905F9008953F924F925F92CC
:1018C0006F927F928F929F92AF92BF92CF92DF9250
:1018D000EF92FF920F931F93CF93DF93CDB7DEB7B5
:1018E000C154D1090FB6F894DEBF0FBECDBF5C0165
:1018F0006B0122965FAF4EAF2297522E1B8E1D8E2C
:1019000019821B826115710511F480E07FC0FC0112
:1019100082818111FACF2296EEADFFAD22978081B0
:101920008F3211F0760126C02296EEADFFAD2297E0
:1019300080818F3231F431962296FFAFEEAF22973D
:10194000F3CFF601811106C064817581C5010E9443
:10195000A7095CC082818250823020F3F601648145
:101960007581CE0101960E94A709882371F2CE01EC
:1019700001967C018E01055E1F4F3801FE013196F4
:101980004F01402E312E1BC08823C1F121E0AE0152
:101990004B5C5F4FB701C8010E947F0B882309F49D
:1019A000B4CFEC14FD0419F0C7010E943B0A0615E0
:1019B000170509F1942D832D7801092F182FAE01F9
:1019C000405C5F4FBE016B5C7F4F22968EAD9FAD3A
:1019D00022970E940B07882309F497CF2296EEAD39
:1019E000FFAD229780818F3279F631962296FFAF34
:1019F000EEAF2297F3CF982D892DDECF252DAE01A6
:101A00004B5C5F4FB701C5010E947F0BCF5BDF4F7F
:101A10000FB6F894DEBF0FBECDBFDF91CF911F91FF
:101A20000F91FF90EF90DF90CF90BF90AF909F907D
:101A30008F907F906F905F904F903F900895DF92CE
:101A4000EF92FF920F931F93CF93DF938C01EB01E3
:101A50007A01D22E8C819D81F801958384838281C5
:101A600081112BC0209749F127FD27C0A701B5E0C0
:101A7000440F551FBA95E1F760E070E0CE010E9477
:101A80009C088823D1F0CE010E946A080097A9F033
:101A9000FC018081882389F0853E79F08E3269F0DF
:101AA0006E2D6F704D2DC801DF91CF911F910F9159
:101AB000FF90EF90DF900C94FC0A80E0DF91CF91D3
:101AC0001F910F91FF90EF90DF9008952F923F921A
:101AD0004F925F926F927F928F929F92AF92BF923E
:101AE000CF92DF92EF92FF920F931F93CF93DF93EA
:101AF000CDB7DEB762970FB6F894DEBF0FBECDBF8D
:101B00008C014B015A01FC0182818130C1F4818139
:101B100081FF15C082FF19C0F80142895389648989
:101B2000758982859385A485B58584179507A60751
:101B3000B70759F0C8010E949C08811106C081E0D6
:101B4000F80180838FEF9FEF2BC1A50160E070E06B
:101B5000F80182859385A485B58580959095A0959B
:101B6000B09584179507A607B70748F36501212CA0
:101B700032E0332E71C0F80184819581B301A20156
:101B800029E076956795579547952A95D1F7FC01F9
:101B9000F580F422920131703A8B298BFF2009F4F1
:101BA00065C0F80146815781608571858481958182
:101BB0000E94EF116F0D711D811D911D49885A887A
:101BC000452809F097C0C11422E0D20608F099C058
:101BD000F80142845384648475844D825E826F82EE
:101BE000788642885388648875882D813E814F812C
:101BF0005885241535054605570508F47BC045E092
:101C00000E949B11009709F49ACF310149885A88A4
:101C10006418750876016C147D0408F47301A7013B
:101C2000B40149885A88840D951D0E94E82FE61456
:101C3000F70409F461C0F80182859385A485B58510
:101C40008E0D9F1DA11DB11D82879387A487B58727
:101C50008E0C9F1CCE18DF08F801428453846484E4
:101C60007584C114D10409F086CF72C0232B09F00A
:101C700098CFF801468157816085718541155105DE
:101C80006105710511F19E012F5F3F4F0E94071200
:101C9000882309F454CF89819A81AB81BC81F801F2
:101CA00024813581F9012389203139F4883FFFEF00
:101CB0009F07A105B10590F417C0883F2FEF920749
:101CC000A2072FE0B20780F009C0F8018689978942
:101CD000A08DB18D0097A105B10531F4C8010E9416
:101CE000610681115ECF2BCFF80186839783A08791
:101CF000B18757CF41E084CF0E94DF1181119BCF84
:101D00001ECF4090A7035090A8036090A903709045
:101D1000AA03461657066806790651F469877A873A
:101D20008B879C870E94E1119C858B857A856985CC
:101D30009401AB01BC018091A4039091A5030E9482
:101D40003006882309F4FBCEE12C82E0F82E73CF15
:101D500082899389A489B589218184159505A60571
:101D6000B70530F4428A538A648A758A20680BC0AA
:101D70008091A2039091A303892B31F0A114B104A7
:101D800019F02068F8012183F801818183FD02C0E8
:101D9000C50106C0C8010E94EF098111F9CFCFCE5D
:101DA00062960FB6F894DEBF0FBECDBFDF91CF9124
:101DB0001F910F91FF90EF90DF90CF90BF90AF9069
:101DC0009F908F907F906F905F904F903F902F905B
:101DD00008951F93CF93DF93EC01162F6A3038F4E8
:101DE000E881F9810190F081E02D60E309954AE0F6
:101DF00050E0612FCE01DF91CF911F910C948E2A7C
:101E00000F931F93CF93DF93EC018B01672F7727FD
:101E100066956454784F4AE050E0CE010E94AC2AA7
:101E2000E881F9810190F081E02D6DE2CE01099504
:101E3000B80195E0769567959A95E1F76F70CE01B8
:101E40000E94E90EE881F9810190F081E02D6DE2B8
:101E5000CE010995602F6F71CE01DF91CF911F9157
:101E60000F910C94E90E0F931F93CF93DF93EC0126
:101E70008B01612F6695669566950E94E90EE88153
:101E8000F9810190F081E02D6AE3CE010995B80156
:101E900025E0769567952A95E1F76F73CE010E944C
:101EA000E90EE881F9810190F081E02D6AE3CE012D
:101EB0000995602F6F71660FCE01DF91CF911F9151
:101EC0000F910C94E90EBF92CF92DF92EF92FF92A6
:101ED0000F931F93CF93DF93CDB7DEB7A0970FB6C5
:101EE000F894DEBF0FBECDBF7C018B01D42EC22E75
:101EF00040E250E0BE016F5F7F4FC7010E944A077A
:101F0000809709F08DC08981882309F489C0853EB6
:101F100079F38E3269F38C8583FDEACFF12CFC14C2
:101F200059F0D801ED91FC910190F081E02D60E233
:101F3000C8010995F394F3CFFE0131967F01B12CCE
:101F4000C12CD7018C918032C1F0B8E0BB120AC01D
:101F5000D801ED91FC910190F081E02D6EE2C80175
:101F60000995C394D801ED91FC910190F081E02D89
:101F7000D7016C91C8010995C394B394BFEFEB1AD4
:101F8000FB0AEBE0BE12DDCF8C858871803151F405
:101F9000D801ED91FC910190F081E02D6FE2C80134
:101FA0000995C3948D2D8370F9F4D0FE2BC0D80110
:101FB000ED91FC910190F081E02D60E2C80109955E
:101FC000698D7A8DC8010E94000FD801ED91FC91B6
:101FD0000190F081E02D60E2C80109956F89788D4C
:101FE000C8010E94330F0EC0BDE0BC15F0F2D8014D
:101FF000ED91FC910190F081E02D60E2C80109951E
:10200000C394F2CF8C858871803111F0D1FC0CC063
:10201000C8010E9486298C85887121F481E017C04F
:1020200080E015C082E013C0D801ED91FC910190D1
:10203000F081E02D60E2C80109954D8D5E8D6F8DB8
:1020400078A12AE030E0C8010E94812AE1CFA09661
:102050000FB6F894DEBF0FBECDBFDF91CF911F91B9
:102060000F91FF90EF90DF90CF90BF9008956F9207
:102070007F928F929F92AF92BF92CF92DF92EF9218
:10208000FF920F931F93CF93DF93CDB7DEB76A977D
:102090000FB6F894DEBF0FBECDBF8C015B01942E4E
:1020A000822EFC018281823030F46CE671E0C50141
:1020B0000E949A2944C040E050E0BA01C8010E9441
:1020C0009C08F92DF4707F2E52E0652E680C282DA7
:1020D000492DB501C8010E94630F882381F1823028
:1020E000B4F37720A1F3F801C284D384E484F584A7
:1020F00045E0F694E794D794C7944A95D1F71982AE
:102100001B82A6014150510921E0B801CE01019680
:102110000E941F0D882339F0262D492DB501CE01CF
:1021200001960E94371035E0CC0CDD1C3A95E1F7A2
:10213000A60160E070E0C8010E949C08C8CF6A96C2
:102140000FB6F894DEBF0FBECDBFDF91CF911F91C8
:102150000F91FF90EF90DF90CF90BF90AF909F9046
:102160008F907F906F900895462F60911F0170911E
:10217000200120E00C943710CF93DF931F92CDB74E
:10218000DEB720916B0630916C06CE0101962115C9
:10219000310519F0821B930B02C08F5696400F90A9
:1021A000DF91CF9108950F931F93CF93DF938C010D
:1021B000EB01FE016491662351F0D801ED91FC9191
:1021C0000190F081E02DC80109952196F2CFDF91B1
:1021D000CF911F910F910895CF93DF93EC010E944F
:1021E000D310CE01DF91CF910C948629BC01809150
:1021F0001F01909120010C94D310BC0180911F010C
:10220000909120010C94EC1004960C94660DCF93E1
:10221000DF931F92CDB7DEB7698341E050E0BE0186
:102220006F5F7F4F04960E94660D21E030E00197BA
:1022300011F020E030E0C9010F90DF91CF910895B7
:1022400061E081E10E94782761E081E10E943F27FF
:1022500060E08EE00E943F2761E080E10E943F271E
:1022600061E08FE00C943F2792E080E0961728F41D
:10227000863019F0990F8F5FF9CF982F906A969555
:102280009CBD80FD06C091E0863009F490E0892F66
:1022900001C080E08DBD08950F931F93CF9380916F
:1022A000A60380FF42C04091A7035091A80360910C
:1022B000A9037091AA032BEA33E08091A4039091C3
:1022C000A5030E943006C82F811102C0C0E02EC0B5
:1022D0008091A60381FD06C08091A6038E7F809326
:1022E000A60324C08091AF058230B0F34091AB05C6
:1022F0005091AC056091AD057091AE050091A703BA
:102300001091A8032091A9033091AA03400F511FF7
:10231000621F731F2BEA33E08091A4039091A50301
:102320000E9430068111D8CFD1CFC1E08C2FCF9140
:102330001F910F910895CF92DF92EF92FF92CF936A
:102340006B017C01C42F8091A7039091A803A091F9
:10235000A903B091AA038C159D05AE05BF0509F12F
:102360000E944C11811103C080E090E022C0C2FFA6
:102370000BC01092A603C092A703D092A803E092CC
:10238000A903F092AA030DC02BEA33E0B701A6011E
:102390008091A4039091A5030E94C9058111E9CF02
:1023A000E3CFC3708091A6038C2B8093A6038BEAA6
:1023B00093E0CF91FF90EF90DF90CF9008950C9431
:1023C0004C118FEF9FEFDC018093A7039093A8033C
:1023D000A093A903B093AA031092A60308954250B4
:1023E000510961097109FC01028404C0440F551FA1
:1023F000661F771F0A94D2F783859485A585B685D5
:10240000480F591F6A1F7B1FCB01BA0108958F9295
:102410009F92AF92BF92CF92DF92EF92FF920F9373
:102420001F93CF93DF93EC016A017B018901423056
:1024300051056105710508F455C08E819F81A885FD
:10244000B9850196A11DB11D84179507A607B70789
:1024500008F448C08B89803129F499278F2D7E2D6F
:102460006D2D0BC08032F1F5CB01BA0147E0969596
:102470008795779567954A95D1F78F849888A9882D
:10248000BA88680D791D8A1D9B1D42E00E949B1130
:10249000009741F12B89203169F4DD24EE24FF24DB
:1024A000F601EE0FFF1FE80FF91F80819181A0E078
:1024B000B0E011C0E894C7F8DD24EE24FF24F60153
:1024C000EE0FFF1FEE0FFF1FE80FF91F80819181B4
:1024D000A281B381BF70F80180839183A283B3830B
:1024E00081E001C080E0DF91CF911F910F91FF90BB
:1024F000EF90DF90CF90BF90AF909F908F90089516
:102500008F929F92AF92BF92CF92DF92EF92FF9203
:102510000F931F93CF93DF93EC016A017B01480176
:102520005901423051056105710508F44EC04E81D4
:102530005F81688579854F5F5F4F6F4F7F4F4C1587
:102540005D056E057F0508F440C08B89803129F454
:1025500099278F2D7E2D6D2D0BC08032B1F5C701CF
:10256000B601E7E09695879577956795EA95D1F757
:102570000F85188929893A89600F711F821F931F5F
:1025800043E00E949B11009701F12B89203159F4FF
:10259000DD24EE24FF24F601EE0FFF1FE80FF91FE4
:1025A0009182808210C0E894C7F8DD24EE24FF24D5
:1025B000F601EE0FFF1FEE0FFF1FE80FF91F8082DD
:1025C0009182A282B38281E001C080E0DF91CF914D
:1025D0001F910F91FF90EF90DF90CF90BF90AF9041
:1025E0009F908F9008952F923F924F925F926F929B
:1025F0007F928F929F92AF92BF92CF92DF92EF9293
:10260000FF920F931F93CF93DF93CDB7DEB72F9732
:102610000FB6F894DEBF0FBECDBF1C014B875C87A1
:102620006D877E873A872987DC0116960D911D916B
:102630002D913C9119970F5F1F4F2F4F3F4F0D83E7
:102640001E832F833887E985FA8580809180A28058
:10265000B38081149104A104B10439F0FFEF8F1A03
:102660009F0AAF0ABF0A1F8607C0DC018D909D90AC
:10267000AD90BC9001E00F8775016401412C512C95
:102680003201F10186819781A085B18548165906EE
:102690006A067B0608F05FC00D811E812F81388598
:1026A0000C151D052E053F0550F4A2E0CA2ED12CB5
:1026B000E12CF12CB2E08B2E912CA12CB12C9E019F
:1026C0002F5F3F4FB701A601C1010E940712882367
:1026D00009F441C049815A816B817C81D701C601CF
:1026E0000196A11DB11D452B462B472B49F08C149B
:1026F0009D04AE04BF0409F01F864C015D010FC0AC
:10270000AC01BD01481959096A097B090B851C8573
:102710002D853E85401751076207730741F01FEF73
:10272000411A510A610A710A6C017D01AACF0F8515
:10273000002329F0F10180839183A283B3830FEFFB
:102740001FEF2FEF3FE0B701A601C1010E948012E9
:102750008D83811114C01D8231C026013701F1E043
:102760004F1A51086108710897018601B301A2014F
:10277000C1010E948012882371F3730162018C14DD
:102780009D04AE04BF0448F3A985BA854D915D91BF
:102790006D917C91411551056105710539F4E9850B
:1027A000FA8580829182A282B38208C09501840159
:1027B000C1010E9480128111F2CFCDCF8D812F9661
:1027C0000FB6F894DEBF0FBECDBFDF91CF911F9142
:1027D0000F91FF90EF90DF90CF90BF90AF909F90C0
:1027E0008F907F906F905F904F903F902F900895C3
:1027F000AF92BF92CF92DF92EF92FF920F931F930F
:10280000CF93DF9300D000D0CDB7DEB75C016A0173
:102810007B019E012F5F3F4FB701A601C5010E94BA
:102820000712811102C080E032C000E010E0980180
:10283000B701A601C5010E9480128823A1F3F5010A
:1028400080819181A281B381C816D906EA06FB0670
:1028500020F4C082D182E282F382C980DA80EB80E8
:10286000FC80F5018389803149F481E0F8EFCF16CF
:10287000FFEFDF06E104F10450F4CBCF81E098EFE5
:10288000C9169FEFD906E9069FE0F90610F20F90EE
:102890000F900F900F90DF91CF911F910F91FF90AC
:1028A000EF90DF90CF90BF90AF9008958F929F925E
:1028B000AF92BF92CF92DF92EF92FF920F931F934E
:1028C000CF93DF93EC01142F7093A5036093A403BF
:1028D0001B8A82E090E0A0E0B0E088839983AA831D
:1028E000BB831092A6038FEF9FEFDC018093A703B9
:1028F0009093A803A093A903B093AA03442311F1D2
:10290000453008F0BFC040E060E070E0CB010E94BD
:102910009B11009709F4B6C0FC0120E1129FE00D65
:10292000F11D1124E255FE4F80818F7709F0AAC076
:10293000C084D184E284F384C114D104E104F1049D
:1029400021F4A0C0C12CD12C760140E0C701B60112
:102950000E949B11FC01009709F494C08385948523
:102960008115924009F08EC02089222309F48AC083
:1029700086859785892B09F485C02093AF05358519
:102980003C838FEF830F8D831A8688E090E021E0EF
:10299000321741F0220F019709F474C04A854F5F46
:1029A0004A87F6CF268937892115310519F040E08D
:1029B00050E004C024A135A146A157A12093AB0546
:1029C0003093AC054093AD055093AE058685978551
:1029D00046015701880E991EA11CB11C8F86988A4A
:1029E000A98ABA8A018912891D8B0C8BA089B0E053
:1029F0000E94C12F680D791D8A1D9B1D6E8B7F8BD8
:102A0000888F998F25E0000F111F2A95E1F701505B
:102A10001E4F012F11270695DC01CB01800F911F5E
:102A2000A11DB11D8B879C87AD87BE870389148943
:102A30000115110519F020E030E004C000A111A13A
:102A400022A133A1B701A601481B590B6A0B7B0BCE
:102A5000DB01CA01800F911FA21FB31F0A8404C0AB
:102A6000B695A795979587950A94D2F78E839F83FD
:102A7000A887B987853F5FE09507A105B10520F4D8
:102A80008CE08B8B80E012C0853F9F4FA105B10584
:102A900010F480E109C084A595A5A6A5B7A58E8BE5
:102AA0009F8BA88FB98F80E28B8B81E0DF91CF91D4
:102AB0001F910F91FF90EF90DF90CF90BF90AF905C
:102AC0009F908F9008950F9300E020E040E060E039
:102AD00080EB95E00E94D2280F910895FB0142817E
:102AE000538164817581FC014283538364837583C0
:102AF000178216820895CF93FB0181918111FDCF3A
:102B0000FB0180E090E020E030E0CAE061916623C4
:102B100009F12430310564F56E3271F48F3F91056F
:102B200009F034F5DA01A20FB31F12968C932F5FD0
:102B30003F4F80E090E0EACFDC01CA9FC001CB9F0D
:102B4000900D1124772767FD709560537109860FEA
:102B5000971FDCCF8F3F910509F054F424303105E5
:102B60003CF4FA01E20FF31F828381E090E002C09F
:102B700080E090E0CF9108950F9300E020E040E0E6
:102B800060E086EB95E00E94D2280F910895AF9205
:102B9000BF92CF92DF92EF92FF920F931F93CF934A
:102BA000DF9300D01F92CDB7DEB76C017B010E948E
:102BB0005526F601778366838601085F1F4FB601AD
:102BC0006A5F7F4F42E050E0C8010E94FB1D81E038
:102BD00090E09A83898342E050E0BE016F5F7F4FAF
:102BE000C8010E94FB1D80E091E09A83898342E046
:102BF00050E0BE016F5F7F4FC8010E94FB1D1A822B
:102C0000198242E050E0BE016F5F7F4FC8010E9411
:102C1000FB1D42E050E0BE016F5F7F4FC8010E9484
:102C2000FB1D42E050E0BE016F5F7F4FC8010E9474
:102C3000FB1D6701F6018081882311F1F7016F0107
:102C40008191811115C05601AE18BF081A141B04DA
:102C500094F4AB8241E050E0BE016D5F7F4FC8014C
:102C60000E94FB1DA501B701C8010E94FB1D03C006
:102C70008E3229F7E8CF7601FFEFEF1AFF0ADACF9D
:102C80001B8241E050E0BE016D5F7F4FC8010E9492
:102C9000FB1DE12CFF24F394FA82E98242E050E02C
:102CA000BE016F5F7F4FC8010E94FB1DFA82E9825F
:102CB00042E050E0BE016F5F7F4FC8010E94FB1DE4
:102CC00081E090E00F900F900F90DF91CF911F91D6
:102CD0000F91FF90EF90DF90CF90BF90AF9008954D
:102CE0004F925F926F927F928F929F92AF92BF921C
:102CF000CF92DF92EF92FF920F931F93CF93DF93C8
:102D0000CDB7DEB763970FB6F894DEBF0FBECDBF69
:102D10007C015B016A010E9455262B013C01870161
:102D2000085F1F4F4501A12CB12CC8010E949B1EBA
:102D30001816190694F00E9455266419750986091B
:102D4000970986169706A806B906D0F062E370E0E8
:102D500080E090E00E948426E8CFF7014281538111
:102D600064817581818D928DA38DB48D481759072B
:102D70006A077B0741F4858D968DC59721F406C0BF
:102D80008FEF9FEFF9C08EEF9FEFF6C0C8010E9452
:102D9000AE1D0C970CF4EEC04CE050E0BE016F5F2E
:102DA0007F4FC8010E94381E8B819C8198278927FC
:102DB00098279A8B898BF7014681578129813A811F
:102DC0004217530711F497FD06C0C8010E94C81DA1
:102DD0008CEF9FEFD1C08F709270892B31F0C801BA
:102DE0000E94C81D8BEF9FEFC7C0AF80B884BA2484
:102DF000AB24BA24A114B10419F0E12CF12C23C0A6
:102E0000C8010E94C81D8AEF9FEFB6C041E050E0A4
:102E1000BE01635F7F4FC8010E94381E8D858111FE
:102E20001BC08D858111F2CFC8010E940F1EC80101
:102E30000E940F1EC8010E940F1EC8010E940F1E93
:102E4000FFEFEF1AFF0A8D819E8198278927982727
:102E5000E816F906D8F20AC08D859FEF980F9D8776
:102E60008823F9F2C8010E940F1EF6CFE12CF12C45
:102E700041E050E0BE016D5E7F4FC8010E94381EE8
:102E80008B89982F907C61F4882371F08B899FEF58
:102E9000980F9B8B882341F0C8010E940F1EF6CF2C
:102EA000C8010E940F1E1B8A8B898111E1CF42E06D
:102EB00050E0BE01615F7F4FC8010E94381E42E0B2
:102EC00050E0BE01635F7F4FC8010E94381EC801F9
:102ED0000E940F1EC8010E940F1EC8010E940F1EF3
:102EE000C8010E940F1E42E050E0BE016F5E7F4F9E
:102EF000C8010E94381E8F8598898115914029F458
:102F00008D859E858115914019F0812C912C16C0DC
:102F100089899A898115944031F0C8010E94C81DA1
:102F200087EF9FEF29C0B6016E5F7F4F44E050E00E
:102F3000C8010E94381E81E090E01EC089899A89EC
:102F40009827892798278816990638F4C8010E947F
:102F50000F1E2FEF821A920AF1CF8FEFE81AF80AAC
:102F6000EA14FB0409F084CFC8010E94C81D86EF53
:102F70009FEF02C08DEF9FEF63960FB6F894DEBF10
:102F80000FBECDBFDF91CF911F910F91FF90EF90BA
:102F9000DF90CF90BF90AF909F908F907F906F9079
:102FA0005F904F9008958F929F92AF92BF92CF9271
:102FB000DF92EF92FF920F931F93CF93DF9300D096
:102FC00000D000D0CDB7DEB78C015B016A010E9452
:102FD0007B154C01009709F05DC0F80142815381D7
:102FE000648175818091B8059091B905A091BA0569
:102FF000B091BB05481759076A077B0709F44EC013
:103000000E9455267801F8E0EF0EF11C6F707727CB
:103010007C5FC7010E946E1E813009F043C085E2CB
:1030200093E09A838983F80182819381A481B58199
:103030008B839C83AD83BE8345E350E0BE016F5F0D
:103040007F4FC7010E94EF1D892B19F4812C912C11
:103050001DC0B501C8010E94C715892BB9F3C7016E
:103060000E94F71D892B91F333E0A32EB12CA6010A
:1030700068E873E1C8010E9470164C01F1E0AF1AD4
:10308000B10821F08F3F2FEF920789F3C7010E940B
:10309000DA1D08C088248394912C04C09EEF892EE9
:1030A00099249A94C40126960FB6F894DEBF0FBEF9
:1030B000CDBFDF91CF911F910F91FF90EF90DF90E7
:1030C000CF90BF90AF909F908F90089520919F03D5
:1030D000222399F03FB7F89420919F03213059F4AF
:1030E0002DB320939D034DB320919E03209524235F
:1030F0002DBB3FBF02C030939D038CBD9DBD089585
:1031000080919F03882361F09FB7F89420919F03DB
:1031100080919D03213019F48DBB9FBF08958FBF0F
:10312000089544E050E0BC0181E090E00C9401245B
:1031300044E050E0BC0185E090E00C94012444E0C0
:1031400050E0BC018FE090E00C9401248F929F929C
:10315000AF92BF92CF92DF92EF92FF920F931F93A5
:10316000CF93DF9300D0CDB7DEB74C016A01590190
:1031700086EE95E069837A830E94992380E590E04A
:103180000E94661846E050E069817A8189E090E00B
:103190000E940124C60102960E949F18C80102964F
:1031A0000E949118C70102960E9498180E948018E8
:1031B000F5014281538164817581F4014283538317
:1031C000648375830F900F90DF91CF911F910F91C2
:1031D000FF90EF90DF90CF90BF90AF909F908F9037
:1031E00008956F927F928F929F92AF92BF92CF92EB
:1031F000DF92EF92FF920F931F93CF93DF93CDB7A0
:10320000DEB76E970FB6F894DEBF0FBECDBF6C0170
:103210005B017A014901380100E02FEF4FEF6FEFBA
:10322000CE0149960E94D22825E233E03A832983D1
:103230008B8D9C8DAD8DBE8D8B839C83AD83BE832A
:1032400038872F83F30182819381A481B581898797
:103250009A87AB87BC873E872D87F4018281938153
:10326000A481B5818F87988BA98BBA8B3C8B2B8BD4
:10327000F70142815381648175814D8B5E8B6F8B29
:10328000788FCE0101967C018E01095F1F4F9E0150
:10329000235F3F4FAE014D5E5F4FB501C6010E94F7
:1032A000A6186E960FB6F894DEBF0FBECDBFDF91A5
:1032B000CF911F910F91FF90EF90DF90CF90BF9033
:1032C000AF909F908F907F906F900895CF92DF92F4
:1032D000EF92FF920F931F93CF93DF93CDB7DEB79B
:1032E00068970FB6F894DEBF0FBECDBF6B017901B2
:1032F000DA0112964D915D916D917C9115974D8BF0
:103300005E8B6F8B788FA5E2B3E0BA83A98321E04F
:10331000288F0D891E892F89388D0B831C832D835F
:103320003E83B887AF83F701028113812481358101
:1033300009871A872B873C87BE87AD874F87588BB5
:10334000698B7A8B8E010F5F1F4F9E01295F3F4F64
:10335000AE01435F5F4FB6010E94F11868960FB649
:10336000F894DEBF0FBECDBFDF91CF911F910F91BB
:10337000FF90EF90DF90CF9008950F931F93CF931E
:10338000DF93CDB7DEB762970FB6F894DEBF0FBEFE
:10339000CDBFDB01FA0142815381648175814F8782
:1033A000588B698B7A8BE5E2F3E0FA83E98321E0BD
:1033B0002A8B0F85188929893A890B831C832D83D1
:1033C0003E83F887EF8349875A876B877C879E0106
:1033D0002F5F3F4FAE01495F5F4FBD010E946619ED
:1033E00062960FB6F894DEBF0FBECDBFDF91CF91CE
:1033F0001F910F91089525E233E0FC013183208372
:10340000FB014281538164817581FC0142835383B6
:103410006483758308950F9300E020E040E060E04E
:103420008CEC95E00E94D2288CEB95E00F910C94E7
:10343000C828DC01ED91FC91008CF18DE02D0995FF
:1034400091E089270895CF93DF931F92CDB7DEB720
:103450006983DC01ED91FC910280F381E02D41E074
:1034600050E0BE016F5F7F4F09950F90DF91CF91C4
:10347000089521E0FC018485843009F420E0822F46
:103480000895FC019485FB018485981303C081E0B5
:10349000943009F480E008950F931F93CF93DF9346
:1034A000EC018A018C85843021F00E943B21892B1C
:1034B00039F481E090E09B838A8380E090E001C052
:1034C000C801DF91CF911F910F910895FC01848570
:1034D000843011F00C94322280E090E00895CF9374
:1034E000DF931F92CDB7DEB741E050E0BE016F5FC2
:1034F0007F4FFC0184850E94D221181619061CF406
:10350000898190E002C08FEF9FEF0F90DF91CF9104
:103510000895FC0184850C94D2210F931F93CF93BF
:10352000DF931F92CDB7DEB78C01DC01ED91FC91EA
:103530000480F581E02D0995892B51F0BE016F5F64
:103540007F4FF80184850E945D22898190E002C04E
:103550008FEF9FEF0F90DF91CF911F910F91089503
:10356000FC0184850C948C22CF92DF92EF92FF9223
:103570000F931F93CF93DF93CDB7DEB7AF970FB6FF
:10358000F894DEBF0FBECDBF7C018B016A01CE0176
:1035900001960E94C828CE0109960E94EB1ECE011A
:1035A0008A960E94C8286CEB75E0CE0184960E9432
:1035B000FB19BE016C5D7F4FCE0101960E946E1516
:1035C000AE01465D5F4FB801CE0101960E94D31750
:1035D00081309105C1F4D701ED91FC910484F5850A
:1035E000E02D85E293E09DA38CA30CA51DA52EA53F
:1035F0003FA50EA31FA328A739A7A601BE016C5D96
:103600007F4FC7010995AF960FB6F894DEBF0FBE86
:10361000CDBFDF91CF911F910F91FF90EF90DF9081
:10362000CF900895FC01262F1382128248EE53E0BA
:1036300060E070E0448355836683778387EC92E093
:103640009183808324870895FC018485843011F060
:103650000C94E51F80E00895DF92EF92FF920F93A4
:103660001F93CF93DF93EC017B018A018C8584301B
:1036700009F045C0D12C8D2D0E94E51F811102C09B
:10368000DC8607C08B7F8831D9F3D39484E0D812CD
:10369000F2CF8C85843099F1209121013091220163
:1036A0002F5F3F4F11F420E030EC30932201209344
:1036B0002101409121015091220120E061E00E940E
:1036C0003720B7016E5F7F4FA8018C850E94BD2017
:1036D000811103C084E08C8712C0CE010E94241B9C
:1036E000873151F061E070E080E090E00E94842634
:1036F000CE010E94241BECCF81E090E002C080E06C
:1037000090E0DF91CF911F910F91FF90EF90DF90AC
:103710000895CF92DF92EF92FF92CF93DF93EC0167
:103720008C85843081F10E9415210E9455266B0101
:103730007C01CE010E94241B882359F00E9455264B
:103740006C197D098E099F09683E734081059105BA
:1037500098F0CE010E94241B882319F08C850E94CA
:103760000D20EC85F0E0EE0FFF1FEC53FA4F1182B5
:10377000108284E08C8707C061E070E080E090E018
:103780000E948426D6CFDF91CF91FF90EF90DF90FB
:10379000CF900895CF93DF93EC018C858430D1F0E6
:1037A000CE010E94241B8431A9F0882399F088312E
:1037B00089F08C3169F4E881F9810480F581E02D8C
:1037C000CE01099521E0892B09F420E0822F03C066
:1037D00081E001C080E0DF91CF9108950F9300E078
:1037E00020E040E060E082ED95E00E94D2280F9159
:1037F0000895CF93DF931F92CDB7DEB76983DC01C5
:10380000ED91FC910280F381E02D41E050E0BE019A
:103810006F5F7F4F09950F90DF91CF910895EF92E1
:10382000FF920F931F93CF93DF93CDB7DEB72D9702
:103830000FB6F894DEBF0FBECDBF7C0100E010E0F4
:10384000602FCE0101960E94121BCE0101960E94AC
:10385000241B811116C0F7014481558120E061E0ED
:10386000802F0E943720802F0E948B20F7018481B7
:103870009581F801EE0FFF1FEC53FA4F918380837F
:1038800005C00F5F1F4F04301105D1F62D960FB6FE
:10389000F894DEBF0FBECDBFDF91CF911F910F9186
:1038A000FF90EF900895FC011382128287EE92E060
:1038B00091838083758364830895BF92CF92DF9252
:1038C000EF92FF920F931F93CF93DF93CDB7DEB7A5
:1038D0002D970FB6F894DEBF0FBECDBF8C0144EC20
:1038E000C42E45E0D42EB12CE12CF12C6B2DCE0151
:1038F00001960E94121BD6012D913D916D01F80198
:103900008481958128173907B1F4CE0101960E9470
:10391000241B843169F0CE0101960E94241B8C3156
:1039200051F4CE0101960E94661A892B99F003C0CA
:10393000EE24E394F12CB394F4E0BF12D7CFEF2838
:1039400071F4D801ED91FC910480F581E02DC8015E
:10395000099505C0CE0101960E94891BECCF2D96DA
:103960000FB6F894DEBF0FBECDBFDF91CF911F9190
:103970000F91FF90EF90DF90CF90BF9008957F92CE
:103980008F929F92AF92BF92CF92DF92EF92FF926F
:103990000F931F93CF93DF93CDB7DEB72D970FB65D
:1039A000F894DEBF0FBECDBF6C015B014A010E94DF
:1039B0005D1C54ECE52E55E0F52E712C00E010E076
:1039C000672DCE0101960E94121BF70121913191C2
:1039D0007F01F601848195812817390731F4CE01E2
:1039E00001960E94241B8731C9F07394F4E07F1282
:1039F000E7CFC8012D960FB6F894DEBF0FBECDBF3E
:103A0000DF91CF911F910F91FF90EF90DF90CF90BA
:103A1000BF90AF909F908F907F900895A401B501C3
:103A2000CE0101960E944C1A080F191FDECFBF92DB
:103A3000CF92DF92EF92FF920F931F93CF93DF937A
:103A4000CDB7DEB72D970FB6F894DEBF0FBECDBF52
:103A50008C016B01CB010E945D1C64ECE62E65E0DD
:103A6000F62EB12C6B2DCE0101960E94121BF70190
:103A7000219131917F01F6018481958128173907C1
:103A800061F4CE0101960E94241B873179F0CE01AA
:103A900001960E94241B8C3149F0B394F4E0BF12CC
:103AA000E1CF64E0C8010E94121B21C0CE01019643
:103AB0000E94661A892B89F38B819C81F80193837C
:103AC00082838D819E81AF81B88584839583A6830F
:103AD000B78349855A856B857C8540875187628786
:103AE000738787EC92E0918380838D858487C801FA
:103AF0002D960FB6F894DEBF0FBECDBFDF91CF91EC
:103B00001F910F91FF90EF90DF90CF90BF9008959D
:103B10000F9300E020E040E060E088ED95E00E9437
:103B2000D2280F910895DC01ED91FC91008CF18D6C
:103B3000E02D099425E233E0FC0131832083FB0171
:103B40004189528963897489FC0142835383648368
:103B500075830895FC01858996890895FC01818DFE
:103B6000928D0895CF93DF931F92CDB7DEB769830F
:103B7000DC01ED91FC910280F381E02D41E050E009
:103B8000BE016F5F7F4F09950F90DF91CF91089530
:103B9000CF93DF93EC01898D9A8D892B41F0E881D9
:103BA000F9810680F781E02DCE010995F4CFDF91F0
:103BB000CF910895CF93DF93EC018C85843061F031
:103BC0000E940D20EC85F0E0EE0FFF1FEC53FA4F42
:103BD0001182108284E08C87DF91CF910895FC01DF
:103BE000108E178A6E5F7F4F84850C94D422FC015F
:103BF00084850C941A23CF93DF93EC019A018F896B
:103C0000988DAB01BC018C850E948D222F89388D47
:103C1000280F391F388F2F8BDF91CF9108950F9385
:103C20001F93CF93DF931F92CDB7DEB78C01FC01BA
:103C3000818D928D892B59F041E050E0BE016F5F7C
:103C40007F4F84850E94D221181619061CF08FEF31
:103C50009FEF08C0F801818D928D0197928F818F1F
:103C6000898190E00F90DF91CF911F910F9108957E
:103C7000CF93DF93EC01898D9A8D009719F48FEF24
:103C80009FEF10C04817590708F0AC018C850E94BF
:103C9000D221181619069CF7298D3A8D281B390B4D
:103CA0003A8F298FDF91CF910895CF93DF931F92A1
:103CB000CDB7DEB7FC01218D328D232B49F0BE013B
:103CC0006F5F7F4F84850E945D22898190E002C0F2
:103CD0008FEF9FEF0F90DF91CF910895FF920F9399
:103CE0001F93CF93DF93EC018B018C858430E1F43B
:103CF000F12C8F2D0E94E51F811102C0FC8606C0A9
:103D00008831E1F3F39484E0F812F3CF8C858430AA
:103D100059F01E870D871A8E198E20E0A80162E0E7
:103D20000E94372081E001C080E0DF91CF911F9198
:103D30000F91FF9008950F931F93CF93DF93CDB70B
:103D4000DEB728970FB6F894DEBF0FBECDBF8C014B
:103D5000DC01ED91FC910284F385E02D0995F801D9
:103D600084850E9432221816190644F548E050E076
:103D7000BE016F5F7F4FD8011C968C910E94D221AB
:103D800018161906ECF4BE016F5F7F4FC8010F963D
:103D90000E94EE288D8190E0982F88272E81820F37
:103DA000911DF801968B858B8F8190E0982F882745
:103DB0002885820F911D928F818F02C080E090E054
:103DC00028960FB6F894DEBF0FBECDBFDF91CF911E
:103DD0001F910F910895FC011382128248EE53E067
:103DE00060E070E0448355836683778381EF92E0DF
:103DF0009183808384E08487CF010F960C94C82838
:103E0000CF92DF92EF92FF920F931F93CF93DF93A6
:103E1000CDB7DEB7AF970FB6F894DEBF0FBECDBFFC
:103E20007C018B016A01CE0101960E94C828CE0157
:103E300009960E94EB1ECE018A960E94C8286CEB60
:103E400075E0CE0184960E94FB19BE016C5D7F4F28
:103E5000CE0101960E946E15AE01465D5F4FB8011E
:103E6000CE0101960E94D31781309105C1F4D7018C
:103E7000ED91FC910088F189E02D85E293E09DA30E
:103E80008CA30CA51DA52EA53FA50EA31FA328A797
:103E900039A7A601BE016C5D7F4FC7010995AF969A
:103EA0000FB6F894DEBF0FBECDBFDF91CF911F914B
:103EB0000F91FF90EF90DF90CF9008950F9300E067
:103EC00020E040E060E08EED95E00E94D2280F9166
:103ED0000895CF92DF92EF92FF920F9330E0C12CC2
:103EE000F2E1DF2EFAE7EF2EF12C4C155D056E05A1
:103EF0007F0540F4F694E794D794C7943F5F36303B
:103F0000A1F737E041E04327211102C050E701C08B
:103F100050E5242F30E03595279523700C70202B29
:103F2000252BFC012083417041830F91FF90EF907E
:103F3000DF90CF90089590E0982F882744E050E0DC
:103F4000845F9B4F0C940124282F30E02C5F3F4F5F
:103F5000922F8827860F971F0C94302462E070E020
:103F60000C94A41FFB01282F30E02C5F3F4F922FB1
:103F70008827642F8E0F9F1F0C947723CF93DF9396
:103F8000C82FD62F472F64E070E00E94B21F4D2F3C
:103F900065E070E08C2FDF91CF910C94B21F462F1B
:103FA00062E070E00C94B21FCF93DF93C82FD62F3E
:103FB000472F60E170E00E94B21F4D2F61E170E079
:103FC0008C2FDF91CF910C94B21F0F931F93CF933F
:103FD000DF9300D01F92CDB7DEB7182F00E021E0AD
:103FE00040E059E06DE370E0CE0101960E94691F48
:103FF00089819A810E94661863E070E0812F0E9497
:10400000A41F8B830E9480188B810F900F900F90BC
:10401000DF91CF911F910F9108950F931F93CF932D
:10402000DF9300D0CDB7DEB7182F00E021E040E0ED
:1040300059E06DE370E0CE0101960E94691F89810D
:104040009A810E94661840E150E0612F86EE95E06B
:104050000E94FA256FEF812F0E94CF1F0E948018C7
:104060000F900F90DF91CF911F910F910895CF92F4
:10407000DF92EF92FF920F931F93CF93DF9300D0C5
:10408000CDB7DEB7182FD62E7A01C22E8FEF860F4E
:104090008530A8F5812F0E940D2000E021E040E04E
:1040A00059E06DE370E0CE0101960E94691F89819D
:1040B0009A810E9466184D2D4C2960E070E0812F96
:1040C0000E94B21FE114F10411F0B7010AC060911F
:1040D000E4057091E5056F5F7F4F7093E505609390
:1040E000E405812F0E94BE1F41E050E0612F86EE63
:1040F00095E00E94FA250E94801881E001C080E0CE
:104100000F900F90DF91CF911F910F91FF90EF9043
:10411000DF90CF9008950F931F93CF93DF9300D03C
:10412000CDB7DEB7182F00E021E040E059E06DE3A5
:1041300070E0CE0101960E94691F89819A810E94D8
:10414000661863E070E0812F0E94A41F833121F084
:104150000E94801880E00AC042E050E0612F86EEA5
:1041600095E00E94FA250E94801881E00F900F9040
:10417000DF91CF911F910F910895CF92DF92EF922F
:10418000FF920F931F93CF93DF9300D0CDB7DEB78D
:10419000182F7B016A01FB0180818F3F51F48181DF
:1041A0008F3F99F482818F3F81F483818F3F69F43F
:1041B00030C081110AC0FB018181811106C082815A
:1041C000811103C08381882321F1C114D10409F135
:1041D00000E021E040E059E06DE370E0CE0101969F
:1041E0000E94691F89819A810E946618B701812FF8
:1041F0000E949B1FB601812F0E94D41F44E050E013
:10420000612F86EE95E00E94FA250E94801881E0D9
:1042100001C080E00F900F90DF91CF911F910F911F
:10422000FF90EF90DF90CF9008950F931F93CF935F
:10423000DF9300D0CDB7DEB7182F00E021E040E0DB
:1042400059E06DE370E0CE0101960E94691F8981FB
:104250009A810E94661848E050E0612F86EE95E052
:104260000E94FA250E9480180F900F90DF91CF9145
:104270001F910F910895BF92CF92DF92EF92FF921C
:104280000F931F93CF93DF9300D01F92CDB7DEB76C
:10429000B82E6B017A01413088E0580718F0E12C04
:1042A00098E0F92E00E021E040E059E06DE370E095
:1042B000CE0101960E94691F89819A810E94661829
:1042C0006B2D86EE95E00E9468248C0163E070E01F
:1042D0008B2D0E94A41F8B830E9480188B818731B5
:1042E00011F08C3131F40E940A260E151F05D0F210
:1042F00002C0E12CF12C00E021E040E059E06DE348
:1043000070E0CE0101960E94691F89819A810E9406
:1043100066189701A6016B2D86EE95E00E94272571
:1043200040E250E06B2D86EE95E00E94FA258B2D41
:104330000E94AE1F84FD22C063E070E08B2D0E94BE
:10434000A41F811108C00E9480188B2D0E940D208F
:1043500080E090E01AC00E9480180E940A2600E0C7
:1043600021E040E059E06DE370E0CE0101960E944B
:10437000691F89819A810E946618D9CF60E18B2DCF
:104380000E94CF1F0E948018C7010F900F900F90BE
:10439000DF91CF911F910F91FF90EF90DF90CF9021
:1043A000BF900895AF92BF92CF92DF92EF92FF92AB
:1043B0000F931F93CF93DF9300D0CDB7DEB7182FA5
:1043C0005B016A0100E021E040E059E06DE370E04C
:1043D000CE0101960E94691F89819A810E94661808
:1043E000612F86EE95E00E949C247C010097A1F449
:1043F00063E070E0812F0E94A41F843119F18823AB
:1044000009F121E030E08C3111F420E030E0EE24BD
:10441000FF24E21AF30A16C0C816D9060CF4760176
:104420001E141F047CF400E09701A501612F86EEA5
:1044300095E00E94AA2540E450E0612F86EE95E0C9
:104440000E94FA250E948018C7010F900F90DF91FB
:10445000CF911F910F91FF90EF90DF90CF90BF9081
:10446000AF9008950F931F93CF93DF9300D000D0A8
:10447000CDB7DEB7182F00E021E040E059E06DE352
:1044800070E0CE0101960E94691F89819A810E9485
:104490006618612F86EE95E00E949C248B839C8396
:1044A0000E9480188B819C810F900F900F900F902D
:1044B000DF91CF911F910F910895EF92FF920F938B
:1044C0001F93CF93DF9300D0CDB7DEB7182F7B01BA
:1044D00000E021E040E059E06DE370E0CE0101969C
:1044E0000E94691F89819A810E94661801E021E07B
:1044F00030E0A701612F86EE95E00E94AA250E9478
:10450000801881E090E00F900F90DF91CF911F9184
:104510000F91FF90EF90089508959F92AF92BF92F0
:10452000CF92DF92EF92FF920F931F93CF93DF937F
:1045300000D0CDB7DEB7982E6B015A01790100E0AB
:1045400021E040E059E06DE370E0CE0101960E9469
:10455000691F89819A810E946618692D86EE95E00F
:104560000E9468248E159F0530F4692D86EE95E033
:104570000E9468247C0187019501A601692D86EEC1
:1045800095E00E94B8240E948018C7010F900F90F8
:10459000DF91CF911F910F91FF90EF90DF90CF901F
:1045A000BF90AF909F900895CF92DF92EF92FF92CD
:1045B0000F931F93CF93DF9300D0CDB7DEB7182FA3
:1045C0007B016A01FB018081811109C08181811118
:1045D00006C08281811103C083818823F1F0C11458
:1045E000D104D9F000E021E040E059E06DE370E053
:1045F000CE0101960E94691F89819A810E946618E6
:10460000B701812F0E949B1FB601812F0E94D41FEA
:104610000E94801881E090E002C080E090E00F905E
:104620000F90DF91CF911F910F91FF90EF90DF904E
:10463000CF9008950F931F93CF93DF9300D0CDB702
:10464000DEB7182F00E021E040E059E06DE370E0B4
:10465000CE0101960E94691F89819A810E94661885
:1046600040E250E0612F86EE95E00E94FA25812F0E
:104670000E94AE1F84FD21C0812F0E94AE1F83FFC8
:1046800009C068E1812F0E94CF1F0E94801880E03E
:1046900090E01BC00E9480180E940A2600E021E0E2
:1046A00040E059E06DE370E0CE0101960E94691F81
:1046B00089819A810E946618DACF60E1812F0E9479
:1046C000CF1F0E94801881E090E00F900F90DF9143
:1046D000CF911F910F9108958EBD00000DB407FE7C
:1046E000FDCF8EB508952E9808952E9A08951F93A4
:1046F000CF93DF9300D0CDB7DEB7182F6A839983AD
:104700000E94732380EF0E946C239981892F0E945D
:104710006C23812F0E946C236A81862F0E946C2358
:104720000E94752381E00F900F90DF91CF911F9130
:104730000895CF93DF93EC016CE271E080E090E0AC
:104740000E9484260E941904269A80919F03882340
:1047500099F09FB7F89480919F03813059F48DB3FD
:1047600080939D032DB380919E03809582238DBB02
:104770009FBF02C090939D0380E58CBD1DBC60E887
:1047800080E090E00E94772365E58BE190E00E9455
:10479000772365E58AE190E00E94772380919F036B
:1047A000882361F09FB7F89420919F0380919D0327
:1047B000213019F48DBB9FBF01C08FBF80E090E412
:1047C0009983888380E090E69987888780E098E4E1
:1047D0009B838A8380E098E69B878A8780E090E5C8
:1047E0009D838C8380E090E79D878C8780E098E5AF
:1047F0009F838E8380E098E79F878E87DF91CF919C
:104800000895CF92DF92EF92FF920F931F93CF9371
:10481000DF93EC017A018B016C01C40ED51ECC151F
:10482000DD05A1F00E94732380EF0E946C238D2F81
:104830000E946C238C2F0E946C232196F801819199
:104840008F010E946C230E947523E9CFC701DF917D
:10485000CF911F910F91FF90EF90DF90CF9008952F
:104860001F93CF93DF931F92CDB7DEB7182F998395
:104870000E9473238FE00E946C239981892F0E94EC
:104880006C23812F0E946C2380E00E946C2389831B
:104890000E94752389810F90DF91CF911F91089518
:1048A0001F93CF93DF93182F60E270E00E94A41F44
:1048B000C82FD0E061E270E0812F0E94A41FDC2F9E
:1048C000CC279E01282BC901DF91CF911F9108951C
:1048D000FF920F931F93CF93DF93F62EC0E0D0E0AB
:1048E0008F2D0E9450248C01009721F08F2D0E9463
:1048F0005024EC01C017D10799F7CE01DF91CF9179
:104900001F910F91FF9008951F93CF93DF93182F5E
:1049100066E270E00E94A41FC82FD0E067E270E05A
:10492000812F0E94A41FDC2FCC279E01282BC901B8
:10493000DF91CF911F910895FF920F931F93CF9313
:10494000DF93F62EC0E0D0E08F2D0E9484248C01EE
:10495000009721F08F2D0E948424EC01C017D1070D
:1049600099F7CE01DF91CF911F910F91FF9008959C
:104970006F927F929F92AF92BF92CF92DF92EF920F
:10498000FF920F931F93CF93DF931F92CDB7DEB7A4
:10499000D82E962E3A01590164E270E0892D998350
:1049A0000E94A41FE82EF12C65E270E0892D0E9480
:1049B000A41FFE2CEE24E82AE60CF71C97013770A2
:1049C0006D2C9981792E690C711C690C711CD301B5
:1049D000ED91FC91E20FF31FC901800F911F81300F
:1049E0009840A0F0C12C48E0D42EC21AD30AA601E8
:1049F000B501CF010E940124A8014C195D09B50140
:104A00006C0D7D1DF3018081918103C0A801B5016A
:104A1000CF010E940124E00EF11E4F2D64E270E0F0
:104A2000892D0E94B21F4E2D65E270E0892D0F90F6
:104A3000DF91CF911F910F91FF90EF90DF90CF907A
:104A4000BF90AF909F907F906F900C94B21F0F9388
:104A50001F9389019A0140E050E00E94B8241F9101
:104A60000F910895CF92DF92EF92FF920F931F93D1
:104A7000CF93DF93EC017A018B016C01C40ED51E3C
:104A8000CC15DD05A9F00E9473238FE00E946C23F2
:104A90008D2F0E946C238C2F0E946C23219680E026
:104AA0000E946C23F80181938F010E947523E8CF47
:104AB000C701DF91CF911F910F91FF90EF90DF9091
:104AC000CF900895AF92BF92CF92DF92EF92FF9274
:104AD0000F931F93CF93DF9300D0CDB7DEB75A83E8
:104AE00049835901E981FA81F7707C01E60EF11CD6
:104AF000E60EF11CD70118968D919C9119978E0F97
:104B00009F1F98012E0F3F1F2130384098F0C12C75
:104B100068E0D62ECE1ADF0AA601B5010E94322522
:104B2000A8014C195D09B5016C0D7D1DF70180854B
:104B3000918502C0A801B5010F900F90DF91CF9130
:104B40001F910F91FF90EF90DF90CF90BF90AF90AB
:104B50000C9432258F929F92AF92BF92CF92DF92A8
:104B6000EF92FF920F931F93CF93DF936C01962EDA
:104B70005A017901802E68E270E0892D0E94A41FFD
:104B8000C82FD0E069E270E0892D0E94A41FDC2FBD
:104B9000CC27C82B87019501AE01692DC6010E9463
:104BA000622581101AC0CE0DDF1D4D2F68E270E026
:104BB000892D0E94B21F4C2F69E270E0892DDF9190
:104BC000CF911F910F91FF90EF90DF90CF90BF900A
:104BD000AF909F908F900C94B21FDF91CF911F9157
:104BE0000F91FF90EF90DF90CF90BF90AF909F908C
:104BF0008F900895CF93C62F61E070E08C2F0E94B4
:104C0000B21F61E070E08C2F0E94A41F8111F9CFC8
:104C1000CF91089508951F920F920FB60F9211240D
:104C20002F933F938F939F93AF93BF938091F705FB
:104C30009091F805A091F905B091FA053091F6052B
:104C400023E0230F2D3720F40196A11DB11D05C0CF
:104C500026E8230F0296A11DB11D2093F60580932F
:104C6000F7059093F805A093F905B093FA058091A4
:104C7000FB059091FC05A091FD05B091FE05019604
:104C8000A11DB11D8093FB059093FC05A093FD052C
:104C9000B093FE05BF91AF919F918F913F912F915E
:104CA0000F900FBE0F901F9018952FB7F89460913A
:104CB000F7057091F8058091F9059091FA052FBFDD
:104CC00008953FB7F8948091FB059091FC05A09161
:104CD000FD05B091FE0526B5A89B05C02F3F19F034
:104CE0000196A11DB11D3FBF6627782F892F9A2FEE
:104CF000620F711D811D911D42E0660F771F881F95
:104D0000991F4A95D1F70895CF92DF92EF92FF92C3
:104D1000CF93DF936B017C010E946126EB01C114EC
:104D2000D104E104F10489F00E940A260E94612660
:104D30006C1B7D0B683E734090F381E0C81AD1086C
:104D4000E108F108C851DC4FEACFDF91CF91FF9025
:104D5000EF90DF90CF900895789484B5826084BD01
:104D600084B5816084BD85B5826085BD85B581606F
:104D700085BDEEE6F0E0808181608083E1E8F0E0CF
:104D80001082808182608083808181608083E0E8FE
:104D9000F0E0808181608083E1E9F0E080818260E1
:104DA0008083808181608083E0E9F0E080818160A0
:104DB0008083E1ECF0E08081846080838081826088
:104DC0008083808181608083E3ECF0E0808181607A
:104DD0008083E0ECF0E0808182608083E2ECF0E0B0
:104DE000808181608083EAE7F0E080818460808355
:104DF00080818260808380818160808380818068FF
:104E00008083089590E0FC013197EF30F105B0F513
:104E1000EA5AFF4F0C94BB2F809180008F7703C01C
:104E2000809180008F7D8093800008958091800024
:104E3000877FF9CF84B58F7702C084B58F7D84BD1D
:104E40000895809190008F7707C0809190008F7DAA
:104E500003C080919000877F809390000895809197
:104E6000C0008F7703C08091C0008F7D8093C00009
:104E700008958091C200877F8093C2000895CF93E8
:104E8000DF9390E0FC01EE56FE4F2491FC01E055CB
:104E9000FE4F8491882349F190E0880F991FFC010F
:104EA000E452FE4FA591B49182539E4FFC01C591EF
:104EB000D4919FB7611108C0F8948C9120958223FA
:104EC0008C93888182230AC0623051F4F8948C91CB
:104ED000322F309583238C938881822B888304C062
:104EE000F8948C91822B8C939FBFDF91CF91089582
:104EF0000F931F93CF93DF931F92CDB7DEB7282F69
:104F000030E0F901EC58FE4F8491F901EE56FE4F66
:104F10001491F901E055FE4F04910023C9F0882354
:104F200021F069830E9402276981E02FF0E0EE0FF3
:104F3000FF1FE253FE4FA591B4919FB7F8948C9157
:104F4000611103C01095812301C0812B8C939FBFF9
:104F50000F90DF91CF911F910F910895CF93DF9321
:104F60001F92CDB7DEB76983DC01ED91FC91028021
:104F7000F381E02D41E050E0BE016F5F7F4F099566
:104F80000F90DF91CF910895CF93DF93EC018C8543
:104F90009D8597FF05C082E00E94832B9D878C87AB
:104FA0008C859D85DF91CF91089583E00C94D82D59
:104FB000FC018485958597FD06C082E00E942B2B1D
:104FC00090E00196089582E00E942B2B90E00895D6
:104FD000FC018485958597FD05C02FEF3FEF358750
:104FE0002487089582E00C94832BCF93DF93EC0108
:104FF00080912A01882331F083E00E94B42B181697
:10500000190634F081E090E09B838A8380E090E091
:10501000DF91CF910895FC0120812E5F208342E42F
:1050200050E06AEE71E080E80C944F2CFC01818125
:105030009081913A59F4813209F03CC047E050E048
:1050400063E271E080E00E944F2C43C0913291F501
:10505000803239F467E070E083E291E00E94802CB6
:1050600006C0823209F035C0828180932A01809186
:10507000230190912401A0912501B0912601803B4C
:105080009440A105B105C1F480912A0180FD14C0AE
:1050900087E797E790930108809300082BE088E169
:1050A00090E00FB6F894A895809360000FBE20930F
:1050B00060000FC080E0089588E10FB6F8948093F7
:1050C0006000109260000FBEA89510920108109227
:1050D000000881E008952FEF3FEFFC01358724871A
:1050E0000895109202061092010688EE93E0A0E067
:1050F000B0E08093030690930406A0930506B09356
:10510000060685E193E0909300068093FF058FEFFC
:105110009FEF90930C0680930B060895AF92BF9279
:10512000CF92DF92EF92FF920F931F93CF93DF9373
:105130006C017B01C0E0D0E000E010E0F601EC0F74
:10514000FD1F4AE050E06281C7010E948E2A5C0187
:105150006EE2C7010E947F298A0D9B1D080F191F4F
:105160002196C330D10551F74AE050E0F601658140
:10517000C7010E948E2A800F911FDF91CF911F914E
:105180000F91FF90EF90DF90CF90BF90AF90089578
:1051900025E233E0FC0131832083128213821482E2
:1051A000158208950F93FC0185E293E0918380833B
:1051B00062834383248305830F91089525E233E0BE
:1051C000FC0131832083FB01408151816281738125
:1051D000FC0142835383648375830895FB014081FE
:1051E000518162817381FC0142835383648375839F
:1051F000089585E293E09093500680934F061092B5
:1052000051061092520610925306109254060895B9
:1052100008950E94AC260E94082985E596E00E9428
:10522000382E0E944902C0E0D0E00E94E40220979C
:10523000E1F30E940000F9CFCF92DF92EF92FF924C
:105240000F931F93CF93DF936C017A01EB01E60E6E
:10525000F71E00E010E0CE15DF0561F06991D60180
:10526000ED91FC910190F081E02DC6010995080FA8
:10527000191FF1CFC801DF91CF911F910F91FF90BE
:10528000EF90DF90CF9008956115710581F0DB01FB
:105290000D900020E9F7AD0141505109461B570B15
:1052A000DC01ED91FC910280F381E02D099480E016
:1052B00090E00895EF92FF920F931F93CF93DF93A7
:1052C0008C01FB01C0E0D0E064917F018FEFE81A10
:1052D000F80A662361F0D801ED91FC910190F0810C
:1052E000E02DC8010995C80FD91FF701EDCFCE01F8
:1052F000DF91CF911F910F91FF90EF900895DC0106
:10530000ED91FC910190F081E02D09940F931F9392
:10531000CF93DF93EC016DE00E947F298C016AE05E
:10532000CE010E947F29800F911FDF91CF911F91A5
:105330000F9108950F931F93CF93DF93EC010E9479
:105340005A298C01CE010E948629800F911FDF917E
:10535000CF911F910F9108950F931F93CF93DF93D8
:10536000EC010E9444298C01CE010E948629800F05
:10537000911FDF91CF911F910F9108958F929F926E
:10538000AF92BF92CF92DF92EF92FF920F931F9353
:10539000CF93DF93CDB7DEB7A1970FB6F894DEBFFA
:1053A0000FBECDBF7C01C42EE52FCB01D22E19A29A
:1053B00021E02D1510F02AE0D22E8E010F5D1F4F37
:1053C0008D2C912CA12CB12C6C2D7E2FA50194013C
:1053D0000E94992F8C2DD29E801911240150110901
:1053E0008A3014F4805D01C0895CF8018083211546
:1053F00031054105510521F0C22EE32FCA01E4CF4A
:10540000B801C7010E944429A1960FB6F894DEBFE7
:105410000FBECDBFDF91CF911F910F91FF90EF9005
:10542000DF90CF90BF90AF909F908F900895CF92D4
:10543000DF92EF92FF920F931F93CF93DF93EC01D4
:105440006A017B012115310579F4E881F981019028
:10545000F081E02D642FDF91CF911F910F91FF908C
:10546000EF90DF90CF9009942A303105E9F477FF6F
:105470001AC06DE20E947F298C0144275527BA018A
:105480004C195D096E097F092AE0CE010E94BE29F0
:10549000800F911FDF91CF911F910F91FF90EF909F
:1054A000DF90CF9008952AE0B701A601CE01DF91E9
:1054B000CF911F910F91FF90EF90DF90CF900C94C0
:1054C000BE299A01AB01662757FD6095762F0C9493
:1054D000172A0F931F93CF93DF93EC019A01AB012F
:1054E000662757FD6095762F0E94172A8C01CE0102
:1054F0000E948629800F911FDF91CF911F910F91FC
:1055000008952115310541F4DC01ED91FC910190E4
:10551000F081E02D642F09940C94BE299A01462F46
:1055200050E060E070E00C94812A0F931F93CF93BA
:10553000DF93EC019A01462F50E060E070E00E949A
:10554000812A8C01CE010E948629800F911FDF9154
:10555000CF911F910F9108959A01AB0160E070E027
:105560000C94812A4091590650915A062091570671
:105570003091580642175307B4F49091E8009570A3
:10558000E1F39091E80092FD19C08093F1008091C1
:10559000590690915A0601968F739927892B19F411
:1055A0008EEF8093E8008091590690915A060196FB
:1055B00090935A068093590681E0089580E00895FB
:1055C000CF92DF92FF920F931F93CF93DF931F929F
:1055D000CDB7DEB7082F162F862F880F8E5F9983E1
:1055E0000E94B22A83E00E94B22AF02EC02E998136
:1055F000D92E8C2D8F19811778F4F60184910E9491
:10560000B22A082F80E00E94B22A8023FFEFCF1A2F
:10561000DF0A8111EECF01C081E00F90DF91CF91C1
:105620001F910F91FF90DF90CF900895615030F05F
:105630002091F100FC0120830196F8CF289884E6A0
:1056400080935C0608952FB7FC012083F89467705F
:105650006093E9000895CF93DF931F92CDB7DEB733
:10566000682FCE0101960E94232B8091F200998130
:105670009FBF0F90DF91CF910895FF920F931F93DB
:10568000CF93DF9300D0CDB7DEB7F62E8A0190918D
:105690005B06992311F057FF03C08FEF9FEF2BC0DC
:1056A000682FCE0101967A830E94232B8091F2000D
:1056B00090E0A8017A81801791070CF4AC01EF2DDE
:1056C000F72FF40E84E6FE1639F0289880935C06D6
:1056D0009091F1009193F7CF4115510521F0809100
:1056E000F200882321F089818FBFCA0104C08BE6B4
:1056F0008093E800F8CF0F900F90DF91CF911F912A
:105700000F91FF900895CF93DF931F92CDB7DEB72F
:1057100041E050E0BE016F5F7F4F0E943D2B01973B
:1057200019F4898190E002C08FEF9FEF0F90DF9115
:10573000CF910895CF93DF931F92CDB7DEB7682F37
:10574000CE0101960E94232B9091E800892F807250
:1057500095FF04C09091F20080E4891B99819FBF5E
:105760000F90DF91CF9108956F927F928F929F92C9
:10577000AF92BF92CF92DF92EF92FF920F931F935F
:10578000CF93DF931F92CDB7DEB7782E7B01C42E67
:10579000B52E80915B06882369F0042F152F8AEFC0
:1057A000D82E872D8072982E9AE3A92E872D80748B
:1057B000882E11C08FEF9FEF57C0872D0E949A2B24
:1057C000682E81110CC0DA94A9F361E070E080E0EA
:1057D00090E00E9484260115110579F73BC0282F1F
:1057E00030E0021713070CF4602E672DCE010196EE
:1057F0000E94232B8091E80085FF29C0262D30E0F0
:10580000021B130B992039F06A948FEF6816B1F0E0
:105810001092F100F9CFF701862D77FE07C0815075
:1058200058F094919093F1003196F9CF815020F087
:1058300091919093F100FACFE20EF31E8091E8006F
:1058400085FF0FC00115110511F481100AC089816F
:105850008FBFC1CF5D9884E680935D068C2D9B2D14
:1058600003C0A092E800F3CF0F90DF91CF911F917A
:105870000F91FF90EF90DF90CF90BF90AF909F90EF
:105880008F907F906F9008951092E90010925A06C1
:105890001092590690935806809357060895CF9218
:1058A000DF92FF920F931F93CF93DF9300D0CDB77A
:1058B000DEB7F82E8A016B0101151105B1F0F60172
:1058C000F7FE02C0849101C0808149835A830E94FF
:1058D000B22A01501109FFEFCF1ADF0A49815A811C
:1058E0008111EACF8FEF9FEF01C0CA010F900F9097
:1058F000DF91CF911F910F91FF90DF90CF9008958E
:105900001F93CF93DF931F92CDB7DEB7162F209151
:10591000E80022FFFCCF612F79830E94162B8BEFCA
:105920008093E800812F7981972F0F90DF91CF919D
:105930001F910895CF93DF931F92CDB7DEB71982E1
:10594000CE0101960E940B28CE0101960E94742E72
:10595000898190E00F90DF91CF9108951F920F926F
:105960000FB60F921124EF92FF920F931F932F9374
:105970003F934F935F936F937F938F939F93AF93D7
:10598000BF93EF93FF93CF93DF93CDB7DEB76297CB
:10599000DEBFCDBF1092E9008091E80083FFEBC02D
:1059A00068E0CE010A960E94162B82EF8093E800F1
:1059B0009A8597FF05C08091E80080FFFCCF03C067
:1059C0008EEF8093E800892F807609F0B9C08B852F
:1059D000811105C01092F1001092F100C5C0282F6E
:1059E0002D7F213009F4C0C0853049F48091E80052
:1059F00080FFFCCF8C8580688093E300B5C0863043
:105A000009F076C02D85E888F988223071F580E0AC
:105A100090E02A8B0E94442C0E949A2C99E08E01DF
:105A20000F5F1F4FF801392F11923A95E9F79983CB
:105A30002A892A8391E09E8390E898879AEF998734
:105A40002091590630915A06275F3F4F3C832B83A4
:105A50008D83C7010E94442C49E050E0B80180E0EA
:105A60000E944F2C0E949A2C7FC0C7012A8B0E9453
:105A7000442C2A89223241F482E290E00E947F2E57
:105A8000892B09F071C074C0213069F48889998923
:105A9000089711F42093560680915606811118C07C
:105AA00063E472E01AC0233009F062C08C85882359
:105AB00091F0823021F460E181E692E006C081300D
:105AC00009F056C06BE085E592E00E94E02A4AC0EA
:105AD00061E372E002C062E772E06115710509F4EA
